{"abi":[{"inputs":[{"internalType":"uint256","name":"","type":"uint256"}],"name":"allDeployedContracts","outputs":[{"internalType":"address","name":"","type":"address"}],"stateMutability":"view","type":"function"},{"inputs":[{"internalType":"uint256","name":"minimum","type":"uint256"}],"name":"createContract","outputs":[],"stateMutability":"nonpayable","type":"function"},{"inputs":[],"name":"getAllDeployedContract","outputs":[{"internalType":"address[]","name":"","type":"address[]"}],"stateMutability":"view","type":"function"}],"devdoc":{"kind":"dev","methods":{},"version":1},"evm":{"assembly":"    /* \"Crowdfunding.sol\":25:420  contract CrowdfundFactory {... */\n  mstore(0x40, 0x80)\n  callvalue\n  dup1\n  iszero\n  tag_1\n  jumpi\n  0x00\n  dup1\n  revert\ntag_1:\n  pop\n  dataSize(sub_0)\n  dup1\n  dataOffset(sub_0)\n  0x00\n  codecopy\n  0x00\n  return\nstop\n\nsub_0: assembly {\n        /* \"Crowdfunding.sol\":25:420  contract CrowdfundFactory {... */\n      mstore(0x40, 0x80)\n      callvalue\n      dup1\n      iszero\n      tag_1\n      jumpi\n      0x00\n      dup1\n      revert\n    tag_1:\n      pop\n      jumpi(tag_2, lt(calldatasize, 0x04))\n      shr(0xe0, calldataload(0x00))\n      dup1\n      0x9db8d7d5\n      eq\n      tag_3\n      jumpi\n      dup1\n      0xaa6d0a98\n      eq\n      tag_4\n      jumpi\n      dup1\n      0xd6c83f4f\n      eq\n      tag_5\n      jumpi\n    tag_2:\n      0x00\n      dup1\n      revert\n        /* \"Crowdfunding.sol\":101:295  function createContract(uint minimum) public {... */\n    tag_3:\n      tag_6\n      0x04\n      dup1\n      calldatasize\n      sub\n      dup2\n      add\n      swap1\n      tag_7\n      swap2\n      swap1\n      tag_8\n      jump\t// in\n    tag_7:\n      tag_9\n      jump\t// in\n    tag_6:\n      stop\n        /* \"Crowdfunding.sol\":57:94  address[] public allDeployedContracts */\n    tag_4:\n      tag_10\n      0x04\n      dup1\n      calldatasize\n      sub\n      dup2\n      add\n      swap1\n      tag_11\n      swap2\n      swap1\n      tag_8\n      jump\t// in\n    tag_11:\n      tag_12\n      jump\t// in\n    tag_10:\n      mload(0x40)\n      tag_13\n      swap2\n      swap1\n      tag_14\n      jump\t// in\n    tag_13:\n      mload(0x40)\n      dup1\n      swap2\n      sub\n      swap1\n      return\n        /* \"Crowdfunding.sol\":301:418  function getAllDeployedContract() public view returns (address[] memory) {... */\n    tag_5:\n      tag_15\n      tag_16\n      jump\t// in\n    tag_15:\n      mload(0x40)\n      tag_17\n      swap2\n      swap1\n      tag_18\n      jump\t// in\n    tag_17:\n      mload(0x40)\n      dup1\n      swap2\n      sub\n      swap1\n      return\n        /* \"Crowdfunding.sol\":101:295  function createContract(uint minimum) public {... */\n    tag_9:\n        /* \"Crowdfunding.sol\":156:184  address newCrowdfundCampaign */\n      0x00\n        /* \"Crowdfunding.sol\":209:216  minimum */\n      dup2\n        /* \"Crowdfunding.sol\":218:228  msg.sender */\n      caller\n        /* \"Crowdfunding.sol\":195:229  new Crowdfund(minimum, msg.sender) */\n      mload(0x40)\n      tag_20\n      swap1\n      tag_21\n      jump\t// in\n    tag_20:\n      tag_22\n      swap3\n      swap2\n      swap1\n      tag_23\n      jump\t// in\n    tag_22:\n      mload(0x40)\n      dup1\n      swap2\n      sub\n      swap1\n      0x00\n      create\n      dup1\n      iszero\n      dup1\n      iszero\n      tag_24\n      jumpi\n      returndatasize\n      0x00\n      dup1\n      returndatacopy\n      revert(0x00, returndatasize)\n    tag_24:\n      pop\n        /* \"Crowdfunding.sol\":156:230  address newCrowdfundCampaign = address(new Crowdfund(minimum, msg.sender)) */\n      swap1\n      pop\n        /* \"Crowdfunding.sol\":241:261  allDeployedContracts */\n      0x00\n        /* \"Crowdfunding.sol\":267:287  newCrowdfundCampaign */\n      dup2\n        /* \"Crowdfunding.sol\":241:288  allDeployedContracts.push(newCrowdfundCampaign) */\n      swap1\n      dup1\n      0x01\n      dup2\n      sload\n      add\n      dup1\n      dup3\n      sstore\n      dup1\n      swap2\n      pop\n      pop\n      0x01\n      swap1\n      sub\n      swap1\n      0x00\n      mstore\n      keccak256(0x00, 0x20)\n      add\n      0x00\n      swap1\n      swap2\n      swap1\n      swap2\n      swap1\n      swap2\n      0x0100\n      exp\n      dup2\n      sload\n      dup2\n      0xffffffffffffffffffffffffffffffffffffffff\n      mul\n      not\n      and\n      swap1\n      dup4\n      0xffffffffffffffffffffffffffffffffffffffff\n      and\n      mul\n      or\n      swap1\n      sstore\n      pop\n        /* \"Crowdfunding.sol\":146:295  {... */\n      pop\n        /* \"Crowdfunding.sol\":101:295  function createContract(uint minimum) public {... */\n      pop\n      jump\t// out\n        /* \"Crowdfunding.sol\":57:94  address[] public allDeployedContracts */\n    tag_12:\n      0x00\n      dup2\n      dup2\n      sload\n      dup2\n      lt\n      tag_26\n      jumpi\n      0x00\n      dup1\n      revert\n    tag_26:\n      swap1\n      0x00\n      mstore\n      keccak256(0x00, 0x20)\n      add\n      0x00\n      swap2\n      pop\n      sload\n      swap1\n      0x0100\n      exp\n      swap1\n      div\n      0xffffffffffffffffffffffffffffffffffffffff\n      and\n      dup2\n      jump\t// out\n        /* \"Crowdfunding.sol\":301:418  function getAllDeployedContract() public view returns (address[] memory) {... */\n    tag_16:\n        /* \"Crowdfunding.sol\":356:372  address[] memory */\n      0x60\n        /* \"Crowdfunding.sol\":391:411  allDeployedContracts */\n      0x00\n        /* \"Crowdfunding.sol\":384:411  return allDeployedContracts */\n      dup1\n      sload\n      dup1\n      0x20\n      mul\n      0x20\n      add\n      mload(0x40)\n      swap1\n      dup2\n      add\n      0x40\n      mstore\n      dup1\n      swap3\n      swap2\n      swap1\n      dup2\n      dup2\n      mstore\n      0x20\n      add\n      dup3\n      dup1\n      sload\n      dup1\n      iszero\n      tag_29\n      jumpi\n      0x20\n      mul\n      dup3\n      add\n      swap2\n      swap1\n      0x00\n      mstore\n      keccak256(0x00, 0x20)\n      swap1\n    tag_30:\n      dup2\n      0x00\n      swap1\n      sload\n      swap1\n      0x0100\n      exp\n      swap1\n      div\n      0xffffffffffffffffffffffffffffffffffffffff\n      and\n      0xffffffffffffffffffffffffffffffffffffffff\n      and\n      dup2\n      mstore\n      0x20\n      add\n      swap1\n      0x01\n      add\n      swap1\n      dup1\n      dup4\n      gt\n      tag_30\n      jumpi\n    tag_29:\n      pop\n      pop\n      pop\n      pop\n      pop\n      swap1\n      pop\n        /* \"Crowdfunding.sol\":301:418  function getAllDeployedContract() public view returns (address[] memory) {... */\n      swap1\n      jump\t// out\n    tag_21:\n      dataSize(sub_0)\n      dup1\n      dataOffset(sub_0)\n      dup4\n      codecopy\n      add\n      swap1\n      jump\t// out\n        /* \"#utility.yul\":88:205   */\n    tag_32:\n        /* \"#utility.yul\":197:198   */\n      0x00\n        /* \"#utility.yul\":194:195   */\n      dup1\n        /* \"#utility.yul\":187:199   */\n      revert\n        /* \"#utility.yul\":334:411   */\n    tag_34:\n        /* \"#utility.yul\":371:378   */\n      0x00\n        /* \"#utility.yul\":400:405   */\n      dup2\n        /* \"#utility.yul\":389:405   */\n      swap1\n      pop\n        /* \"#utility.yul\":334:411   */\n      swap2\n      swap1\n      pop\n      jump\t// out\n        /* \"#utility.yul\":417:539   */\n    tag_35:\n        /* \"#utility.yul\":490:514   */\n      tag_54\n        /* \"#utility.yul\":508:513   */\n      dup2\n        /* \"#utility.yul\":490:514   */\n      tag_34\n      jump\t// in\n    tag_54:\n        /* \"#utility.yul\":483:488   */\n      dup2\n        /* \"#utility.yul\":480:515   */\n      eq\n        /* \"#utility.yul\":470:533   */\n      tag_55\n      jumpi\n        /* \"#utility.yul\":529:530   */\n      0x00\n        /* \"#utility.yul\":526:527   */\n      dup1\n        /* \"#utility.yul\":519:531   */\n      revert\n        /* \"#utility.yul\":470:533   */\n    tag_55:\n        /* \"#utility.yul\":417:539   */\n      pop\n      jump\t// out\n        /* \"#utility.yul\":545:684   */\n    tag_36:\n        /* \"#utility.yul\":591:596   */\n      0x00\n        /* \"#utility.yul\":629:635   */\n      dup2\n        /* \"#utility.yul\":616:636   */\n      calldataload\n        /* \"#utility.yul\":607:636   */\n      swap1\n      pop\n        /* \"#utility.yul\":645:678   */\n      tag_57\n        /* \"#utility.yul\":672:677   */\n      dup2\n        /* \"#utility.yul\":645:678   */\n      tag_35\n      jump\t// in\n    tag_57:\n        /* \"#utility.yul\":545:684   */\n      swap3\n      swap2\n      pop\n      pop\n      jump\t// out\n        /* \"#utility.yul\":690:1019   */\n    tag_8:\n        /* \"#utility.yul\":749:755   */\n      0x00\n        /* \"#utility.yul\":798:800   */\n      0x20\n        /* \"#utility.yul\":786:795   */\n      dup3\n        /* \"#utility.yul\":777:784   */\n      dup5\n        /* \"#utility.yul\":773:796   */\n      sub\n        /* \"#utility.yul\":769:801   */\n      slt\n        /* \"#utility.yul\":766:885   */\n      iszero\n      tag_59\n      jumpi\n        /* \"#utility.yul\":804:883   */\n      tag_60\n      tag_32\n      jump\t// in\n    tag_60:\n        /* \"#utility.yul\":766:885   */\n    tag_59:\n        /* \"#utility.yul\":924:925   */\n      0x00\n        /* \"#utility.yul\":949:1002   */\n      tag_61\n        /* \"#utility.yul\":994:1001   */\n      dup5\n        /* \"#utility.yul\":985:991   */\n      dup3\n        /* \"#utility.yul\":974:983   */\n      dup6\n        /* \"#utility.yul\":970:992   */\n      add\n        /* \"#utility.yul\":949:1002   */\n      tag_36\n      jump\t// in\n    tag_61:\n        /* \"#utility.yul\":939:1002   */\n      swap2\n      pop\n        /* \"#utility.yul\":895:1012   */\n      pop\n        /* \"#utility.yul\":690:1019   */\n      swap3\n      swap2\n      pop\n      pop\n      jump\t// out\n        /* \"#utility.yul\":1025:1151   */\n    tag_37:\n        /* \"#utility.yul\":1062:1069   */\n      0x00\n        /* \"#utility.yul\":1102:1144   */\n      0xffffffffffffffffffffffffffffffffffffffff\n        /* \"#utility.yul\":1095:1100   */\n      dup3\n        /* \"#utility.yul\":1091:1145   */\n      and\n        /* \"#utility.yul\":1080:1145   */\n      swap1\n      pop\n        /* \"#utility.yul\":1025:1151   */\n      swap2\n      swap1\n      pop\n      jump\t// out\n        /* \"#utility.yul\":1157:1253   */\n    tag_38:\n        /* \"#utility.yul\":1194:1201   */\n      0x00\n        /* \"#utility.yul\":1223:1247   */\n      tag_64\n        /* \"#utility.yul\":1241:1246   */\n      dup3\n        /* \"#utility.yul\":1223:1247   */\n      tag_37\n      jump\t// in\n    tag_64:\n        /* \"#utility.yul\":1212:1247   */\n      swap1\n      pop\n        /* \"#utility.yul\":1157:1253   */\n      swap2\n      swap1\n      pop\n      jump\t// out\n        /* \"#utility.yul\":1259:1377   */\n    tag_39:\n        /* \"#utility.yul\":1346:1370   */\n      tag_66\n        /* \"#utility.yul\":1364:1369   */\n      dup2\n        /* \"#utility.yul\":1346:1370   */\n      tag_38\n      jump\t// in\n    tag_66:\n        /* \"#utility.yul\":1341:1344   */\n      dup3\n        /* \"#utility.yul\":1334:1371   */\n      mstore\n        /* \"#utility.yul\":1259:1377   */\n      pop\n      pop\n      jump\t// out\n        /* \"#utility.yul\":1383:1605   */\n    tag_14:\n        /* \"#utility.yul\":1476:1480   */\n      0x00\n        /* \"#utility.yul\":1514:1516   */\n      0x20\n        /* \"#utility.yul\":1503:1512   */\n      dup3\n        /* \"#utility.yul\":1499:1517   */\n      add\n        /* \"#utility.yul\":1491:1517   */\n      swap1\n      pop\n        /* \"#utility.yul\":1527:1598   */\n      tag_68\n        /* \"#utility.yul\":1595:1596   */\n      0x00\n        /* \"#utility.yul\":1584:1593   */\n      dup4\n        /* \"#utility.yul\":1580:1597   */\n      add\n        /* \"#utility.yul\":1571:1577   */\n      dup5\n        /* \"#utility.yul\":1527:1598   */\n      tag_39\n      jump\t// in\n    tag_68:\n        /* \"#utility.yul\":1383:1605   */\n      swap3\n      swap2\n      pop\n      pop\n      jump\t// out\n        /* \"#utility.yul\":1611:1725   */\n    tag_40:\n        /* \"#utility.yul\":1678:1684   */\n      0x00\n        /* \"#utility.yul\":1712:1717   */\n      dup2\n        /* \"#utility.yul\":1706:1718   */\n      mload\n        /* \"#utility.yul\":1696:1718   */\n      swap1\n      pop\n        /* \"#utility.yul\":1611:1725   */\n      swap2\n      swap1\n      pop\n      jump\t// out\n        /* \"#utility.yul\":1731:1915   */\n    tag_41:\n        /* \"#utility.yul\":1830:1841   */\n      0x00\n        /* \"#utility.yul\":1864:1870   */\n      dup3\n        /* \"#utility.yul\":1859:1862   */\n      dup3\n        /* \"#utility.yul\":1852:1871   */\n      mstore\n        /* \"#utility.yul\":1904:1908   */\n      0x20\n        /* \"#utility.yul\":1899:1902   */\n      dup3\n        /* \"#utility.yul\":1895:1909   */\n      add\n        /* \"#utility.yul\":1880:1909   */\n      swap1\n      pop\n        /* \"#utility.yul\":1731:1915   */\n      swap3\n      swap2\n      pop\n      pop\n      jump\t// out\n        /* \"#utility.yul\":1921:2053   */\n    tag_42:\n        /* \"#utility.yul\":1988:1992   */\n      0x00\n        /* \"#utility.yul\":2011:2014   */\n      dup2\n        /* \"#utility.yul\":2003:2014   */\n      swap1\n      pop\n        /* \"#utility.yul\":2041:2045   */\n      0x20\n        /* \"#utility.yul\":2036:2039   */\n      dup3\n        /* \"#utility.yul\":2032:2046   */\n      add\n        /* \"#utility.yul\":2024:2046   */\n      swap1\n      pop\n        /* \"#utility.yul\":1921:2053   */\n      swap2\n      swap1\n      pop\n      jump\t// out\n        /* \"#utility.yul\":2059:2167   */\n    tag_43:\n        /* \"#utility.yul\":2136:2160   */\n      tag_73\n        /* \"#utility.yul\":2154:2159   */\n      dup2\n        /* \"#utility.yul\":2136:2160   */\n      tag_38\n      jump\t// in\n    tag_73:\n        /* \"#utility.yul\":2131:2134   */\n      dup3\n        /* \"#utility.yul\":2124:2161   */\n      mstore\n        /* \"#utility.yul\":2059:2167   */\n      pop\n      pop\n      jump\t// out\n        /* \"#utility.yul\":2173:2352   */\n    tag_44:\n        /* \"#utility.yul\":2242:2252   */\n      0x00\n        /* \"#utility.yul\":2263:2309   */\n      tag_75\n        /* \"#utility.yul\":2305:2308   */\n      dup4\n        /* \"#utility.yul\":2297:2303   */\n      dup4\n        /* \"#utility.yul\":2263:2309   */\n      tag_43\n      jump\t// in\n    tag_75:\n        /* \"#utility.yul\":2341:2345   */\n      0x20\n        /* \"#utility.yul\":2336:2339   */\n      dup4\n        /* \"#utility.yul\":2332:2346   */\n      add\n        /* \"#utility.yul\":2318:2346   */\n      swap1\n      pop\n        /* \"#utility.yul\":2173:2352   */\n      swap3\n      swap2\n      pop\n      pop\n      jump\t// out\n        /* \"#utility.yul\":2358:2471   */\n    tag_45:\n        /* \"#utility.yul\":2428:2432   */\n      0x00\n        /* \"#utility.yul\":2460:2464   */\n      0x20\n        /* \"#utility.yul\":2455:2458   */\n      dup3\n        /* \"#utility.yul\":2451:2465   */\n      add\n        /* \"#utility.yul\":2443:2465   */\n      swap1\n      pop\n        /* \"#utility.yul\":2358:2471   */\n      swap2\n      swap1\n      pop\n      jump\t// out\n        /* \"#utility.yul\":2507:3239   */\n    tag_46:\n        /* \"#utility.yul\":2626:2629   */\n      0x00\n        /* \"#utility.yul\":2655:2709   */\n      tag_78\n        /* \"#utility.yul\":2703:2708   */\n      dup3\n        /* \"#utility.yul\":2655:2709   */\n      tag_40\n      jump\t// in\n    tag_78:\n        /* \"#utility.yul\":2725:2811   */\n      tag_79\n        /* \"#utility.yul\":2804:2810   */\n      dup2\n        /* \"#utility.yul\":2799:2802   */\n      dup6\n        /* \"#utility.yul\":2725:2811   */\n      tag_41\n      jump\t// in\n    tag_79:\n        /* \"#utility.yul\":2718:2811   */\n      swap4\n      pop\n        /* \"#utility.yul\":2835:2891   */\n      tag_80\n        /* \"#utility.yul\":2885:2890   */\n      dup4\n        /* \"#utility.yul\":2835:2891   */\n      tag_42\n      jump\t// in\n    tag_80:\n        /* \"#utility.yul\":2914:2921   */\n      dup1\n        /* \"#utility.yul\":2945:2946   */\n      0x00\n        /* \"#utility.yul\":2930:3214   */\n    tag_81:\n        /* \"#utility.yul\":2955:2961   */\n      dup4\n        /* \"#utility.yul\":2952:2953   */\n      dup2\n        /* \"#utility.yul\":2949:2962   */\n      lt\n        /* \"#utility.yul\":2930:3214   */\n      iszero\n      tag_83\n      jumpi\n        /* \"#utility.yul\":3031:3037   */\n      dup2\n        /* \"#utility.yul\":3025:3038   */\n      mload\n        /* \"#utility.yul\":3058:3121   */\n      tag_84\n        /* \"#utility.yul\":3117:3120   */\n      dup9\n        /* \"#utility.yul\":3102:3115   */\n      dup3\n        /* \"#utility.yul\":3058:3121   */\n      tag_44\n      jump\t// in\n    tag_84:\n        /* \"#utility.yul\":3051:3121   */\n      swap8\n      pop\n        /* \"#utility.yul\":3144:3204   */\n      tag_85\n        /* \"#utility.yul\":3197:3203   */\n      dup4\n        /* \"#utility.yul\":3144:3204   */\n      tag_45\n      jump\t// in\n    tag_85:\n        /* \"#utility.yul\":3134:3204   */\n      swap3\n      pop\n        /* \"#utility.yul\":2990:3214   */\n      pop\n        /* \"#utility.yul\":2977:2978   */\n      0x01\n        /* \"#utility.yul\":2974:2975   */\n      dup2\n        /* \"#utility.yul\":2970:2979   */\n      add\n        /* \"#utility.yul\":2965:2979   */\n      swap1\n      pop\n        /* \"#utility.yul\":2930:3214   */\n      jump(tag_81)\n    tag_83:\n        /* \"#utility.yul\":2934:2948   */\n      pop\n        /* \"#utility.yul\":3230:3233   */\n      dup6\n        /* \"#utility.yul\":3223:3233   */\n      swap4\n      pop\n        /* \"#utility.yul\":2631:3239   */\n      pop\n      pop\n      pop\n        /* \"#utility.yul\":2507:3239   */\n      swap3\n      swap2\n      pop\n      pop\n      jump\t// out\n        /* \"#utility.yul\":3245:3618   */\n    tag_18:\n        /* \"#utility.yul\":3388:3392   */\n      0x00\n        /* \"#utility.yul\":3426:3428   */\n      0x20\n        /* \"#utility.yul\":3415:3424   */\n      dup3\n        /* \"#utility.yul\":3411:3429   */\n      add\n        /* \"#utility.yul\":3403:3429   */\n      swap1\n      pop\n        /* \"#utility.yul\":3475:3484   */\n      dup2\n        /* \"#utility.yul\":3469:3473   */\n      dup2\n        /* \"#utility.yul\":3465:3485   */\n      sub\n        /* \"#utility.yul\":3461:3462   */\n      0x00\n        /* \"#utility.yul\":3450:3459   */\n      dup4\n        /* \"#utility.yul\":3446:3463   */\n      add\n        /* \"#utility.yul\":3439:3486   */\n      mstore\n        /* \"#utility.yul\":3503:3611   */\n      tag_87\n        /* \"#utility.yul\":3606:3610   */\n      dup2\n        /* \"#utility.yul\":3597:3603   */\n      dup5\n        /* \"#utility.yul\":3503:3611   */\n      tag_46\n      jump\t// in\n    tag_87:\n        /* \"#utility.yul\":3495:3611   */\n      swap1\n      pop\n        /* \"#utility.yul\":3245:3618   */\n      swap3\n      swap2\n      pop\n      pop\n      jump\t// out\n        /* \"#utility.yul\":3624:3742   */\n    tag_47:\n        /* \"#utility.yul\":3711:3735   */\n      tag_89\n        /* \"#utility.yul\":3729:3734   */\n      dup2\n        /* \"#utility.yul\":3711:3735   */\n      tag_34\n      jump\t// in\n    tag_89:\n        /* \"#utility.yul\":3706:3709   */\n      dup3\n        /* \"#utility.yul\":3699:3736   */\n      mstore\n        /* \"#utility.yul\":3624:3742   */\n      pop\n      pop\n      jump\t// out\n        /* \"#utility.yul\":3748:4080   */\n    tag_23:\n        /* \"#utility.yul\":3869:3873   */\n      0x00\n        /* \"#utility.yul\":3907:3909   */\n      0x40\n        /* \"#utility.yul\":3896:3905   */\n      dup3\n        /* \"#utility.yul\":3892:3910   */\n      add\n        /* \"#utility.yul\":3884:3910   */\n      swap1\n      pop\n        /* \"#utility.yul\":3920:3991   */\n      tag_91\n        /* \"#utility.yul\":3988:3989   */\n      0x00\n        /* \"#utility.yul\":3977:3986   */\n      dup4\n        /* \"#utility.yul\":3973:3990   */\n      add\n        /* \"#utility.yul\":3964:3970   */\n      dup6\n        /* \"#utility.yul\":3920:3991   */\n      tag_47\n      jump\t// in\n    tag_91:\n        /* \"#utility.yul\":4001:4073   */\n      tag_92\n        /* \"#utility.yul\":4069:4071   */\n      0x20\n        /* \"#utility.yul\":4058:4067   */\n      dup4\n        /* \"#utility.yul\":4054:4072   */\n      add\n        /* \"#utility.yul\":4045:4051   */\n      dup5\n        /* \"#utility.yul\":4001:4073   */\n      tag_39\n      jump\t// in\n    tag_92:\n        /* \"#utility.yul\":3748:4080   */\n      swap4\n      swap3\n      pop\n      pop\n      pop\n      jump\t// out\n    stop\n\n    sub_0: assembly {\n            /* \"Crowdfunding.sol\":422:2683  contract Crowdfund {... */\n          mstore(0x40, 0x80)\n            /* \"Crowdfunding.sol\":826:941  constructor(uint minimum, address creator){... */\n          callvalue\n          dup1\n          iszero\n          tag_1\n          jumpi\n          0x00\n          dup1\n          revert\n        tag_1:\n          pop\n          mload(0x40)\n          sub(codesize, bytecodeSize)\n          dup1\n          bytecodeSize\n          dup4\n          codecopy\n          dup2\n          dup2\n          add\n          0x40\n          mstore\n          dup2\n          add\n          swap1\n          tag_2\n          swap2\n          swap1\n          tag_3\n          jump\t// in\n        tag_2:\n            /* \"Crowdfunding.sol\":900:907  minimum */\n          dup2\n            /* \"Crowdfunding.sol\":878:897  minimumContribution */\n          0x01\n            /* \"Crowdfunding.sol\":878:907  minimumContribution = minimum */\n          dup2\n          swap1\n          sstore\n          pop\n            /* \"Crowdfunding.sol\":927:934  creator */\n          dup1\n            /* \"Crowdfunding.sol\":917:924  manager */\n          0x00\n          dup1\n            /* \"Crowdfunding.sol\":917:934  manager = creator */\n          0x0100\n          exp\n          dup2\n          sload\n          dup2\n          0xffffffffffffffffffffffffffffffffffffffff\n          mul\n          not\n          and\n          swap1\n          dup4\n          0xffffffffffffffffffffffffffffffffffffffff\n          and\n          mul\n          or\n          swap1\n          sstore\n          pop\n            /* \"Crowdfunding.sol\":826:941  constructor(uint minimum, address creator){... */\n          pop\n          pop\n            /* \"Crowdfunding.sol\":422:2683  contract Crowdfund {... */\n          jump(tag_6)\n            /* \"#utility.yul\":88:205   */\n        tag_8:\n            /* \"#utility.yul\":197:198   */\n          0x00\n            /* \"#utility.yul\":194:195   */\n          dup1\n            /* \"#utility.yul\":187:199   */\n          revert\n            /* \"#utility.yul\":334:411   */\n        tag_10:\n            /* \"#utility.yul\":371:378   */\n          0x00\n            /* \"#utility.yul\":400:405   */\n          dup2\n            /* \"#utility.yul\":389:405   */\n          swap1\n          pop\n            /* \"#utility.yul\":334:411   */\n          swap2\n          swap1\n          pop\n          jump\t// out\n            /* \"#utility.yul\":417:539   */\n        tag_11:\n            /* \"#utility.yul\":490:514   */\n          tag_23\n            /* \"#utility.yul\":508:513   */\n          dup2\n            /* \"#utility.yul\":490:514   */\n          tag_10\n          jump\t// in\n        tag_23:\n            /* \"#utility.yul\":483:488   */\n          dup2\n            /* \"#utility.yul\":480:515   */\n          eq\n            /* \"#utility.yul\":470:533   */\n          tag_24\n          jumpi\n            /* \"#utility.yul\":529:530   */\n          0x00\n            /* \"#utility.yul\":526:527   */\n          dup1\n            /* \"#utility.yul\":519:531   */\n          revert\n            /* \"#utility.yul\":470:533   */\n        tag_24:\n            /* \"#utility.yul\":417:539   */\n          pop\n          jump\t// out\n            /* \"#utility.yul\":545:688   */\n        tag_12:\n            /* \"#utility.yul\":602:607   */\n          0x00\n            /* \"#utility.yul\":633:639   */\n          dup2\n            /* \"#utility.yul\":627:640   */\n          mload\n            /* \"#utility.yul\":618:640   */\n          swap1\n          pop\n            /* \"#utility.yul\":649:682   */\n          tag_26\n            /* \"#utility.yul\":676:681   */\n          dup2\n            /* \"#utility.yul\":649:682   */\n          tag_11\n          jump\t// in\n        tag_26:\n            /* \"#utility.yul\":545:688   */\n          swap3\n          swap2\n          pop\n          pop\n          jump\t// out\n            /* \"#utility.yul\":694:820   */\n        tag_13:\n            /* \"#utility.yul\":731:738   */\n          0x00\n            /* \"#utility.yul\":771:813   */\n          0xffffffffffffffffffffffffffffffffffffffff\n            /* \"#utility.yul\":764:769   */\n          dup3\n            /* \"#utility.yul\":760:814   */\n          and\n            /* \"#utility.yul\":749:814   */\n          swap1\n          pop\n            /* \"#utility.yul\":694:820   */\n          swap2\n          swap1\n          pop\n          jump\t// out\n            /* \"#utility.yul\":826:922   */\n        tag_14:\n            /* \"#utility.yul\":863:870   */\n          0x00\n            /* \"#utility.yul\":892:916   */\n          tag_29\n            /* \"#utility.yul\":910:915   */\n          dup3\n            /* \"#utility.yul\":892:916   */\n          tag_13\n          jump\t// in\n        tag_29:\n            /* \"#utility.yul\":881:916   */\n          swap1\n          pop\n            /* \"#utility.yul\":826:922   */\n          swap2\n          swap1\n          pop\n          jump\t// out\n            /* \"#utility.yul\":928:1050   */\n        tag_15:\n            /* \"#utility.yul\":1001:1025   */\n          tag_31\n            /* \"#utility.yul\":1019:1024   */\n          dup2\n            /* \"#utility.yul\":1001:1025   */\n          tag_14\n          jump\t// in\n        tag_31:\n            /* \"#utility.yul\":994:999   */\n          dup2\n            /* \"#utility.yul\":991:1026   */\n          eq\n            /* \"#utility.yul\":981:1044   */\n          tag_32\n          jumpi\n            /* \"#utility.yul\":1040:1041   */\n          0x00\n            /* \"#utility.yul\":1037:1038   */\n          dup1\n            /* \"#utility.yul\":1030:1042   */\n          revert\n            /* \"#utility.yul\":981:1044   */\n        tag_32:\n            /* \"#utility.yul\":928:1050   */\n          pop\n          jump\t// out\n            /* \"#utility.yul\":1056:1199   */\n        tag_16:\n            /* \"#utility.yul\":1113:1118   */\n          0x00\n            /* \"#utility.yul\":1144:1150   */\n          dup2\n            /* \"#utility.yul\":1138:1151   */\n          mload\n            /* \"#utility.yul\":1129:1151   */\n          swap1\n          pop\n            /* \"#utility.yul\":1160:1193   */\n          tag_34\n            /* \"#utility.yul\":1187:1192   */\n          dup2\n            /* \"#utility.yul\":1160:1193   */\n          tag_15\n          jump\t// in\n        tag_34:\n            /* \"#utility.yul\":1056:1199   */\n          swap3\n          swap2\n          pop\n          pop\n          jump\t// out\n            /* \"#utility.yul\":1205:1712   */\n        tag_3:\n            /* \"#utility.yul\":1284:1290   */\n          0x00\n            /* \"#utility.yul\":1292:1298   */\n          dup1\n            /* \"#utility.yul\":1341:1343   */\n          0x40\n            /* \"#utility.yul\":1329:1338   */\n          dup4\n            /* \"#utility.yul\":1320:1327   */\n          dup6\n            /* \"#utility.yul\":1316:1339   */\n          sub\n            /* \"#utility.yul\":1312:1344   */\n          slt\n            /* \"#utility.yul\":1309:1428   */\n          iszero\n          tag_36\n          jumpi\n            /* \"#utility.yul\":1347:1426   */\n          tag_37\n          tag_8\n          jump\t// in\n        tag_37:\n            /* \"#utility.yul\":1309:1428   */\n        tag_36:\n            /* \"#utility.yul\":1467:1468   */\n          0x00\n            /* \"#utility.yul\":1492:1556   */\n          tag_38\n            /* \"#utility.yul\":1548:1555   */\n          dup6\n            /* \"#utility.yul\":1539:1545   */\n          dup3\n            /* \"#utility.yul\":1528:1537   */\n          dup7\n            /* \"#utility.yul\":1524:1546   */\n          add\n            /* \"#utility.yul\":1492:1556   */\n          tag_12\n          jump\t// in\n        tag_38:\n            /* \"#utility.yul\":1482:1556   */\n          swap3\n          pop\n            /* \"#utility.yul\":1438:1566   */\n          pop\n            /* \"#utility.yul\":1605:1607   */\n          0x20\n            /* \"#utility.yul\":1631:1695   */\n          tag_39\n            /* \"#utility.yul\":1687:1694   */\n          dup6\n            /* \"#utility.yul\":1678:1684   */\n          dup3\n            /* \"#utility.yul\":1667:1676   */\n          dup7\n            /* \"#utility.yul\":1663:1685   */\n          add\n            /* \"#utility.yul\":1631:1695   */\n          tag_16\n          jump\t// in\n        tag_39:\n            /* \"#utility.yul\":1621:1695   */\n          swap2\n          pop\n            /* \"#utility.yul\":1576:1705   */\n          pop\n            /* \"#utility.yul\":1205:1712   */\n          swap3\n          pop\n          swap3\n          swap1\n          pop\n          jump\t// out\n            /* \"Crowdfunding.sol\":422:2683  contract Crowdfund {... */\n        tag_6:\n          dataSize(sub_0)\n          dup1\n          dataOffset(sub_0)\n          0x00\n          codecopy\n          0x00\n          return\n        stop\n\n        sub_0: assembly {\n                /* \"Crowdfunding.sol\":422:2683  contract Crowdfund {... */\n              mstore(0x40, 0x80)\n              jumpi(tag_1, lt(calldatasize, 0x04))\n              shr(0xe0, calldataload(0x00))\n              dup1\n              0x82fde093\n              gt\n              tag_11\n              jumpi\n              dup1\n              0x82fde093\n              eq\n              tag_6\n              jumpi\n              dup1\n              0x8a9cfd55\n              eq\n              tag_7\n              jumpi\n              dup1\n              0x937e09b1\n              eq\n              tag_8\n              jumpi\n              dup1\n              0xd7bb99ba\n              eq\n              tag_9\n              jumpi\n              dup1\n              0xd7d1bbdb\n              eq\n              tag_10\n              jumpi\n              jump(tag_1)\n            tag_11:\n              dup1\n              0x03441006\n              eq\n              tag_2\n              jumpi\n              dup1\n              0x0a144391\n              eq\n              tag_3\n              jumpi\n              dup1\n              0x481c6a75\n              eq\n              tag_4\n              jumpi\n              dup1\n              0x81d12c58\n              eq\n              tag_5\n              jumpi\n            tag_1:\n              0x00\n              dup1\n              revert\n                /* \"Crowdfunding.sol\":2215:2680  function finalizeRequest(uint index) public restricted{... */\n            tag_2:\n              callvalue\n              dup1\n              iszero\n              tag_12\n              jumpi\n              0x00\n              dup1\n              revert\n            tag_12:\n              pop\n              tag_13\n              0x04\n              dup1\n              calldatasize\n              sub\n              dup2\n              add\n              swap1\n              tag_14\n              swap2\n              swap1\n              tag_15\n              jump\t// in\n            tag_14:\n              tag_16\n              jump\t// in\n            tag_13:\n              stop\n                /* \"Crowdfunding.sol\":715:756  mapping(address => bool) public approvers */\n            tag_3:\n              callvalue\n              dup1\n              iszero\n              tag_17\n              jumpi\n              0x00\n              dup1\n              revert\n            tag_17:\n              pop\n              tag_18\n              0x04\n              dup1\n              calldatasize\n              sub\n              dup2\n              add\n              swap1\n              tag_19\n              swap2\n              swap1\n              tag_20\n              jump\t// in\n            tag_19:\n              tag_21\n              jump\t// in\n            tag_18:\n              mload(0x40)\n              tag_22\n              swap2\n              swap1\n              tag_23\n              jump\t// in\n            tag_22:\n              mload(0x40)\n              dup1\n              swap2\n              sub\n              swap1\n              return\n                /* \"Crowdfunding.sol\":650:672  address public manager */\n            tag_4:\n              callvalue\n              dup1\n              iszero\n              tag_24\n              jumpi\n              0x00\n              dup1\n              revert\n            tag_24:\n              pop\n              tag_25\n              tag_26\n              jump\t// in\n            tag_25:\n              mload(0x40)\n              tag_27\n              swap2\n              swap1\n              tag_28\n              jump\t// in\n            tag_27:\n              mload(0x40)\n              dup1\n              swap2\n              sub\n              swap1\n              return\n                /* \"Crowdfunding.sol\":794:819  Request[] public requests */\n            tag_5:\n              callvalue\n              dup1\n              iszero\n              tag_29\n              jumpi\n              0x00\n              dup1\n              revert\n            tag_29:\n              pop\n              tag_30\n              0x04\n              dup1\n              calldatasize\n              sub\n              dup2\n              add\n              swap1\n              tag_31\n              swap2\n              swap1\n              tag_15\n              jump\t// in\n            tag_31:\n              tag_32\n              jump\t// in\n            tag_30:\n              mload(0x40)\n              tag_33\n              swap6\n              swap5\n              swap4\n              swap3\n              swap2\n              swap1\n              tag_34\n              jump\t// in\n            tag_33:\n              mload(0x40)\n              dup1\n              swap2\n              sub\n              swap1\n              return\n                /* \"Crowdfunding.sol\":762:788  uint public approversCount */\n            tag_6:\n              callvalue\n              dup1\n              iszero\n              tag_35\n              jumpi\n              0x00\n              dup1\n              revert\n            tag_35:\n              pop\n              tag_36\n              tag_37\n              jump\t// in\n            tag_36:\n              mload(0x40)\n              tag_38\n              swap2\n              swap1\n              tag_39\n              jump\t// in\n            tag_38:\n              mload(0x40)\n              dup1\n              swap2\n              sub\n              swap1\n              return\n                /* \"Crowdfunding.sol\":1201:1841  function createRequest(string calldata _description, uint _value, address _recipient) public restricted{... */\n            tag_7:\n              callvalue\n              dup1\n              iszero\n              tag_40\n              jumpi\n              0x00\n              dup1\n              revert\n            tag_40:\n              pop\n              tag_41\n              0x04\n              dup1\n              calldatasize\n              sub\n              dup2\n              add\n              swap1\n              tag_42\n              swap2\n              swap1\n              tag_43\n              jump\t// in\n            tag_42:\n              tag_44\n              jump\t// in\n            tag_41:\n              stop\n                /* \"Crowdfunding.sol\":678:709  uint public minimumContribution */\n            tag_8:\n              callvalue\n              dup1\n              iszero\n              tag_45\n              jumpi\n              0x00\n              dup1\n              revert\n            tag_45:\n              pop\n              tag_46\n              tag_47\n              jump\t// in\n            tag_46:\n              mload(0x40)\n              tag_48\n              swap2\n              swap1\n              tag_39\n              jump\t// in\n            tag_48:\n              mload(0x40)\n              dup1\n              swap2\n              sub\n              swap1\n              return\n                /* \"Crowdfunding.sol\":1037:1195  function contribute() public payable {... */\n            tag_9:\n              tag_49\n              tag_50\n              jump\t// in\n            tag_49:\n              stop\n                /* \"Crowdfunding.sol\":1847:2209  function approveRequest(uint index) public {... */\n            tag_10:\n              callvalue\n              dup1\n              iszero\n              tag_51\n              jumpi\n              0x00\n              dup1\n              revert\n            tag_51:\n              pop\n              tag_52\n              0x04\n              dup1\n              calldatasize\n              sub\n              dup2\n              add\n              swap1\n              tag_53\n              swap2\n              swap1\n              tag_15\n              jump\t// in\n            tag_53:\n              tag_54\n              jump\t// in\n            tag_52:\n              stop\n                /* \"Crowdfunding.sol\":2215:2680  function finalizeRequest(uint index) public restricted{... */\n            tag_16:\n                /* \"Crowdfunding.sol\":1001:1008  manager */\n              0x00\n              dup1\n              sload\n              swap1\n              0x0100\n              exp\n              swap1\n              div\n              0xffffffffffffffffffffffffffffffffffffffff\n              and\n                /* \"Crowdfunding.sol\":987:1008  msg.sender == manager */\n              0xffffffffffffffffffffffffffffffffffffffff\n              and\n                /* \"Crowdfunding.sol\":987:997  msg.sender */\n              caller\n                /* \"Crowdfunding.sol\":987:1008  msg.sender == manager */\n              0xffffffffffffffffffffffffffffffffffffffff\n              and\n              eq\n                /* \"Crowdfunding.sol\":979:1009  require(msg.sender == manager) */\n              tag_56\n              jumpi\n              0x00\n              dup1\n              revert\n            tag_56:\n                /* \"Crowdfunding.sol\":2279:2302  Request storage request */\n              0x00\n                /* \"Crowdfunding.sol\":2305:2313  requests */\n              0x04\n                /* \"Crowdfunding.sol\":2314:2319  index */\n              dup3\n                /* \"Crowdfunding.sol\":2305:2320  requests[index] */\n              dup2\n              sload\n              dup2\n              lt\n              tag_58\n              jumpi\n              tag_59\n              tag_60\n              jump\t// in\n            tag_59:\n            tag_58:\n              swap1\n              0x00\n              mstore\n              keccak256(0x00, 0x20)\n              swap1\n              0x06\n              mul\n              add\n                /* \"Crowdfunding.sol\":2279:2320  Request storage request = requests[index] */\n              swap1\n              pop\n                /* \"Crowdfunding.sol\":2389:2396  request */\n              dup1\n                /* \"Crowdfunding.sol\":2389:2405  request.complete */\n              0x02\n              add\n              0x00\n              swap1\n              sload\n              swap1\n              0x0100\n              exp\n              swap1\n              div\n              0xff\n              and\n                /* \"Crowdfunding.sol\":2388:2405  !request.complete */\n              iszero\n                /* \"Crowdfunding.sol\":2380:2406  require(!request.complete) */\n              tag_62\n              jumpi\n              0x00\n              dup1\n              revert\n            tag_62:\n                /* \"Crowdfunding.sol\":2543:2544  2 */\n              0x02\n                /* \"Crowdfunding.sol\":2526:2540  approversCount */\n              sload(0x03)\n                /* \"Crowdfunding.sol\":2526:2544  approversCount / 2 */\n              tag_63\n              swap2\n              swap1\n              tag_64\n              jump\t// in\n            tag_63:\n                /* \"Crowdfunding.sol\":2501:2508  request */\n              dup2\n                /* \"Crowdfunding.sol\":2501:2522  request.approvalCount */\n              0x03\n              add\n              sload\n                /* \"Crowdfunding.sol\":2501:2545  request.approvalCount > (approversCount / 2) */\n              gt\n                /* \"Crowdfunding.sol\":2493:2546  require(request.approvalCount > (approversCount / 2)) */\n              tag_65\n              jumpi\n              0x00\n              dup1\n              revert\n            tag_65:\n                /* \"Crowdfunding.sol\":2598:2605  request */\n              dup1\n                /* \"Crowdfunding.sol\":2598:2615  request.recipient */\n              0x04\n              add\n              0x00\n              swap1\n              sload\n              swap1\n              0x0100\n              exp\n              swap1\n              div\n              0xffffffffffffffffffffffffffffffffffffffff\n              and\n                /* \"Crowdfunding.sol\":2590:2625  payable(request.recipient).transfer */\n              0xffffffffffffffffffffffffffffffffffffffff\n              and\n                /* \"Crowdfunding.sol\":2590:2640  payable(request.recipient).transfer(request.value) */\n              0x08fc\n                /* \"Crowdfunding.sol\":2626:2633  request */\n              dup3\n                /* \"Crowdfunding.sol\":2626:2639  request.value */\n              0x01\n              add\n              sload\n                /* \"Crowdfunding.sol\":2590:2640  payable(request.recipient).transfer(request.value) */\n              swap1\n              dup2\n              iszero\n              mul\n              swap1\n              mload(0x40)\n              0x00\n              mload(0x40)\n              dup1\n              dup4\n              sub\n              dup2\n              dup6\n              dup9\n              dup9\n              call\n              swap4\n              pop\n              pop\n              pop\n              pop\n              iszero\n              dup1\n              iszero\n              tag_67\n              jumpi\n              returndatasize\n              0x00\n              dup1\n              returndatacopy\n              revert(0x00, returndatasize)\n            tag_67:\n              pop\n                /* \"Crowdfunding.sol\":2669:2673  true */\n              0x01\n                /* \"Crowdfunding.sol\":2650:2657  request */\n              dup2\n                /* \"Crowdfunding.sol\":2650:2666  request.complete */\n              0x02\n              add\n              0x00\n                /* \"Crowdfunding.sol\":2650:2673  request.complete = true */\n              0x0100\n              exp\n              dup2\n              sload\n              dup2\n              0xff\n              mul\n              not\n              and\n              swap1\n              dup4\n              iszero\n              iszero\n              mul\n              or\n              swap1\n              sstore\n              pop\n                /* \"Crowdfunding.sol\":2269:2680  {... */\n              pop\n                /* \"Crowdfunding.sol\":2215:2680  function finalizeRequest(uint index) public restricted{... */\n              pop\n              jump\t// out\n                /* \"Crowdfunding.sol\":715:756  mapping(address => bool) public approvers */\n            tag_21:\n              mstore(0x20, 0x02)\n              dup1\n              0x00\n              mstore\n              keccak256(0x00, 0x40)\n              0x00\n              swap2\n              pop\n              sload\n              swap1\n              0x0100\n              exp\n              swap1\n              div\n              0xff\n              and\n              dup2\n              jump\t// out\n                /* \"Crowdfunding.sol\":650:672  address public manager */\n            tag_26:\n              0x00\n              dup1\n              sload\n              swap1\n              0x0100\n              exp\n              swap1\n              div\n              0xffffffffffffffffffffffffffffffffffffffff\n              and\n              dup2\n              jump\t// out\n                /* \"Crowdfunding.sol\":794:819  Request[] public requests */\n            tag_32:\n              0x04\n              dup2\n              dup2\n              sload\n              dup2\n              lt\n              tag_68\n              jumpi\n              0x00\n              dup1\n              revert\n            tag_68:\n              swap1\n              0x00\n              mstore\n              keccak256(0x00, 0x20)\n              swap1\n              0x06\n              mul\n              add\n              0x00\n              swap2\n              pop\n              swap1\n              pop\n              dup1\n              0x00\n              add\n              dup1\n              sload\n              tag_70\n              swap1\n              tag_71\n              jump\t// in\n            tag_70:\n              dup1\n              0x1f\n              add\n              0x20\n              dup1\n              swap2\n              div\n              mul\n              0x20\n              add\n              mload(0x40)\n              swap1\n              dup2\n              add\n              0x40\n              mstore\n              dup1\n              swap3\n              swap2\n              swap1\n              dup2\n              dup2\n              mstore\n              0x20\n              add\n              dup3\n              dup1\n              sload\n              tag_72\n              swap1\n              tag_71\n              jump\t// in\n            tag_72:\n              dup1\n              iszero\n              tag_73\n              jumpi\n              dup1\n              0x1f\n              lt\n              tag_74\n              jumpi\n              0x0100\n              dup1\n              dup4\n              sload\n              div\n              mul\n              dup4\n              mstore\n              swap2\n              0x20\n              add\n              swap2\n              jump(tag_73)\n            tag_74:\n              dup3\n              add\n              swap2\n              swap1\n              0x00\n              mstore\n              keccak256(0x00, 0x20)\n              swap1\n            tag_75:\n              dup2\n              sload\n              dup2\n              mstore\n              swap1\n              0x01\n              add\n              swap1\n              0x20\n              add\n              dup1\n              dup4\n              gt\n              tag_75\n              jumpi\n              dup3\n              swap1\n              sub\n              0x1f\n              and\n              dup3\n              add\n              swap2\n            tag_73:\n              pop\n              pop\n              pop\n              pop\n              pop\n              swap1\n              dup1\n              0x01\n              add\n              sload\n              swap1\n              dup1\n              0x02\n              add\n              0x00\n              swap1\n              sload\n              swap1\n              0x0100\n              exp\n              swap1\n              div\n              0xff\n              and\n              swap1\n              dup1\n              0x03\n              add\n              sload\n              swap1\n              dup1\n              0x04\n              add\n              0x00\n              swap1\n              sload\n              swap1\n              0x0100\n              exp\n              swap1\n              div\n              0xffffffffffffffffffffffffffffffffffffffff\n              and\n              swap1\n              pop\n              dup6\n              jump\t// out\n                /* \"Crowdfunding.sol\":762:788  uint public approversCount */\n            tag_37:\n              sload(0x03)\n              dup2\n              jump\t// out\n                /* \"Crowdfunding.sol\":1201:1841  function createRequest(string calldata _description, uint _value, address _recipient) public restricted{... */\n            tag_44:\n                /* \"Crowdfunding.sol\":1001:1008  manager */\n              0x00\n              dup1\n              sload\n              swap1\n              0x0100\n              exp\n              swap1\n              div\n              0xffffffffffffffffffffffffffffffffffffffff\n              and\n                /* \"Crowdfunding.sol\":987:1008  msg.sender == manager */\n              0xffffffffffffffffffffffffffffffffffffffff\n              and\n                /* \"Crowdfunding.sol\":987:997  msg.sender */\n              caller\n                /* \"Crowdfunding.sol\":987:1008  msg.sender == manager */\n              0xffffffffffffffffffffffffffffffffffffffff\n              and\n              eq\n                /* \"Crowdfunding.sol\":979:1009  require(msg.sender == manager) */\n              tag_77\n              jumpi\n              0x00\n              dup1\n              revert\n            tag_77:\n                /* \"Crowdfunding.sol\":1314:1340  Request storage newRequest */\n              0x00\n                /* \"Crowdfunding.sol\":1343:1351  requests */\n              0x04\n                /* \"Crowdfunding.sol\":1343:1358  requests.push() */\n              0x01\n              dup2\n              0x01\n              dup2\n              sload\n              add\n              dup1\n              dup3\n              sstore\n              dup1\n              swap2\n              pop\n              pop\n              sub\n              swap1\n              0x00\n              mstore\n              keccak256(0x00, 0x20)\n              swap1\n              0x06\n              mul\n              add\n                /* \"Crowdfunding.sol\":1314:1358  Request storage newRequest = requests.push() */\n              swap1\n              pop\n                /* \"Crowdfunding.sol\":1393:1405  _description */\n              dup5\n              dup5\n                /* \"Crowdfunding.sol\":1368:1378  newRequest */\n              dup3\n                /* \"Crowdfunding.sol\":1368:1390  newRequest.description */\n              0x00\n              add\n                /* \"Crowdfunding.sol\":1368:1405  newRequest.description = _description */\n              swap2\n              swap1\n              tag_80\n              swap3\n              swap2\n              swap1\n              tag_81\n              jump\t// in\n            tag_80:\n              pop\n                /* \"Crowdfunding.sol\":1434:1440  _value */\n              dup3\n                /* \"Crowdfunding.sol\":1415:1425  newRequest */\n              dup2\n                /* \"Crowdfunding.sol\":1415:1431  newRequest.value */\n              0x01\n              add\n                /* \"Crowdfunding.sol\":1415:1440  newRequest.value = _value */\n              dup2\n              swap1\n              sstore\n              pop\n                /* \"Crowdfunding.sol\":1473:1483  _recipient */\n              dup2\n                /* \"Crowdfunding.sol\":1450:1460  newRequest */\n              dup2\n                /* \"Crowdfunding.sol\":1450:1470  newRequest.recipient */\n              0x04\n              add\n              0x00\n                /* \"Crowdfunding.sol\":1450:1483  newRequest.recipient = _recipient */\n              0x0100\n              exp\n              dup2\n              sload\n              dup2\n              0xffffffffffffffffffffffffffffffffffffffff\n              mul\n              not\n              and\n              swap1\n              dup4\n              0xffffffffffffffffffffffffffffffffffffffff\n              and\n              mul\n              or\n              swap1\n              sstore\n              pop\n                /* \"Crowdfunding.sol\":1515:1520  false */\n              0x00\n                /* \"Crowdfunding.sol\":1493:1503  newRequest */\n              dup2\n                /* \"Crowdfunding.sol\":1493:1512  newRequest.complete */\n              0x02\n              add\n              0x00\n                /* \"Crowdfunding.sol\":1493:1520  newRequest.complete = false */\n              0x0100\n              exp\n              dup2\n              sload\n              dup2\n              0xff\n              mul\n              not\n              and\n              swap1\n              dup4\n              iszero\n              iszero\n              mul\n              or\n              swap1\n              sstore\n              pop\n                /* \"Crowdfunding.sol\":1557:1558  0 */\n              0x00\n                /* \"Crowdfunding.sol\":1530:1540  newRequest */\n              dup2\n                /* \"Crowdfunding.sol\":1530:1554  newRequest.approvalCount */\n              0x03\n              add\n                /* \"Crowdfunding.sol\":1530:1558  newRequest.approvalCount = 0 */\n              dup2\n              swap1\n              sstore\n              pop\n                /* \"Crowdfunding.sol\":1304:1841  {... */\n              pop\n                /* \"Crowdfunding.sol\":1201:1841  function createRequest(string calldata _description, uint _value, address _recipient) public restricted{... */\n              pop\n              pop\n              pop\n              pop\n              jump\t// out\n                /* \"Crowdfunding.sol\":678:709  uint public minimumContribution */\n            tag_47:\n              sload(0x01)\n              dup2\n              jump\t// out\n                /* \"Crowdfunding.sol\":1037:1195  function contribute() public payable {... */\n            tag_50:\n                /* \"Crowdfunding.sol\":1104:1123  minimumContribution */\n              sload(0x01)\n                /* \"Crowdfunding.sol\":1092:1101  msg.value */\n              callvalue\n                /* \"Crowdfunding.sol\":1092:1123  msg.value > minimumContribution */\n              gt\n                /* \"Crowdfunding.sol\":1084:1124  require(msg.value > minimumContribution) */\n              tag_83\n              jumpi\n              0x00\n              dup1\n              revert\n            tag_83:\n                /* \"Crowdfunding.sol\":1158:1162  true */\n              0x01\n                /* \"Crowdfunding.sol\":1134:1143  approvers */\n              0x02\n                /* \"Crowdfunding.sol\":1134:1155  approvers[msg.sender] */\n              0x00\n                /* \"Crowdfunding.sol\":1144:1154  msg.sender */\n              caller\n                /* \"Crowdfunding.sol\":1134:1155  approvers[msg.sender] */\n              0xffffffffffffffffffffffffffffffffffffffff\n              and\n              0xffffffffffffffffffffffffffffffffffffffff\n              and\n              dup2\n              mstore\n              0x20\n              add\n              swap1\n              dup2\n              mstore\n              0x20\n              add\n              0x00\n              keccak256\n              0x00\n                /* \"Crowdfunding.sol\":1134:1162  approvers[msg.sender] = true */\n              0x0100\n              exp\n              dup2\n              sload\n              dup2\n              0xff\n              mul\n              not\n              and\n              swap1\n              dup4\n              iszero\n              iszero\n              mul\n              or\n              swap1\n              sstore\n              pop\n                /* \"Crowdfunding.sol\":1172:1186  approversCount */\n              0x03\n              0x00\n                /* \"Crowdfunding.sol\":1172:1188  approversCount++ */\n              dup2\n              sload\n              dup1\n              swap3\n              swap2\n              swap1\n              tag_84\n              swap1\n              tag_85\n              jump\t// in\n            tag_84:\n              swap2\n              swap1\n              pop\n              sstore\n              pop\n                /* \"Crowdfunding.sol\":1037:1195  function contribute() public payable {... */\n              jump\t// out\n                /* \"Crowdfunding.sol\":1847:2209  function approveRequest(uint index) public {... */\n            tag_54:\n                /* \"Crowdfunding.sol\":1951:1960  approvers */\n              0x02\n                /* \"Crowdfunding.sol\":1951:1972  approvers[msg.sender] */\n              0x00\n                /* \"Crowdfunding.sol\":1961:1971  msg.sender */\n              caller\n                /* \"Crowdfunding.sol\":1951:1972  approvers[msg.sender] */\n              0xffffffffffffffffffffffffffffffffffffffff\n              and\n              0xffffffffffffffffffffffffffffffffffffffff\n              and\n              dup2\n              mstore\n              0x20\n              add\n              swap1\n              dup2\n              mstore\n              0x20\n              add\n              0x00\n              keccak256\n              0x00\n              swap1\n              sload\n              swap1\n              0x0100\n              exp\n              swap1\n              div\n              0xff\n              and\n                /* \"Crowdfunding.sol\":1943:1973  require(approvers[msg.sender]) */\n              tag_87\n              jumpi\n              0x00\n              dup1\n              revert\n            tag_87:\n                /* \"Crowdfunding.sol\":2033:2056  Request storage request */\n              0x00\n                /* \"Crowdfunding.sol\":2059:2067  requests */\n              0x04\n                /* \"Crowdfunding.sol\":2068:2073  index */\n              dup3\n                /* \"Crowdfunding.sol\":2059:2074  requests[index] */\n              dup2\n              sload\n              dup2\n              lt\n              tag_88\n              jumpi\n              tag_89\n              tag_60\n              jump\t// in\n            tag_89:\n            tag_88:\n              swap1\n              0x00\n              mstore\n              keccak256(0x00, 0x20)\n              swap1\n              0x06\n              mul\n              add\n                /* \"Crowdfunding.sol\":2033:2074  Request storage request = requests[index] */\n              swap1\n              pop\n                /* \"Crowdfunding.sol\":2093:2100  request */\n              dup1\n                /* \"Crowdfunding.sol\":2093:2110  request.approvals */\n              0x05\n              add\n                /* \"Crowdfunding.sol\":2093:2122  request.approvals[msg.sender] */\n              0x00\n                /* \"Crowdfunding.sol\":2111:2121  msg.sender */\n              caller\n                /* \"Crowdfunding.sol\":2093:2122  request.approvals[msg.sender] */\n              0xffffffffffffffffffffffffffffffffffffffff\n              and\n              0xffffffffffffffffffffffffffffffffffffffff\n              and\n              dup2\n              mstore\n              0x20\n              add\n              swap1\n              dup2\n              mstore\n              0x20\n              add\n              0x00\n              keccak256\n              0x00\n              swap1\n              sload\n              swap1\n              0x0100\n              exp\n              swap1\n              div\n              0xff\n              and\n                /* \"Crowdfunding.sol\":2092:2122  !request.approvals[msg.sender] */\n              iszero\n                /* \"Crowdfunding.sol\":2084:2123  require(!request.approvals[msg.sender]) */\n              tag_91\n              jumpi\n              0x00\n              dup1\n              revert\n            tag_91:\n                /* \"Crowdfunding.sol\":2165:2169  true */\n              0x01\n                /* \"Crowdfunding.sol\":2133:2140  request */\n              dup2\n                /* \"Crowdfunding.sol\":2133:2150  request.approvals */\n              0x05\n              add\n                /* \"Crowdfunding.sol\":2133:2162  request.approvals[msg.sender] */\n              0x00\n                /* \"Crowdfunding.sol\":2151:2161  msg.sender */\n              caller\n                /* \"Crowdfunding.sol\":2133:2162  request.approvals[msg.sender] */\n              0xffffffffffffffffffffffffffffffffffffffff\n              and\n              0xffffffffffffffffffffffffffffffffffffffff\n              and\n              dup2\n              mstore\n              0x20\n              add\n              swap1\n              dup2\n              mstore\n              0x20\n              add\n              0x00\n              keccak256\n              0x00\n                /* \"Crowdfunding.sol\":2133:2169  request.approvals[msg.sender] = true */\n              0x0100\n              exp\n              dup2\n              sload\n              dup2\n              0xff\n              mul\n              not\n              and\n              swap1\n              dup4\n              iszero\n              iszero\n              mul\n              or\n              swap1\n              sstore\n              pop\n                /* \"Crowdfunding.sol\":2179:2186  request */\n              dup1\n                /* \"Crowdfunding.sol\":2179:2200  request.approvalCount */\n              0x03\n              add\n              0x00\n                /* \"Crowdfunding.sol\":2179:2202  request.approvalCount++ */\n              dup2\n              sload\n              dup1\n              swap3\n              swap2\n              swap1\n              tag_92\n              swap1\n              tag_85\n              jump\t// in\n            tag_92:\n              swap2\n              swap1\n              pop\n              sstore\n              pop\n                /* \"Crowdfunding.sol\":1890:2209  {... */\n              pop\n                /* \"Crowdfunding.sol\":1847:2209  function approveRequest(uint index) public {... */\n              pop\n              jump\t// out\n            tag_81:\n              dup3\n              dup1\n              sload\n              tag_93\n              swap1\n              tag_71\n              jump\t// in\n            tag_93:\n              swap1\n              0x00\n              mstore\n              keccak256(0x00, 0x20)\n              swap1\n              0x1f\n              add\n              0x20\n              swap1\n              div\n              dup2\n              add\n              swap3\n              dup3\n              tag_95\n              jumpi\n              0x00\n              dup6\n              sstore\n              jump(tag_94)\n            tag_95:\n              dup3\n              0x1f\n              lt\n              tag_96\n              jumpi\n              dup1\n              calldataload\n              not(0xff)\n              and\n              dup4\n              dup1\n              add\n              or\n              dup6\n              sstore\n              jump(tag_94)\n            tag_96:\n              dup3\n              dup1\n              add\n              0x01\n              add\n              dup6\n              sstore\n              dup3\n              iszero\n              tag_94\n              jumpi\n              swap2\n              dup3\n              add\n            tag_97:\n              dup3\n              dup2\n              gt\n              iszero\n              tag_98\n              jumpi\n              dup3\n              calldataload\n              dup3\n              sstore\n              swap2\n              0x20\n              add\n              swap2\n              swap1\n              0x01\n              add\n              swap1\n              jump(tag_97)\n            tag_98:\n            tag_94:\n              pop\n              swap1\n              pop\n              tag_99\n              swap2\n              swap1\n              tag_100\n              jump\t// in\n            tag_99:\n              pop\n              swap1\n              jump\t// out\n            tag_100:\n            tag_101:\n              dup1\n              dup3\n              gt\n              iszero\n              tag_102\n              jumpi\n              0x00\n              dup2\n              0x00\n              swap1\n              sstore\n              pop\n              0x01\n              add\n              jump(tag_101)\n            tag_102:\n              pop\n              swap1\n              jump\t// out\n                /* \"#utility.yul\":88:205   */\n            tag_104:\n                /* \"#utility.yul\":197:198   */\n              0x00\n                /* \"#utility.yul\":194:195   */\n              dup1\n                /* \"#utility.yul\":187:199   */\n              revert\n                /* \"#utility.yul\":211:328   */\n            tag_105:\n                /* \"#utility.yul\":320:321   */\n              0x00\n                /* \"#utility.yul\":317:318   */\n              dup1\n                /* \"#utility.yul\":310:322   */\n              revert\n                /* \"#utility.yul\":334:411   */\n            tag_106:\n                /* \"#utility.yul\":371:378   */\n              0x00\n                /* \"#utility.yul\":400:405   */\n              dup2\n                /* \"#utility.yul\":389:405   */\n              swap1\n              pop\n                /* \"#utility.yul\":334:411   */\n              swap2\n              swap1\n              pop\n              jump\t// out\n                /* \"#utility.yul\":417:539   */\n            tag_107:\n                /* \"#utility.yul\":490:514   */\n              tag_135\n                /* \"#utility.yul\":508:513   */\n              dup2\n                /* \"#utility.yul\":490:514   */\n              tag_106\n              jump\t// in\n            tag_135:\n                /* \"#utility.yul\":483:488   */\n              dup2\n                /* \"#utility.yul\":480:515   */\n              eq\n                /* \"#utility.yul\":470:533   */\n              tag_136\n              jumpi\n                /* \"#utility.yul\":529:530   */\n              0x00\n                /* \"#utility.yul\":526:527   */\n              dup1\n                /* \"#utility.yul\":519:531   */\n              revert\n                /* \"#utility.yul\":470:533   */\n            tag_136:\n                /* \"#utility.yul\":417:539   */\n              pop\n              jump\t// out\n                /* \"#utility.yul\":545:684   */\n            tag_108:\n                /* \"#utility.yul\":591:596   */\n              0x00\n                /* \"#utility.yul\":629:635   */\n              dup2\n                /* \"#utility.yul\":616:636   */\n              calldataload\n                /* \"#utility.yul\":607:636   */\n              swap1\n              pop\n                /* \"#utility.yul\":645:678   */\n              tag_138\n                /* \"#utility.yul\":672:677   */\n              dup2\n                /* \"#utility.yul\":645:678   */\n              tag_107\n              jump\t// in\n            tag_138:\n                /* \"#utility.yul\":545:684   */\n              swap3\n              swap2\n              pop\n              pop\n              jump\t// out\n                /* \"#utility.yul\":690:1019   */\n            tag_15:\n                /* \"#utility.yul\":749:755   */\n              0x00\n                /* \"#utility.yul\":798:800   */\n              0x20\n                /* \"#utility.yul\":786:795   */\n              dup3\n                /* \"#utility.yul\":777:784   */\n              dup5\n                /* \"#utility.yul\":773:796   */\n              sub\n                /* \"#utility.yul\":769:801   */\n              slt\n                /* \"#utility.yul\":766:885   */\n              iszero\n              tag_140\n              jumpi\n                /* \"#utility.yul\":804:883   */\n              tag_141\n              tag_104\n              jump\t// in\n            tag_141:\n                /* \"#utility.yul\":766:885   */\n            tag_140:\n                /* \"#utility.yul\":924:925   */\n              0x00\n                /* \"#utility.yul\":949:1002   */\n              tag_142\n                /* \"#utility.yul\":994:1001   */\n              dup5\n                /* \"#utility.yul\":985:991   */\n              dup3\n                /* \"#utility.yul\":974:983   */\n              dup6\n                /* \"#utility.yul\":970:992   */\n              add\n                /* \"#utility.yul\":949:1002   */\n              tag_108\n              jump\t// in\n            tag_142:\n                /* \"#utility.yul\":939:1002   */\n              swap2\n              pop\n                /* \"#utility.yul\":895:1012   */\n              pop\n                /* \"#utility.yul\":690:1019   */\n              swap3\n              swap2\n              pop\n              pop\n              jump\t// out\n                /* \"#utility.yul\":1025:1151   */\n            tag_109:\n                /* \"#utility.yul\":1062:1069   */\n              0x00\n                /* \"#utility.yul\":1102:1144   */\n              0xffffffffffffffffffffffffffffffffffffffff\n                /* \"#utility.yul\":1095:1100   */\n              dup3\n                /* \"#utility.yul\":1091:1145   */\n              and\n                /* \"#utility.yul\":1080:1145   */\n              swap1\n              pop\n                /* \"#utility.yul\":1025:1151   */\n              swap2\n              swap1\n              pop\n              jump\t// out\n                /* \"#utility.yul\":1157:1253   */\n            tag_110:\n                /* \"#utility.yul\":1194:1201   */\n              0x00\n                /* \"#utility.yul\":1223:1247   */\n              tag_145\n                /* \"#utility.yul\":1241:1246   */\n              dup3\n                /* \"#utility.yul\":1223:1247   */\n              tag_109\n              jump\t// in\n            tag_145:\n                /* \"#utility.yul\":1212:1247   */\n              swap1\n              pop\n                /* \"#utility.yul\":1157:1253   */\n              swap2\n              swap1\n              pop\n              jump\t// out\n                /* \"#utility.yul\":1259:1381   */\n            tag_111:\n                /* \"#utility.yul\":1332:1356   */\n              tag_147\n                /* \"#utility.yul\":1350:1355   */\n              dup2\n                /* \"#utility.yul\":1332:1356   */\n              tag_110\n              jump\t// in\n            tag_147:\n                /* \"#utility.yul\":1325:1330   */\n              dup2\n                /* \"#utility.yul\":1322:1357   */\n              eq\n                /* \"#utility.yul\":1312:1375   */\n              tag_148\n              jumpi\n                /* \"#utility.yul\":1371:1372   */\n              0x00\n                /* \"#utility.yul\":1368:1369   */\n              dup1\n                /* \"#utility.yul\":1361:1373   */\n              revert\n                /* \"#utility.yul\":1312:1375   */\n            tag_148:\n                /* \"#utility.yul\":1259:1381   */\n              pop\n              jump\t// out\n                /* \"#utility.yul\":1387:1526   */\n            tag_112:\n                /* \"#utility.yul\":1433:1438   */\n              0x00\n                /* \"#utility.yul\":1471:1477   */\n              dup2\n                /* \"#utility.yul\":1458:1478   */\n              calldataload\n                /* \"#utility.yul\":1449:1478   */\n              swap1\n              pop\n                /* \"#utility.yul\":1487:1520   */\n              tag_150\n                /* \"#utility.yul\":1514:1519   */\n              dup2\n                /* \"#utility.yul\":1487:1520   */\n              tag_111\n              jump\t// in\n            tag_150:\n                /* \"#utility.yul\":1387:1526   */\n              swap3\n              swap2\n              pop\n              pop\n              jump\t// out\n                /* \"#utility.yul\":1532:1861   */\n            tag_20:\n                /* \"#utility.yul\":1591:1597   */\n              0x00\n                /* \"#utility.yul\":1640:1642   */\n              0x20\n                /* \"#utility.yul\":1628:1637   */\n              dup3\n                /* \"#utility.yul\":1619:1626   */\n              dup5\n                /* \"#utility.yul\":1615:1638   */\n              sub\n                /* \"#utility.yul\":1611:1643   */\n              slt\n                /* \"#utility.yul\":1608:1727   */\n              iszero\n              tag_152\n              jumpi\n                /* \"#utility.yul\":1646:1725   */\n              tag_153\n              tag_104\n              jump\t// in\n            tag_153:\n                /* \"#utility.yul\":1608:1727   */\n            tag_152:\n                /* \"#utility.yul\":1766:1767   */\n              0x00\n                /* \"#utility.yul\":1791:1844   */\n              tag_154\n                /* \"#utility.yul\":1836:1843   */\n              dup5\n                /* \"#utility.yul\":1827:1833   */\n              dup3\n                /* \"#utility.yul\":1816:1825   */\n              dup6\n                /* \"#utility.yul\":1812:1834   */\n              add\n                /* \"#utility.yul\":1791:1844   */\n              tag_112\n              jump\t// in\n            tag_154:\n                /* \"#utility.yul\":1781:1844   */\n              swap2\n              pop\n                /* \"#utility.yul\":1737:1854   */\n              pop\n                /* \"#utility.yul\":1532:1861   */\n              swap3\n              swap2\n              pop\n              pop\n              jump\t// out\n                /* \"#utility.yul\":1867:1957   */\n            tag_113:\n                /* \"#utility.yul\":1901:1908   */\n              0x00\n                /* \"#utility.yul\":1944:1949   */\n              dup2\n                /* \"#utility.yul\":1937:1950   */\n              iszero\n                /* \"#utility.yul\":1930:1951   */\n              iszero\n                /* \"#utility.yul\":1919:1951   */\n              swap1\n              pop\n                /* \"#utility.yul\":1867:1957   */\n              swap2\n              swap1\n              pop\n              jump\t// out\n                /* \"#utility.yul\":1963:2072   */\n            tag_114:\n                /* \"#utility.yul\":2044:2065   */\n              tag_157\n                /* \"#utility.yul\":2059:2064   */\n              dup2\n                /* \"#utility.yul\":2044:2065   */\n              tag_113\n              jump\t// in\n            tag_157:\n                /* \"#utility.yul\":2039:2042   */\n              dup3\n                /* \"#utility.yul\":2032:2066   */\n              mstore\n                /* \"#utility.yul\":1963:2072   */\n              pop\n              pop\n              jump\t// out\n                /* \"#utility.yul\":2078:2288   */\n            tag_23:\n                /* \"#utility.yul\":2165:2169   */\n              0x00\n                /* \"#utility.yul\":2203:2205   */\n              0x20\n                /* \"#utility.yul\":2192:2201   */\n              dup3\n                /* \"#utility.yul\":2188:2206   */\n              add\n                /* \"#utility.yul\":2180:2206   */\n              swap1\n              pop\n                /* \"#utility.yul\":2216:2281   */\n              tag_159\n                /* \"#utility.yul\":2278:2279   */\n              0x00\n                /* \"#utility.yul\":2267:2276   */\n              dup4\n                /* \"#utility.yul\":2263:2280   */\n              add\n                /* \"#utility.yul\":2254:2260   */\n              dup5\n                /* \"#utility.yul\":2216:2281   */\n              tag_114\n              jump\t// in\n            tag_159:\n                /* \"#utility.yul\":2078:2288   */\n              swap3\n              swap2\n              pop\n              pop\n              jump\t// out\n                /* \"#utility.yul\":2294:2412   */\n            tag_115:\n                /* \"#utility.yul\":2381:2405   */\n              tag_161\n                /* \"#utility.yul\":2399:2404   */\n              dup2\n                /* \"#utility.yul\":2381:2405   */\n              tag_110\n              jump\t// in\n            tag_161:\n                /* \"#utility.yul\":2376:2379   */\n              dup3\n                /* \"#utility.yul\":2369:2406   */\n              mstore\n                /* \"#utility.yul\":2294:2412   */\n              pop\n              pop\n              jump\t// out\n                /* \"#utility.yul\":2418:2640   */\n            tag_28:\n                /* \"#utility.yul\":2511:2515   */\n              0x00\n                /* \"#utility.yul\":2549:2551   */\n              0x20\n                /* \"#utility.yul\":2538:2547   */\n              dup3\n                /* \"#utility.yul\":2534:2552   */\n              add\n                /* \"#utility.yul\":2526:2552   */\n              swap1\n              pop\n                /* \"#utility.yul\":2562:2633   */\n              tag_163\n                /* \"#utility.yul\":2630:2631   */\n              0x00\n                /* \"#utility.yul\":2619:2628   */\n              dup4\n                /* \"#utility.yul\":2615:2632   */\n              add\n                /* \"#utility.yul\":2606:2612   */\n              dup5\n                /* \"#utility.yul\":2562:2633   */\n              tag_115\n              jump\t// in\n            tag_163:\n                /* \"#utility.yul\":2418:2640   */\n              swap3\n              swap2\n              pop\n              pop\n              jump\t// out\n                /* \"#utility.yul\":2646:2745   */\n            tag_116:\n                /* \"#utility.yul\":2698:2704   */\n              0x00\n                /* \"#utility.yul\":2732:2737   */\n              dup2\n                /* \"#utility.yul\":2726:2738   */\n              mload\n                /* \"#utility.yul\":2716:2738   */\n              swap1\n              pop\n                /* \"#utility.yul\":2646:2745   */\n              swap2\n              swap1\n              pop\n              jump\t// out\n                /* \"#utility.yul\":2751:2920   */\n            tag_117:\n                /* \"#utility.yul\":2835:2846   */\n              0x00\n                /* \"#utility.yul\":2869:2875   */\n              dup3\n                /* \"#utility.yul\":2864:2867   */\n              dup3\n                /* \"#utility.yul\":2857:2876   */\n              mstore\n                /* \"#utility.yul\":2909:2913   */\n              0x20\n                /* \"#utility.yul\":2904:2907   */\n              dup3\n                /* \"#utility.yul\":2900:2914   */\n              add\n                /* \"#utility.yul\":2885:2914   */\n              swap1\n              pop\n                /* \"#utility.yul\":2751:2920   */\n              swap3\n              swap2\n              pop\n              pop\n              jump\t// out\n                /* \"#utility.yul\":2926:3233   */\n            tag_118:\n                /* \"#utility.yul\":2994:2995   */\n              0x00\n                /* \"#utility.yul\":3004:3117   */\n            tag_167:\n                /* \"#utility.yul\":3018:3024   */\n              dup4\n                /* \"#utility.yul\":3015:3016   */\n              dup2\n                /* \"#utility.yul\":3012:3025   */\n              lt\n                /* \"#utility.yul\":3004:3117   */\n              iszero\n              tag_169\n              jumpi\n                /* \"#utility.yul\":3103:3104   */\n              dup1\n                /* \"#utility.yul\":3098:3101   */\n              dup3\n                /* \"#utility.yul\":3094:3105   */\n              add\n                /* \"#utility.yul\":3088:3106   */\n              mload\n                /* \"#utility.yul\":3084:3085   */\n              dup2\n                /* \"#utility.yul\":3079:3082   */\n              dup5\n                /* \"#utility.yul\":3075:3086   */\n              add\n                /* \"#utility.yul\":3068:3107   */\n              mstore\n                /* \"#utility.yul\":3040:3042   */\n              0x20\n                /* \"#utility.yul\":3037:3038   */\n              dup2\n                /* \"#utility.yul\":3033:3043   */\n              add\n                /* \"#utility.yul\":3028:3043   */\n              swap1\n              pop\n                /* \"#utility.yul\":3004:3117   */\n              jump(tag_167)\n            tag_169:\n                /* \"#utility.yul\":3135:3141   */\n              dup4\n                /* \"#utility.yul\":3132:3133   */\n              dup2\n                /* \"#utility.yul\":3129:3142   */\n              gt\n                /* \"#utility.yul\":3126:3227   */\n              iszero\n              tag_170\n              jumpi\n                /* \"#utility.yul\":3215:3216   */\n              0x00\n                /* \"#utility.yul\":3206:3212   */\n              dup5\n                /* \"#utility.yul\":3201:3204   */\n              dup5\n                /* \"#utility.yul\":3197:3213   */\n              add\n                /* \"#utility.yul\":3190:3217   */\n              mstore\n                /* \"#utility.yul\":3126:3227   */\n            tag_170:\n                /* \"#utility.yul\":2975:3233   */\n              pop\n                /* \"#utility.yul\":2926:3233   */\n              pop\n              pop\n              pop\n              jump\t// out\n                /* \"#utility.yul\":3239:3341   */\n            tag_119:\n                /* \"#utility.yul\":3280:3286   */\n              0x00\n                /* \"#utility.yul\":3331:3333   */\n              0x1f\n                /* \"#utility.yul\":3327:3334   */\n              not\n                /* \"#utility.yul\":3322:3324   */\n              0x1f\n                /* \"#utility.yul\":3315:3320   */\n              dup4\n                /* \"#utility.yul\":3311:3325   */\n              add\n                /* \"#utility.yul\":3307:3335   */\n              and\n                /* \"#utility.yul\":3297:3335   */\n              swap1\n              pop\n                /* \"#utility.yul\":3239:3341   */\n              swap2\n              swap1\n              pop\n              jump\t// out\n                /* \"#utility.yul\":3347:3711   */\n            tag_120:\n                /* \"#utility.yul\":3435:3438   */\n              0x00\n                /* \"#utility.yul\":3463:3502   */\n              tag_173\n                /* \"#utility.yul\":3496:3501   */\n              dup3\n                /* \"#utility.yul\":3463:3502   */\n              tag_116\n              jump\t// in\n            tag_173:\n                /* \"#utility.yul\":3518:3589   */\n              tag_174\n                /* \"#utility.yul\":3582:3588   */\n              dup2\n                /* \"#utility.yul\":3577:3580   */\n              dup6\n                /* \"#utility.yul\":3518:3589   */\n              tag_117\n              jump\t// in\n            tag_174:\n                /* \"#utility.yul\":3511:3589   */\n              swap4\n              pop\n                /* \"#utility.yul\":3598:3650   */\n              tag_175\n                /* \"#utility.yul\":3643:3649   */\n              dup2\n                /* \"#utility.yul\":3638:3641   */\n              dup6\n                /* \"#utility.yul\":3631:3635   */\n              0x20\n                /* \"#utility.yul\":3624:3629   */\n              dup7\n                /* \"#utility.yul\":3620:3636   */\n              add\n                /* \"#utility.yul\":3598:3650   */\n              tag_118\n              jump\t// in\n            tag_175:\n                /* \"#utility.yul\":3675:3704   */\n              tag_176\n                /* \"#utility.yul\":3697:3703   */\n              dup2\n                /* \"#utility.yul\":3675:3704   */\n              tag_119\n              jump\t// in\n            tag_176:\n                /* \"#utility.yul\":3670:3673   */\n              dup5\n                /* \"#utility.yul\":3666:3705   */\n              add\n                /* \"#utility.yul\":3659:3705   */\n              swap2\n              pop\n                /* \"#utility.yul\":3439:3711   */\n              pop\n                /* \"#utility.yul\":3347:3711   */\n              swap3\n              swap2\n              pop\n              pop\n              jump\t// out\n                /* \"#utility.yul\":3717:3835   */\n            tag_121:\n                /* \"#utility.yul\":3804:3828   */\n              tag_178\n                /* \"#utility.yul\":3822:3827   */\n              dup2\n                /* \"#utility.yul\":3804:3828   */\n              tag_106\n              jump\t// in\n            tag_178:\n                /* \"#utility.yul\":3799:3802   */\n              dup3\n                /* \"#utility.yul\":3792:3829   */\n              mstore\n                /* \"#utility.yul\":3717:3835   */\n              pop\n              pop\n              jump\t// out\n                /* \"#utility.yul\":3841:4584   */\n            tag_34:\n                /* \"#utility.yul\":4060:4064   */\n              0x00\n                /* \"#utility.yul\":4098:4101   */\n              0xa0\n                /* \"#utility.yul\":4087:4096   */\n              dup3\n                /* \"#utility.yul\":4083:4102   */\n              add\n                /* \"#utility.yul\":4075:4102   */\n              swap1\n              pop\n                /* \"#utility.yul\":4148:4157   */\n              dup2\n                /* \"#utility.yul\":4142:4146   */\n              dup2\n                /* \"#utility.yul\":4138:4158   */\n              sub\n                /* \"#utility.yul\":4134:4135   */\n              0x00\n                /* \"#utility.yul\":4123:4132   */\n              dup4\n                /* \"#utility.yul\":4119:4136   */\n              add\n                /* \"#utility.yul\":4112:4159   */\n              mstore\n                /* \"#utility.yul\":4176:4254   */\n              tag_180\n                /* \"#utility.yul\":4249:4253   */\n              dup2\n                /* \"#utility.yul\":4240:4246   */\n              dup9\n                /* \"#utility.yul\":4176:4254   */\n              tag_120\n              jump\t// in\n            tag_180:\n                /* \"#utility.yul\":4168:4254   */\n              swap1\n              pop\n                /* \"#utility.yul\":4264:4336   */\n              tag_181\n                /* \"#utility.yul\":4332:4334   */\n              0x20\n                /* \"#utility.yul\":4321:4330   */\n              dup4\n                /* \"#utility.yul\":4317:4335   */\n              add\n                /* \"#utility.yul\":4308:4314   */\n              dup8\n                /* \"#utility.yul\":4264:4336   */\n              tag_121\n              jump\t// in\n            tag_181:\n                /* \"#utility.yul\":4346:4412   */\n              tag_182\n                /* \"#utility.yul\":4408:4410   */\n              0x40\n                /* \"#utility.yul\":4397:4406   */\n              dup4\n                /* \"#utility.yul\":4393:4411   */\n              add\n                /* \"#utility.yul\":4384:4390   */\n              dup7\n                /* \"#utility.yul\":4346:4412   */\n              tag_114\n              jump\t// in\n            tag_182:\n                /* \"#utility.yul\":4422:4494   */\n              tag_183\n                /* \"#utility.yul\":4490:4492   */\n              0x60\n                /* \"#utility.yul\":4479:4488   */\n              dup4\n                /* \"#utility.yul\":4475:4493   */\n              add\n                /* \"#utility.yul\":4466:4472   */\n              dup6\n                /* \"#utility.yul\":4422:4494   */\n              tag_121\n              jump\t// in\n            tag_183:\n                /* \"#utility.yul\":4504:4577   */\n              tag_184\n                /* \"#utility.yul\":4572:4575   */\n              0x80\n                /* \"#utility.yul\":4561:4570   */\n              dup4\n                /* \"#utility.yul\":4557:4576   */\n              add\n                /* \"#utility.yul\":4548:4554   */\n              dup5\n                /* \"#utility.yul\":4504:4577   */\n              tag_115\n              jump\t// in\n            tag_184:\n                /* \"#utility.yul\":3841:4584   */\n              swap7\n              swap6\n              pop\n              pop\n              pop\n              pop\n              pop\n              pop\n              jump\t// out\n                /* \"#utility.yul\":4590:4812   */\n            tag_39:\n                /* \"#utility.yul\":4683:4687   */\n              0x00\n                /* \"#utility.yul\":4721:4723   */\n              0x20\n                /* \"#utility.yul\":4710:4719   */\n              dup3\n                /* \"#utility.yul\":4706:4724   */\n              add\n                /* \"#utility.yul\":4698:4724   */\n              swap1\n              pop\n                /* \"#utility.yul\":4734:4805   */\n              tag_186\n                /* \"#utility.yul\":4802:4803   */\n              0x00\n                /* \"#utility.yul\":4791:4800   */\n              dup4\n                /* \"#utility.yul\":4787:4804   */\n              add\n                /* \"#utility.yul\":4778:4784   */\n              dup5\n                /* \"#utility.yul\":4734:4805   */\n              tag_121\n              jump\t// in\n            tag_186:\n                /* \"#utility.yul\":4590:4812   */\n              swap3\n              swap2\n              pop\n              pop\n              jump\t// out\n                /* \"#utility.yul\":4818:4935   */\n            tag_122:\n                /* \"#utility.yul\":4927:4928   */\n              0x00\n                /* \"#utility.yul\":4924:4925   */\n              dup1\n                /* \"#utility.yul\":4917:4929   */\n              revert\n                /* \"#utility.yul\":4941:5058   */\n            tag_123:\n                /* \"#utility.yul\":5050:5051   */\n              0x00\n                /* \"#utility.yul\":5047:5048   */\n              dup1\n                /* \"#utility.yul\":5040:5052   */\n              revert\n                /* \"#utility.yul\":5064:5181   */\n            tag_124:\n                /* \"#utility.yul\":5173:5174   */\n              0x00\n                /* \"#utility.yul\":5170:5171   */\n              dup1\n                /* \"#utility.yul\":5163:5175   */\n              revert\n                /* \"#utility.yul\":5201:5754   */\n            tag_125:\n                /* \"#utility.yul\":5259:5267   */\n              0x00\n                /* \"#utility.yul\":5269:5275   */\n              dup1\n                /* \"#utility.yul\":5319:5322   */\n              dup4\n                /* \"#utility.yul\":5312:5316   */\n              0x1f\n                /* \"#utility.yul\":5304:5310   */\n              dup5\n                /* \"#utility.yul\":5300:5317   */\n              add\n                /* \"#utility.yul\":5296:5323   */\n              slt\n                /* \"#utility.yul\":5286:5408   */\n              tag_191\n              jumpi\n                /* \"#utility.yul\":5327:5406   */\n              tag_192\n              tag_122\n              jump\t// in\n            tag_192:\n                /* \"#utility.yul\":5286:5408   */\n            tag_191:\n                /* \"#utility.yul\":5440:5446   */\n              dup3\n                /* \"#utility.yul\":5427:5447   */\n              calldataload\n                /* \"#utility.yul\":5417:5447   */\n              swap1\n              pop\n                /* \"#utility.yul\":5470:5488   */\n              0xffffffffffffffff\n                /* \"#utility.yul\":5462:5468   */\n              dup2\n                /* \"#utility.yul\":5459:5489   */\n              gt\n                /* \"#utility.yul\":5456:5573   */\n              iszero\n              tag_193\n              jumpi\n                /* \"#utility.yul\":5492:5571   */\n              tag_194\n              tag_123\n              jump\t// in\n            tag_194:\n                /* \"#utility.yul\":5456:5573   */\n            tag_193:\n                /* \"#utility.yul\":5606:5610   */\n              0x20\n                /* \"#utility.yul\":5598:5604   */\n              dup4\n                /* \"#utility.yul\":5594:5611   */\n              add\n                /* \"#utility.yul\":5582:5611   */\n              swap2\n              pop\n                /* \"#utility.yul\":5660:5663   */\n              dup4\n                /* \"#utility.yul\":5652:5656   */\n              0x01\n                /* \"#utility.yul\":5644:5650   */\n              dup3\n                /* \"#utility.yul\":5640:5657   */\n              mul\n                /* \"#utility.yul\":5630:5638   */\n              dup4\n                /* \"#utility.yul\":5626:5658   */\n              add\n                /* \"#utility.yul\":5623:5664   */\n              gt\n                /* \"#utility.yul\":5620:5748   */\n              iszero\n              tag_195\n              jumpi\n                /* \"#utility.yul\":5667:5746   */\n              tag_196\n              tag_124\n              jump\t// in\n            tag_196:\n                /* \"#utility.yul\":5620:5748   */\n            tag_195:\n                /* \"#utility.yul\":5201:5754   */\n              swap3\n              pop\n              swap3\n              swap1\n              pop\n              jump\t// out\n                /* \"#utility.yul\":5760:6579   */\n            tag_43:\n                /* \"#utility.yul\":5849:5855   */\n              0x00\n                /* \"#utility.yul\":5857:5863   */\n              dup1\n                /* \"#utility.yul\":5865:5871   */\n              0x00\n                /* \"#utility.yul\":5873:5879   */\n              dup1\n                /* \"#utility.yul\":5922:5924   */\n              0x60\n                /* \"#utility.yul\":5910:5919   */\n              dup6\n                /* \"#utility.yul\":5901:5908   */\n              dup8\n                /* \"#utility.yul\":5897:5920   */\n              sub\n                /* \"#utility.yul\":5893:5925   */\n              slt\n                /* \"#utility.yul\":5890:6009   */\n              iszero\n              tag_198\n              jumpi\n                /* \"#utility.yul\":5928:6007   */\n              tag_199\n              tag_104\n              jump\t// in\n            tag_199:\n                /* \"#utility.yul\":5890:6009   */\n            tag_198:\n                /* \"#utility.yul\":6076:6077   */\n              0x00\n                /* \"#utility.yul\":6065:6074   */\n              dup6\n                /* \"#utility.yul\":6061:6078   */\n              add\n                /* \"#utility.yul\":6048:6079   */\n              calldataload\n                /* \"#utility.yul\":6106:6124   */\n              0xffffffffffffffff\n                /* \"#utility.yul\":6098:6104   */\n              dup2\n                /* \"#utility.yul\":6095:6125   */\n              gt\n                /* \"#utility.yul\":6092:6209   */\n              iszero\n              tag_200\n              jumpi\n                /* \"#utility.yul\":6128:6207   */\n              tag_201\n              tag_105\n              jump\t// in\n            tag_201:\n                /* \"#utility.yul\":6092:6209   */\n            tag_200:\n                /* \"#utility.yul\":6241:6306   */\n              tag_202\n                /* \"#utility.yul\":6298:6305   */\n              dup8\n                /* \"#utility.yul\":6289:6295   */\n              dup3\n                /* \"#utility.yul\":6278:6287   */\n              dup9\n                /* \"#utility.yul\":6274:6296   */\n              add\n                /* \"#utility.yul\":6241:6306   */\n              tag_125\n              jump\t// in\n            tag_202:\n                /* \"#utility.yul\":6223:6306   */\n              swap5\n              pop\n              swap5\n              pop\n                /* \"#utility.yul\":6019:6316   */\n              pop\n                /* \"#utility.yul\":6355:6357   */\n              0x20\n                /* \"#utility.yul\":6381:6434   */\n              tag_203\n                /* \"#utility.yul\":6426:6433   */\n              dup8\n                /* \"#utility.yul\":6417:6423   */\n              dup3\n                /* \"#utility.yul\":6406:6415   */\n              dup9\n                /* \"#utility.yul\":6402:6424   */\n              add\n                /* \"#utility.yul\":6381:6434   */\n              tag_108\n              jump\t// in\n            tag_203:\n                /* \"#utility.yul\":6371:6434   */\n              swap3\n              pop\n                /* \"#utility.yul\":6326:6444   */\n              pop\n                /* \"#utility.yul\":6483:6485   */\n              0x40\n                /* \"#utility.yul\":6509:6562   */\n              tag_204\n                /* \"#utility.yul\":6554:6561   */\n              dup8\n                /* \"#utility.yul\":6545:6551   */\n              dup3\n                /* \"#utility.yul\":6534:6543   */\n              dup9\n                /* \"#utility.yul\":6530:6552   */\n              add\n                /* \"#utility.yul\":6509:6562   */\n              tag_112\n              jump\t// in\n            tag_204:\n                /* \"#utility.yul\":6499:6562   */\n              swap2\n              pop\n                /* \"#utility.yul\":6454:6572   */\n              pop\n                /* \"#utility.yul\":5760:6579   */\n              swap3\n              swap6\n              swap2\n              swap5\n              pop\n              swap3\n              pop\n              jump\t// out\n                /* \"#utility.yul\":6585:6765   */\n            tag_60:\n                /* \"#utility.yul\":6633:6710   */\n              0x4e487b7100000000000000000000000000000000000000000000000000000000\n                /* \"#utility.yul\":6630:6631   */\n              0x00\n                /* \"#utility.yul\":6623:6711   */\n              mstore\n                /* \"#utility.yul\":6730:6734   */\n              0x32\n                /* \"#utility.yul\":6727:6728   */\n              0x04\n                /* \"#utility.yul\":6720:6735   */\n              mstore\n                /* \"#utility.yul\":6754:6758   */\n              0x24\n                /* \"#utility.yul\":6751:6752   */\n              0x00\n                /* \"#utility.yul\":6744:6759   */\n              revert\n                /* \"#utility.yul\":6771:6951   */\n            tag_126:\n                /* \"#utility.yul\":6819:6896   */\n              0x4e487b7100000000000000000000000000000000000000000000000000000000\n                /* \"#utility.yul\":6816:6817   */\n              0x00\n                /* \"#utility.yul\":6809:6897   */\n              mstore\n                /* \"#utility.yul\":6916:6920   */\n              0x12\n                /* \"#utility.yul\":6913:6914   */\n              0x04\n                /* \"#utility.yul\":6906:6921   */\n              mstore\n                /* \"#utility.yul\":6940:6944   */\n              0x24\n                /* \"#utility.yul\":6937:6938   */\n              0x00\n                /* \"#utility.yul\":6930:6945   */\n              revert\n                /* \"#utility.yul\":6957:7137   */\n            tag_127:\n                /* \"#utility.yul\":7005:7082   */\n              0x4e487b7100000000000000000000000000000000000000000000000000000000\n                /* \"#utility.yul\":7002:7003   */\n              0x00\n                /* \"#utility.yul\":6995:7083   */\n              mstore\n                /* \"#utility.yul\":7102:7106   */\n              0x11\n                /* \"#utility.yul\":7099:7100   */\n              0x04\n                /* \"#utility.yul\":7092:7107   */\n              mstore\n                /* \"#utility.yul\":7126:7130   */\n              0x24\n                /* \"#utility.yul\":7123:7124   */\n              0x00\n                /* \"#utility.yul\":7116:7131   */\n              revert\n                /* \"#utility.yul\":7143:7328   */\n            tag_64:\n                /* \"#utility.yul\":7183:7184   */\n              0x00\n                /* \"#utility.yul\":7200:7220   */\n              tag_209\n                /* \"#utility.yul\":7218:7219   */\n              dup3\n                /* \"#utility.yul\":7200:7220   */\n              tag_106\n              jump\t// in\n            tag_209:\n                /* \"#utility.yul\":7195:7220   */\n              swap2\n              pop\n                /* \"#utility.yul\":7234:7254   */\n              tag_210\n                /* \"#utility.yul\":7252:7253   */\n              dup4\n                /* \"#utility.yul\":7234:7254   */\n              tag_106\n              jump\t// in\n            tag_210:\n                /* \"#utility.yul\":7229:7254   */\n              swap3\n              pop\n                /* \"#utility.yul\":7273:7274   */\n              dup3\n                /* \"#utility.yul\":7263:7298   */\n              tag_211\n              jumpi\n                /* \"#utility.yul\":7278:7296   */\n              tag_212\n              tag_126\n              jump\t// in\n            tag_212:\n                /* \"#utility.yul\":7263:7298   */\n            tag_211:\n                /* \"#utility.yul\":7320:7321   */\n              dup3\n                /* \"#utility.yul\":7317:7318   */\n              dup3\n                /* \"#utility.yul\":7313:7322   */\n              div\n                /* \"#utility.yul\":7308:7322   */\n              swap1\n              pop\n                /* \"#utility.yul\":7143:7328   */\n              swap3\n              swap2\n              pop\n              pop\n              jump\t// out\n                /* \"#utility.yul\":7334:7514   */\n            tag_128:\n                /* \"#utility.yul\":7382:7459   */\n              0x4e487b7100000000000000000000000000000000000000000000000000000000\n                /* \"#utility.yul\":7379:7380   */\n              0x00\n                /* \"#utility.yul\":7372:7460   */\n              mstore\n                /* \"#utility.yul\":7479:7483   */\n              0x22\n                /* \"#utility.yul\":7476:7477   */\n              0x04\n                /* \"#utility.yul\":7469:7484   */\n              mstore\n                /* \"#utility.yul\":7503:7507   */\n              0x24\n                /* \"#utility.yul\":7500:7501   */\n              0x00\n                /* \"#utility.yul\":7493:7508   */\n              revert\n                /* \"#utility.yul\":7520:7840   */\n            tag_71:\n                /* \"#utility.yul\":7564:7570   */\n              0x00\n                /* \"#utility.yul\":7601:7602   */\n              0x02\n                /* \"#utility.yul\":7595:7599   */\n              dup3\n                /* \"#utility.yul\":7591:7603   */\n              div\n                /* \"#utility.yul\":7581:7603   */\n              swap1\n              pop\n                /* \"#utility.yul\":7648:7649   */\n              0x01\n                /* \"#utility.yul\":7642:7646   */\n              dup3\n                /* \"#utility.yul\":7638:7650   */\n              and\n                /* \"#utility.yul\":7669:7687   */\n              dup1\n                /* \"#utility.yul\":7659:7740   */\n              tag_215\n              jumpi\n                /* \"#utility.yul\":7725:7729   */\n              0x7f\n                /* \"#utility.yul\":7717:7723   */\n              dup3\n                /* \"#utility.yul\":7713:7730   */\n              and\n                /* \"#utility.yul\":7703:7730   */\n              swap2\n              pop\n                /* \"#utility.yul\":7659:7740   */\n            tag_215:\n                /* \"#utility.yul\":7787:7789   */\n              0x20\n                /* \"#utility.yul\":7779:7785   */\n              dup3\n                /* \"#utility.yul\":7776:7790   */\n              lt\n                /* \"#utility.yul\":7756:7774   */\n              dup2\n                /* \"#utility.yul\":7753:7791   */\n              eq\n                /* \"#utility.yul\":7750:7834   */\n              iszero\n              tag_216\n              jumpi\n                /* \"#utility.yul\":7806:7824   */\n              tag_217\n              tag_128\n              jump\t// in\n            tag_217:\n                /* \"#utility.yul\":7750:7834   */\n            tag_216:\n                /* \"#utility.yul\":7571:7840   */\n              pop\n                /* \"#utility.yul\":7520:7840   */\n              swap2\n              swap1\n              pop\n              jump\t// out\n                /* \"#utility.yul\":7846:8079   */\n            tag_85:\n                /* \"#utility.yul\":7885:7888   */\n              0x00\n                /* \"#utility.yul\":7908:7932   */\n              tag_219\n                /* \"#utility.yul\":7926:7931   */\n              dup3\n                /* \"#utility.yul\":7908:7932   */\n              tag_106\n              jump\t// in\n            tag_219:\n                /* \"#utility.yul\":7899:7932   */\n              swap2\n              pop\n                /* \"#utility.yul\":7954:8020   */\n              0xffffffffffffffffffffffffffffffffffffffffffffffffffffffffffffffff\n                /* \"#utility.yul\":7947:7952   */\n              dup3\n                /* \"#utility.yul\":7944:8021   */\n              eq\n                /* \"#utility.yul\":7941:8044   */\n              iszero\n              tag_220\n              jumpi\n                /* \"#utility.yul\":8024:8042   */\n              tag_221\n              tag_127\n              jump\t// in\n            tag_221:\n                /* \"#utility.yul\":7941:8044   */\n            tag_220:\n                /* \"#utility.yul\":8071:8072   */\n              0x01\n                /* \"#utility.yul\":8064:8069   */\n              dup3\n                /* \"#utility.yul\":8060:8073   */\n              add\n                /* \"#utility.yul\":8053:8073   */\n              swap1\n              pop\n                /* \"#utility.yul\":7846:8079   */\n              swap2\n              swap1\n              pop\n              jump\t// out\n\n            auxdata: 0xa2646970667358221220817c26ae8e4c93b0a6d8d7814cf107d6288f25c250dbb0f230bfe0b661d7d65b64736f6c63430008090033\n        }\n    }\n\n    auxdata: 0xa264697066735822122091f6e833481c1d74580943c171b9a95fcd639ad2ced60d521f39948168e995f764736f6c63430008090033\n}\n","bytecode":{"linkReferences":{},"object":"608060405234801561001057600080fd5b506112c7806100206000396000f3fe608060405234801561001057600080fd5b50600436106100415760003560e01c80639db8d7d514610046578063aa6d0a9814610062578063d6c83f4f14610092575b600080fd5b610060600480360381019061005b9190610266565b6100b0565b005b61007c60048036038101906100779190610266565b610151565b60405161008991906102d4565b60405180910390f35b61009a610190565b6040516100a791906103ad565b60405180910390f35b600081336040516100c09061021e565b6100cb9291906103de565b604051809103906000f0801580156100e7573d6000803e3d6000fd5b5090506000819080600181540180825580915050600190039060005260206000200160009091909190916101000a81548173ffffffffffffffffffffffffffffffffffffffff021916908373ffffffffffffffffffffffffffffffffffffffff1602179055505050565b6000818154811061016157600080fd5b906000526020600020016000915054906101000a900473ffffffffffffffffffffffffffffffffffffffff1681565b6060600080548060200260200160405190810160405280929190818152602001828054801561021457602002820191906000526020600020905b8160009054906101000a900473ffffffffffffffffffffffffffffffffffffffff1673ffffffffffffffffffffffffffffffffffffffff16815260200190600101908083116101ca575b5050505050905090565b610e8a8061040883390190565b600080fd5b6000819050919050565b61024381610230565b811461024e57600080fd5b50565b6000813590506102608161023a565b92915050565b60006020828403121561027c5761027b61022b565b5b600061028a84828501610251565b91505092915050565b600073ffffffffffffffffffffffffffffffffffffffff82169050919050565b60006102be82610293565b9050919050565b6102ce816102b3565b82525050565b60006020820190506102e960008301846102c5565b92915050565b600081519050919050565b600082825260208201905092915050565b6000819050602082019050919050565b610324816102b3565b82525050565b6000610336838361031b565b60208301905092915050565b6000602082019050919050565b600061035a826102ef565b61036481856102fa565b935061036f8361030b565b8060005b838110156103a0578151610387888261032a565b975061039283610342565b925050600181019050610373565b5085935050505092915050565b600060208201905081810360008301526103c7818461034f565b905092915050565b6103d881610230565b82525050565b60006040820190506103f360008301856103cf565b61040060208301846102c5565b939250505056fe60806040523480156200001157600080fd5b5060405162000e8a38038062000e8a83398181016040528101906200003791906200012b565b81600181905550806000806101000a81548173ffffffffffffffffffffffffffffffffffffffff021916908373ffffffffffffffffffffffffffffffffffffffff160217905550505062000172565b600080fd5b6000819050919050565b620000a0816200008b565b8114620000ac57600080fd5b50565b600081519050620000c08162000095565b92915050565b600073ffffffffffffffffffffffffffffffffffffffff82169050919050565b6000620000f382620000c6565b9050919050565b6200010581620000e6565b81146200011157600080fd5b50565b6000815190506200012581620000fa565b92915050565b6000806040838503121562000145576200014462000086565b5b60006200015585828601620000af565b9250506020620001688582860162000114565b9150509250929050565b610d0880620001826000396000f3fe6080604052600436106100865760003560e01c806382fde0931161005957806382fde0931461015d5780638a9cfd5514610188578063937e09b1146101b1578063d7bb99ba146101dc578063d7d1bbdb146101e657610086565b8063034410061461008b5780630a144391146100b4578063481c6a75146100f157806381d12c581461011c575b600080fd5b34801561009757600080fd5b506100b260048036038101906100ad919061085c565b61020f565b005b3480156100c057600080fd5b506100db60048036038101906100d691906108e7565b610357565b6040516100e8919061092f565b60405180910390f35b3480156100fd57600080fd5b50610106610377565b6040516101139190610959565b60405180910390f35b34801561012857600080fd5b50610143600480360381019061013e919061085c565b61039b565b604051610154959493929190610a1c565b60405180910390f35b34801561016957600080fd5b50610172610496565b60405161017f9190610a76565b60405180910390f35b34801561019457600080fd5b506101af60048036038101906101aa9190610af6565b61049c565b005b3480156101bd57600080fd5b506101c66105a6565b6040516101d39190610a76565b60405180910390f35b6101e46105ac565b005b3480156101f257600080fd5b5061020d6004803603810190610208919061085c565b61062c565b005b60008054906101000a900473ffffffffffffffffffffffffffffffffffffffff1673ffffffffffffffffffffffffffffffffffffffff163373ffffffffffffffffffffffffffffffffffffffff161461026757600080fd5b60006004828154811061027d5761027c610b6a565b5b906000526020600020906006020190508060020160009054906101000a900460ff16156102a957600080fd5b60026003546102b89190610bf7565b8160030154116102c757600080fd5b8060040160009054906101000a900473ffffffffffffffffffffffffffffffffffffffff1673ffffffffffffffffffffffffffffffffffffffff166108fc82600101549081150290604051600060405180830381858888f19350505050158015610335573d6000803e3d6000fd5b5060018160020160006101000a81548160ff0219169083151502179055505050565b60026020528060005260406000206000915054906101000a900460ff1681565b60008054906101000a900473ffffffffffffffffffffffffffffffffffffffff1681565b600481815481106103ab57600080fd5b90600052602060002090600602016000915090508060000180546103ce90610c57565b80601f01602080910402602001604051908101604052809291908181526020018280546103fa90610c57565b80156104475780601f1061041c57610100808354040283529160200191610447565b820191906000526020600020905b81548152906001019060200180831161042a57829003601f168201915b5050505050908060010154908060020160009054906101000a900460ff16908060030154908060040160009054906101000a900473ffffffffffffffffffffffffffffffffffffffff16905085565b60035481565b60008054906101000a900473ffffffffffffffffffffffffffffffffffffffff1673ffffffffffffffffffffffffffffffffffffffff163373ffffffffffffffffffffffffffffffffffffffff16146104f457600080fd5b600060046001816001815401808255809150500390600052602060002090600602019050848482600001919061052b929190610779565b50828160010181905550818160040160006101000a81548173ffffffffffffffffffffffffffffffffffffffff021916908373ffffffffffffffffffffffffffffffffffffffff16021790555060008160020160006101000a81548160ff021916908315150217905550600081600301819055505050505050565b60015481565b60015434116105ba57600080fd5b6001600260003373ffffffffffffffffffffffffffffffffffffffff1673ffffffffffffffffffffffffffffffffffffffff16815260200190815260200160002060006101000a81548160ff0219169083151502179055506003600081548092919061062590610c89565b9190505550565b600260003373ffffffffffffffffffffffffffffffffffffffff1673ffffffffffffffffffffffffffffffffffffffff16815260200190815260200160002060009054906101000a900460ff1661068257600080fd5b60006004828154811061069857610697610b6a565b5b906000526020600020906006020190508060050160003373ffffffffffffffffffffffffffffffffffffffff1673ffffffffffffffffffffffffffffffffffffffff16815260200190815260200160002060009054906101000a900460ff161561070157600080fd5b60018160050160003373ffffffffffffffffffffffffffffffffffffffff1673ffffffffffffffffffffffffffffffffffffffff16815260200190815260200160002060006101000a81548160ff02191690831515021790555080600301600081548092919061077090610c89565b91905055505050565b82805461078590610c57565b90600052602060002090601f0160209004810192826107a757600085556107ee565b82601f106107c057803560ff19168380011785556107ee565b828001600101855582156107ee579182015b828111156107ed5782358255916020019190600101906107d2565b5b5090506107fb91906107ff565b5090565b5b80821115610818576000816000905550600101610800565b5090565b600080fd5b600080fd5b6000819050919050565b61083981610826565b811461084457600080fd5b50565b60008135905061085681610830565b92915050565b6000602082840312156108725761087161081c565b5b600061088084828501610847565b91505092915050565b600073ffffffffffffffffffffffffffffffffffffffff82169050919050565b60006108b482610889565b9050919050565b6108c4816108a9565b81146108cf57600080fd5b50565b6000813590506108e1816108bb565b92915050565b6000602082840312156108fd576108fc61081c565b5b600061090b848285016108d2565b91505092915050565b60008115159050919050565b61092981610914565b82525050565b60006020820190506109446000830184610920565b92915050565b610953816108a9565b82525050565b600060208201905061096e600083018461094a565b92915050565b600081519050919050565b600082825260208201905092915050565b60005b838110156109ae578082015181840152602081019050610993565b838111156109bd576000848401525b50505050565b6000601f19601f8301169050919050565b60006109df82610974565b6109e9818561097f565b93506109f9818560208601610990565b610a02816109c3565b840191505092915050565b610a1681610826565b82525050565b600060a0820190508181036000830152610a3681886109d4565b9050610a456020830187610a0d565b610a526040830186610920565b610a5f6060830185610a0d565b610a6c608083018461094a565b9695505050505050565b6000602082019050610a8b6000830184610a0d565b92915050565b600080fd5b600080fd5b600080fd5b60008083601f840112610ab657610ab5610a91565b5b8235905067ffffffffffffffff811115610ad357610ad2610a96565b5b602083019150836001820283011115610aef57610aee610a9b565b5b9250929050565b60008060008060608587031215610b1057610b0f61081c565b5b600085013567ffffffffffffffff811115610b2e57610b2d610821565b5b610b3a87828801610aa0565b94509450506020610b4d87828801610847565b9250506040610b5e878288016108d2565b91505092959194509250565b7f4e487b7100000000000000000000000000000000000000000000000000000000600052603260045260246000fd5b7f4e487b7100000000000000000000000000000000000000000000000000000000600052601260045260246000fd5b7f4e487b7100000000000000000000000000000000000000000000000000000000600052601160045260246000fd5b6000610c0282610826565b9150610c0d83610826565b925082610c1d57610c1c610b99565b5b828204905092915050565b7f4e487b7100000000000000000000000000000000000000000000000000000000600052602260045260246000fd5b60006002820490506001821680610c6f57607f821691505b60208210811415610c8357610c82610c28565b5b50919050565b6000610c9482610826565b91507fffffffffffffffffffffffffffffffffffffffffffffffffffffffffffffffff821415610cc757610cc6610bc8565b5b60018201905091905056fea2646970667358221220817c26ae8e4c93b0a6d8d7814cf107d6288f25c250dbb0f230bfe0b661d7d65b64736f6c63430008090033a264697066735822122091f6e833481c1d74580943c171b9a95fcd639ad2ced60d521f39948168e995f764736f6c63430008090033","opcodes":"PUSH1 0x80 PUSH1 0x40 MSTORE CALLVALUE DUP1 ISZERO PUSH2 0x10 JUMPI PUSH1 0x0 DUP1 REVERT JUMPDEST POP PUSH2 0x12C7 DUP1 PUSH2 0x20 PUSH1 0x0 CODECOPY PUSH1 0x0 RETURN INVALID PUSH1 0x80 PUSH1 0x40 MSTORE CALLVALUE DUP1 ISZERO PUSH2 0x10 JUMPI PUSH1 0x0 DUP1 REVERT JUMPDEST POP PUSH1 0x4 CALLDATASIZE LT PUSH2 0x41 JUMPI PUSH1 0x0 CALLDATALOAD PUSH1 0xE0 SHR DUP1 PUSH4 0x9DB8D7D5 EQ PUSH2 0x46 JUMPI DUP1 PUSH4 0xAA6D0A98 EQ PUSH2 0x62 JUMPI DUP1 PUSH4 0xD6C83F4F EQ PUSH2 0x92 JUMPI JUMPDEST PUSH1 0x0 DUP1 REVERT JUMPDEST PUSH2 0x60 PUSH1 0x4 DUP1 CALLDATASIZE SUB DUP2 ADD SWAP1 PUSH2 0x5B SWAP2 SWAP1 PUSH2 0x266 JUMP JUMPDEST PUSH2 0xB0 JUMP JUMPDEST STOP JUMPDEST PUSH2 0x7C PUSH1 0x4 DUP1 CALLDATASIZE SUB DUP2 ADD SWAP1 PUSH2 0x77 SWAP2 SWAP1 PUSH2 0x266 JUMP JUMPDEST PUSH2 0x151 JUMP JUMPDEST PUSH1 0x40 MLOAD PUSH2 0x89 SWAP2 SWAP1 PUSH2 0x2D4 JUMP JUMPDEST PUSH1 0x40 MLOAD DUP1 SWAP2 SUB SWAP1 RETURN JUMPDEST PUSH2 0x9A PUSH2 0x190 JUMP JUMPDEST PUSH1 0x40 MLOAD PUSH2 0xA7 SWAP2 SWAP1 PUSH2 0x3AD JUMP JUMPDEST PUSH1 0x40 MLOAD DUP1 SWAP2 SUB SWAP1 RETURN JUMPDEST PUSH1 0x0 DUP2 CALLER PUSH1 0x40 MLOAD PUSH2 0xC0 SWAP1 PUSH2 0x21E JUMP JUMPDEST PUSH2 0xCB SWAP3 SWAP2 SWAP1 PUSH2 0x3DE JUMP JUMPDEST PUSH1 0x40 MLOAD DUP1 SWAP2 SUB SWAP1 PUSH1 0x0 CREATE DUP1 ISZERO DUP1 ISZERO PUSH2 0xE7 JUMPI RETURNDATASIZE PUSH1 0x0 DUP1 RETURNDATACOPY RETURNDATASIZE PUSH1 0x0 REVERT JUMPDEST POP SWAP1 POP PUSH1 0x0 DUP2 SWAP1 DUP1 PUSH1 0x1 DUP2 SLOAD ADD DUP1 DUP3 SSTORE DUP1 SWAP2 POP POP PUSH1 0x1 SWAP1 SUB SWAP1 PUSH1 0x0 MSTORE PUSH1 0x20 PUSH1 0x0 KECCAK256 ADD PUSH1 0x0 SWAP1 SWAP2 SWAP1 SWAP2 SWAP1 SWAP2 PUSH2 0x100 EXP DUP2 SLOAD DUP2 PUSH20 0xFFFFFFFFFFFFFFFFFFFFFFFFFFFFFFFFFFFFFFFF MUL NOT AND SWAP1 DUP4 PUSH20 0xFFFFFFFFFFFFFFFFFFFFFFFFFFFFFFFFFFFFFFFF AND MUL OR SWAP1 SSTORE POP POP POP JUMP JUMPDEST PUSH1 0x0 DUP2 DUP2 SLOAD DUP2 LT PUSH2 0x161 JUMPI PUSH1 0x0 DUP1 REVERT JUMPDEST SWAP1 PUSH1 0x0 MSTORE PUSH1 0x20 PUSH1 0x0 KECCAK256 ADD PUSH1 0x0 SWAP2 POP SLOAD SWAP1 PUSH2 0x100 EXP SWAP1 DIV PUSH20 0xFFFFFFFFFFFFFFFFFFFFFFFFFFFFFFFFFFFFFFFF AND DUP2 JUMP JUMPDEST PUSH1 0x60 PUSH1 0x0 DUP1 SLOAD DUP1 PUSH1 0x20 MUL PUSH1 0x20 ADD PUSH1 0x40 MLOAD SWAP1 DUP2 ADD PUSH1 0x40 MSTORE DUP1 SWAP3 SWAP2 SWAP1 DUP2 DUP2 MSTORE PUSH1 0x20 ADD DUP3 DUP1 SLOAD DUP1 ISZERO PUSH2 0x214 JUMPI PUSH1 0x20 MUL DUP3 ADD SWAP2 SWAP1 PUSH1 0x0 MSTORE PUSH1 0x20 PUSH1 0x0 KECCAK256 SWAP1 JUMPDEST DUP2 PUSH1 0x0 SWAP1 SLOAD SWAP1 PUSH2 0x100 EXP SWAP1 DIV PUSH20 0xFFFFFFFFFFFFFFFFFFFFFFFFFFFFFFFFFFFFFFFF AND PUSH20 0xFFFFFFFFFFFFFFFFFFFFFFFFFFFFFFFFFFFFFFFF AND DUP2 MSTORE PUSH1 0x20 ADD SWAP1 PUSH1 0x1 ADD SWAP1 DUP1 DUP4 GT PUSH2 0x1CA JUMPI JUMPDEST POP POP POP POP POP SWAP1 POP SWAP1 JUMP JUMPDEST PUSH2 0xE8A DUP1 PUSH2 0x408 DUP4 CODECOPY ADD SWAP1 JUMP JUMPDEST PUSH1 0x0 DUP1 REVERT JUMPDEST PUSH1 0x0 DUP2 SWAP1 POP SWAP2 SWAP1 POP JUMP JUMPDEST PUSH2 0x243 DUP2 PUSH2 0x230 JUMP JUMPDEST DUP2 EQ PUSH2 0x24E JUMPI PUSH1 0x0 DUP1 REVERT JUMPDEST POP JUMP JUMPDEST PUSH1 0x0 DUP2 CALLDATALOAD SWAP1 POP PUSH2 0x260 DUP2 PUSH2 0x23A JUMP JUMPDEST SWAP3 SWAP2 POP POP JUMP JUMPDEST PUSH1 0x0 PUSH1 0x20 DUP3 DUP5 SUB SLT ISZERO PUSH2 0x27C JUMPI PUSH2 0x27B PUSH2 0x22B JUMP JUMPDEST JUMPDEST PUSH1 0x0 PUSH2 0x28A DUP5 DUP3 DUP6 ADD PUSH2 0x251 JUMP JUMPDEST SWAP2 POP POP SWAP3 SWAP2 POP POP JUMP JUMPDEST PUSH1 0x0 PUSH20 0xFFFFFFFFFFFFFFFFFFFFFFFFFFFFFFFFFFFFFFFF DUP3 AND SWAP1 POP SWAP2 SWAP1 POP JUMP JUMPDEST PUSH1 0x0 PUSH2 0x2BE DUP3 PUSH2 0x293 JUMP JUMPDEST SWAP1 POP SWAP2 SWAP1 POP JUMP JUMPDEST PUSH2 0x2CE DUP2 PUSH2 0x2B3 JUMP JUMPDEST DUP3 MSTORE POP POP JUMP JUMPDEST PUSH1 0x0 PUSH1 0x20 DUP3 ADD SWAP1 POP PUSH2 0x2E9 PUSH1 0x0 DUP4 ADD DUP5 PUSH2 0x2C5 JUMP JUMPDEST SWAP3 SWAP2 POP POP JUMP JUMPDEST PUSH1 0x0 DUP2 MLOAD SWAP1 POP SWAP2 SWAP1 POP JUMP JUMPDEST PUSH1 0x0 DUP3 DUP3 MSTORE PUSH1 0x20 DUP3 ADD SWAP1 POP SWAP3 SWAP2 POP POP JUMP JUMPDEST PUSH1 0x0 DUP2 SWAP1 POP PUSH1 0x20 DUP3 ADD SWAP1 POP SWAP2 SWAP1 POP JUMP JUMPDEST PUSH2 0x324 DUP2 PUSH2 0x2B3 JUMP JUMPDEST DUP3 MSTORE POP POP JUMP JUMPDEST PUSH1 0x0 PUSH2 0x336 DUP4 DUP4 PUSH2 0x31B JUMP JUMPDEST PUSH1 0x20 DUP4 ADD SWAP1 POP SWAP3 SWAP2 POP POP JUMP JUMPDEST PUSH1 0x0 PUSH1 0x20 DUP3 ADD SWAP1 POP SWAP2 SWAP1 POP JUMP JUMPDEST PUSH1 0x0 PUSH2 0x35A DUP3 PUSH2 0x2EF JUMP JUMPDEST PUSH2 0x364 DUP2 DUP6 PUSH2 0x2FA JUMP JUMPDEST SWAP4 POP PUSH2 0x36F DUP4 PUSH2 0x30B JUMP JUMPDEST DUP1 PUSH1 0x0 JUMPDEST DUP4 DUP2 LT ISZERO PUSH2 0x3A0 JUMPI DUP2 MLOAD PUSH2 0x387 DUP9 DUP3 PUSH2 0x32A JUMP JUMPDEST SWAP8 POP PUSH2 0x392 DUP4 PUSH2 0x342 JUMP JUMPDEST SWAP3 POP POP PUSH1 0x1 DUP2 ADD SWAP1 POP PUSH2 0x373 JUMP JUMPDEST POP DUP6 SWAP4 POP POP POP POP SWAP3 SWAP2 POP POP JUMP JUMPDEST PUSH1 0x0 PUSH1 0x20 DUP3 ADD SWAP1 POP DUP2 DUP2 SUB PUSH1 0x0 DUP4 ADD MSTORE PUSH2 0x3C7 DUP2 DUP5 PUSH2 0x34F JUMP JUMPDEST SWAP1 POP SWAP3 SWAP2 POP POP JUMP JUMPDEST PUSH2 0x3D8 DUP2 PUSH2 0x230 JUMP JUMPDEST DUP3 MSTORE POP POP JUMP JUMPDEST PUSH1 0x0 PUSH1 0x40 DUP3 ADD SWAP1 POP PUSH2 0x3F3 PUSH1 0x0 DUP4 ADD DUP6 PUSH2 0x3CF JUMP JUMPDEST PUSH2 0x400 PUSH1 0x20 DUP4 ADD DUP5 PUSH2 0x2C5 JUMP JUMPDEST SWAP4 SWAP3 POP POP POP JUMP INVALID PUSH1 0x80 PUSH1 0x40 MSTORE CALLVALUE DUP1 ISZERO PUSH3 0x11 JUMPI PUSH1 0x0 DUP1 REVERT JUMPDEST POP PUSH1 0x40 MLOAD PUSH3 0xE8A CODESIZE SUB DUP1 PUSH3 0xE8A DUP4 CODECOPY DUP2 DUP2 ADD PUSH1 0x40 MSTORE DUP2 ADD SWAP1 PUSH3 0x37 SWAP2 SWAP1 PUSH3 0x12B JUMP JUMPDEST DUP2 PUSH1 0x1 DUP2 SWAP1 SSTORE POP DUP1 PUSH1 0x0 DUP1 PUSH2 0x100 EXP DUP2 SLOAD DUP2 PUSH20 0xFFFFFFFFFFFFFFFFFFFFFFFFFFFFFFFFFFFFFFFF MUL NOT AND SWAP1 DUP4 PUSH20 0xFFFFFFFFFFFFFFFFFFFFFFFFFFFFFFFFFFFFFFFF AND MUL OR SWAP1 SSTORE POP POP POP PUSH3 0x172 JUMP JUMPDEST PUSH1 0x0 DUP1 REVERT JUMPDEST PUSH1 0x0 DUP2 SWAP1 POP SWAP2 SWAP1 POP JUMP JUMPDEST PUSH3 0xA0 DUP2 PUSH3 0x8B JUMP JUMPDEST DUP2 EQ PUSH3 0xAC JUMPI PUSH1 0x0 DUP1 REVERT JUMPDEST POP JUMP JUMPDEST PUSH1 0x0 DUP2 MLOAD SWAP1 POP PUSH3 0xC0 DUP2 PUSH3 0x95 JUMP JUMPDEST SWAP3 SWAP2 POP POP JUMP JUMPDEST PUSH1 0x0 PUSH20 0xFFFFFFFFFFFFFFFFFFFFFFFFFFFFFFFFFFFFFFFF DUP3 AND SWAP1 POP SWAP2 SWAP1 POP JUMP JUMPDEST PUSH1 0x0 PUSH3 0xF3 DUP3 PUSH3 0xC6 JUMP JUMPDEST SWAP1 POP SWAP2 SWAP1 POP JUMP JUMPDEST PUSH3 0x105 DUP2 PUSH3 0xE6 JUMP JUMPDEST DUP2 EQ PUSH3 0x111 JUMPI PUSH1 0x0 DUP1 REVERT JUMPDEST POP JUMP JUMPDEST PUSH1 0x0 DUP2 MLOAD SWAP1 POP PUSH3 0x125 DUP2 PUSH3 0xFA JUMP JUMPDEST SWAP3 SWAP2 POP POP JUMP JUMPDEST PUSH1 0x0 DUP1 PUSH1 0x40 DUP4 DUP6 SUB SLT ISZERO PUSH3 0x145 JUMPI PUSH3 0x144 PUSH3 0x86 JUMP JUMPDEST JUMPDEST PUSH1 0x0 PUSH3 0x155 DUP6 DUP3 DUP7 ADD PUSH3 0xAF JUMP JUMPDEST SWAP3 POP POP PUSH1 0x20 PUSH3 0x168 DUP6 DUP3 DUP7 ADD PUSH3 0x114 JUMP JUMPDEST SWAP2 POP POP SWAP3 POP SWAP3 SWAP1 POP JUMP JUMPDEST PUSH2 0xD08 DUP1 PUSH3 0x182 PUSH1 0x0 CODECOPY PUSH1 0x0 RETURN INVALID PUSH1 0x80 PUSH1 0x40 MSTORE PUSH1 0x4 CALLDATASIZE LT PUSH2 0x86 JUMPI PUSH1 0x0 CALLDATALOAD PUSH1 0xE0 SHR DUP1 PUSH4 0x82FDE093 GT PUSH2 0x59 JUMPI DUP1 PUSH4 0x82FDE093 EQ PUSH2 0x15D JUMPI DUP1 PUSH4 0x8A9CFD55 EQ PUSH2 0x188 JUMPI DUP1 PUSH4 0x937E09B1 EQ PUSH2 0x1B1 JUMPI DUP1 PUSH4 0xD7BB99BA EQ PUSH2 0x1DC JUMPI DUP1 PUSH4 0xD7D1BBDB EQ PUSH2 0x1E6 JUMPI PUSH2 0x86 JUMP JUMPDEST DUP1 PUSH4 0x3441006 EQ PUSH2 0x8B JUMPI DUP1 PUSH4 0xA144391 EQ PUSH2 0xB4 JUMPI DUP1 PUSH4 0x481C6A75 EQ PUSH2 0xF1 JUMPI DUP1 PUSH4 0x81D12C58 EQ PUSH2 0x11C JUMPI JUMPDEST PUSH1 0x0 DUP1 REVERT JUMPDEST CALLVALUE DUP1 ISZERO PUSH2 0x97 JUMPI PUSH1 0x0 DUP1 REVERT JUMPDEST POP PUSH2 0xB2 PUSH1 0x4 DUP1 CALLDATASIZE SUB DUP2 ADD SWAP1 PUSH2 0xAD SWAP2 SWAP1 PUSH2 0x85C JUMP JUMPDEST PUSH2 0x20F JUMP JUMPDEST STOP JUMPDEST CALLVALUE DUP1 ISZERO PUSH2 0xC0 JUMPI PUSH1 0x0 DUP1 REVERT JUMPDEST POP PUSH2 0xDB PUSH1 0x4 DUP1 CALLDATASIZE SUB DUP2 ADD SWAP1 PUSH2 0xD6 SWAP2 SWAP1 PUSH2 0x8E7 JUMP JUMPDEST PUSH2 0x357 JUMP JUMPDEST PUSH1 0x40 MLOAD PUSH2 0xE8 SWAP2 SWAP1 PUSH2 0x92F JUMP JUMPDEST PUSH1 0x40 MLOAD DUP1 SWAP2 SUB SWAP1 RETURN JUMPDEST CALLVALUE DUP1 ISZERO PUSH2 0xFD JUMPI PUSH1 0x0 DUP1 REVERT JUMPDEST POP PUSH2 0x106 PUSH2 0x377 JUMP JUMPDEST PUSH1 0x40 MLOAD PUSH2 0x113 SWAP2 SWAP1 PUSH2 0x959 JUMP JUMPDEST PUSH1 0x40 MLOAD DUP1 SWAP2 SUB SWAP1 RETURN JUMPDEST CALLVALUE DUP1 ISZERO PUSH2 0x128 JUMPI PUSH1 0x0 DUP1 REVERT JUMPDEST POP PUSH2 0x143 PUSH1 0x4 DUP1 CALLDATASIZE SUB DUP2 ADD SWAP1 PUSH2 0x13E SWAP2 SWAP1 PUSH2 0x85C JUMP JUMPDEST PUSH2 0x39B JUMP JUMPDEST PUSH1 0x40 MLOAD PUSH2 0x154 SWAP6 SWAP5 SWAP4 SWAP3 SWAP2 SWAP1 PUSH2 0xA1C JUMP JUMPDEST PUSH1 0x40 MLOAD DUP1 SWAP2 SUB SWAP1 RETURN JUMPDEST CALLVALUE DUP1 ISZERO PUSH2 0x169 JUMPI PUSH1 0x0 DUP1 REVERT JUMPDEST POP PUSH2 0x172 PUSH2 0x496 JUMP JUMPDEST PUSH1 0x40 MLOAD PUSH2 0x17F SWAP2 SWAP1 PUSH2 0xA76 JUMP JUMPDEST PUSH1 0x40 MLOAD DUP1 SWAP2 SUB SWAP1 RETURN JUMPDEST CALLVALUE DUP1 ISZERO PUSH2 0x194 JUMPI PUSH1 0x0 DUP1 REVERT JUMPDEST POP PUSH2 0x1AF PUSH1 0x4 DUP1 CALLDATASIZE SUB DUP2 ADD SWAP1 PUSH2 0x1AA SWAP2 SWAP1 PUSH2 0xAF6 JUMP JUMPDEST PUSH2 0x49C JUMP JUMPDEST STOP JUMPDEST CALLVALUE DUP1 ISZERO PUSH2 0x1BD JUMPI PUSH1 0x0 DUP1 REVERT JUMPDEST POP PUSH2 0x1C6 PUSH2 0x5A6 JUMP JUMPDEST PUSH1 0x40 MLOAD PUSH2 0x1D3 SWAP2 SWAP1 PUSH2 0xA76 JUMP JUMPDEST PUSH1 0x40 MLOAD DUP1 SWAP2 SUB SWAP1 RETURN JUMPDEST PUSH2 0x1E4 PUSH2 0x5AC JUMP JUMPDEST STOP JUMPDEST CALLVALUE DUP1 ISZERO PUSH2 0x1F2 JUMPI PUSH1 0x0 DUP1 REVERT JUMPDEST POP PUSH2 0x20D PUSH1 0x4 DUP1 CALLDATASIZE SUB DUP2 ADD SWAP1 PUSH2 0x208 SWAP2 SWAP1 PUSH2 0x85C JUMP JUMPDEST PUSH2 0x62C JUMP JUMPDEST STOP JUMPDEST PUSH1 0x0 DUP1 SLOAD SWAP1 PUSH2 0x100 EXP SWAP1 DIV PUSH20 0xFFFFFFFFFFFFFFFFFFFFFFFFFFFFFFFFFFFFFFFF AND PUSH20 0xFFFFFFFFFFFFFFFFFFFFFFFFFFFFFFFFFFFFFFFF AND CALLER PUSH20 0xFFFFFFFFFFFFFFFFFFFFFFFFFFFFFFFFFFFFFFFF AND EQ PUSH2 0x267 JUMPI PUSH1 0x0 DUP1 REVERT JUMPDEST PUSH1 0x0 PUSH1 0x4 DUP3 DUP2 SLOAD DUP2 LT PUSH2 0x27D JUMPI PUSH2 0x27C PUSH2 0xB6A JUMP JUMPDEST JUMPDEST SWAP1 PUSH1 0x0 MSTORE PUSH1 0x20 PUSH1 0x0 KECCAK256 SWAP1 PUSH1 0x6 MUL ADD SWAP1 POP DUP1 PUSH1 0x2 ADD PUSH1 0x0 SWAP1 SLOAD SWAP1 PUSH2 0x100 EXP SWAP1 DIV PUSH1 0xFF AND ISZERO PUSH2 0x2A9 JUMPI PUSH1 0x0 DUP1 REVERT JUMPDEST PUSH1 0x2 PUSH1 0x3 SLOAD PUSH2 0x2B8 SWAP2 SWAP1 PUSH2 0xBF7 JUMP JUMPDEST DUP2 PUSH1 0x3 ADD SLOAD GT PUSH2 0x2C7 JUMPI PUSH1 0x0 DUP1 REVERT JUMPDEST DUP1 PUSH1 0x4 ADD PUSH1 0x0 SWAP1 SLOAD SWAP1 PUSH2 0x100 EXP SWAP1 DIV PUSH20 0xFFFFFFFFFFFFFFFFFFFFFFFFFFFFFFFFFFFFFFFF AND PUSH20 0xFFFFFFFFFFFFFFFFFFFFFFFFFFFFFFFFFFFFFFFF AND PUSH2 0x8FC DUP3 PUSH1 0x1 ADD SLOAD SWAP1 DUP2 ISZERO MUL SWAP1 PUSH1 0x40 MLOAD PUSH1 0x0 PUSH1 0x40 MLOAD DUP1 DUP4 SUB DUP2 DUP6 DUP9 DUP9 CALL SWAP4 POP POP POP POP ISZERO DUP1 ISZERO PUSH2 0x335 JUMPI RETURNDATASIZE PUSH1 0x0 DUP1 RETURNDATACOPY RETURNDATASIZE PUSH1 0x0 REVERT JUMPDEST POP PUSH1 0x1 DUP2 PUSH1 0x2 ADD PUSH1 0x0 PUSH2 0x100 EXP DUP2 SLOAD DUP2 PUSH1 0xFF MUL NOT AND SWAP1 DUP4 ISZERO ISZERO MUL OR SWAP1 SSTORE POP POP POP JUMP JUMPDEST PUSH1 0x2 PUSH1 0x20 MSTORE DUP1 PUSH1 0x0 MSTORE PUSH1 0x40 PUSH1 0x0 KECCAK256 PUSH1 0x0 SWAP2 POP SLOAD SWAP1 PUSH2 0x100 EXP SWAP1 DIV PUSH1 0xFF AND DUP2 JUMP JUMPDEST PUSH1 0x0 DUP1 SLOAD SWAP1 PUSH2 0x100 EXP SWAP1 DIV PUSH20 0xFFFFFFFFFFFFFFFFFFFFFFFFFFFFFFFFFFFFFFFF AND DUP2 JUMP JUMPDEST PUSH1 0x4 DUP2 DUP2 SLOAD DUP2 LT PUSH2 0x3AB JUMPI PUSH1 0x0 DUP1 REVERT JUMPDEST SWAP1 PUSH1 0x0 MSTORE PUSH1 0x20 PUSH1 0x0 KECCAK256 SWAP1 PUSH1 0x6 MUL ADD PUSH1 0x0 SWAP2 POP SWAP1 POP DUP1 PUSH1 0x0 ADD DUP1 SLOAD PUSH2 0x3CE SWAP1 PUSH2 0xC57 JUMP JUMPDEST DUP1 PUSH1 0x1F ADD PUSH1 0x20 DUP1 SWAP2 DIV MUL PUSH1 0x20 ADD PUSH1 0x40 MLOAD SWAP1 DUP2 ADD PUSH1 0x40 MSTORE DUP1 SWAP3 SWAP2 SWAP1 DUP2 DUP2 MSTORE PUSH1 0x20 ADD DUP3 DUP1 SLOAD PUSH2 0x3FA SWAP1 PUSH2 0xC57 JUMP JUMPDEST DUP1 ISZERO PUSH2 0x447 JUMPI DUP1 PUSH1 0x1F LT PUSH2 0x41C JUMPI PUSH2 0x100 DUP1 DUP4 SLOAD DIV MUL DUP4 MSTORE SWAP2 PUSH1 0x20 ADD SWAP2 PUSH2 0x447 JUMP JUMPDEST DUP3 ADD SWAP2 SWAP1 PUSH1 0x0 MSTORE PUSH1 0x20 PUSH1 0x0 KECCAK256 SWAP1 JUMPDEST DUP2 SLOAD DUP2 MSTORE SWAP1 PUSH1 0x1 ADD SWAP1 PUSH1 0x20 ADD DUP1 DUP4 GT PUSH2 0x42A JUMPI DUP3 SWAP1 SUB PUSH1 0x1F AND DUP3 ADD SWAP2 JUMPDEST POP POP POP POP POP SWAP1 DUP1 PUSH1 0x1 ADD SLOAD SWAP1 DUP1 PUSH1 0x2 ADD PUSH1 0x0 SWAP1 SLOAD SWAP1 PUSH2 0x100 EXP SWAP1 DIV PUSH1 0xFF AND SWAP1 DUP1 PUSH1 0x3 ADD SLOAD SWAP1 DUP1 PUSH1 0x4 ADD PUSH1 0x0 SWAP1 SLOAD SWAP1 PUSH2 0x100 EXP SWAP1 DIV PUSH20 0xFFFFFFFFFFFFFFFFFFFFFFFFFFFFFFFFFFFFFFFF AND SWAP1 POP DUP6 JUMP JUMPDEST PUSH1 0x3 SLOAD DUP2 JUMP JUMPDEST PUSH1 0x0 DUP1 SLOAD SWAP1 PUSH2 0x100 EXP SWAP1 DIV PUSH20 0xFFFFFFFFFFFFFFFFFFFFFFFFFFFFFFFFFFFFFFFF AND PUSH20 0xFFFFFFFFFFFFFFFFFFFFFFFFFFFFFFFFFFFFFFFF AND CALLER PUSH20 0xFFFFFFFFFFFFFFFFFFFFFFFFFFFFFFFFFFFFFFFF AND EQ PUSH2 0x4F4 JUMPI PUSH1 0x0 DUP1 REVERT JUMPDEST PUSH1 0x0 PUSH1 0x4 PUSH1 0x1 DUP2 PUSH1 0x1 DUP2 SLOAD ADD DUP1 DUP3 SSTORE DUP1 SWAP2 POP POP SUB SWAP1 PUSH1 0x0 MSTORE PUSH1 0x20 PUSH1 0x0 KECCAK256 SWAP1 PUSH1 0x6 MUL ADD SWAP1 POP DUP5 DUP5 DUP3 PUSH1 0x0 ADD SWAP2 SWAP1 PUSH2 0x52B SWAP3 SWAP2 SWAP1 PUSH2 0x779 JUMP JUMPDEST POP DUP3 DUP2 PUSH1 0x1 ADD DUP2 SWAP1 SSTORE POP DUP2 DUP2 PUSH1 0x4 ADD PUSH1 0x0 PUSH2 0x100 EXP DUP2 SLOAD DUP2 PUSH20 0xFFFFFFFFFFFFFFFFFFFFFFFFFFFFFFFFFFFFFFFF MUL NOT AND SWAP1 DUP4 PUSH20 0xFFFFFFFFFFFFFFFFFFFFFFFFFFFFFFFFFFFFFFFF AND MUL OR SWAP1 SSTORE POP PUSH1 0x0 DUP2 PUSH1 0x2 ADD PUSH1 0x0 PUSH2 0x100 EXP DUP2 SLOAD DUP2 PUSH1 0xFF MUL NOT AND SWAP1 DUP4 ISZERO ISZERO MUL OR SWAP1 SSTORE POP PUSH1 0x0 DUP2 PUSH1 0x3 ADD DUP2 SWAP1 SSTORE POP POP POP POP POP POP JUMP JUMPDEST PUSH1 0x1 SLOAD DUP2 JUMP JUMPDEST PUSH1 0x1 SLOAD CALLVALUE GT PUSH2 0x5BA JUMPI PUSH1 0x0 DUP1 REVERT JUMPDEST PUSH1 0x1 PUSH1 0x2 PUSH1 0x0 CALLER PUSH20 0xFFFFFFFFFFFFFFFFFFFFFFFFFFFFFFFFFFFFFFFF AND PUSH20 0xFFFFFFFFFFFFFFFFFFFFFFFFFFFFFFFFFFFFFFFF AND DUP2 MSTORE PUSH1 0x20 ADD SWAP1 DUP2 MSTORE PUSH1 0x20 ADD PUSH1 0x0 KECCAK256 PUSH1 0x0 PUSH2 0x100 EXP DUP2 SLOAD DUP2 PUSH1 0xFF MUL NOT AND SWAP1 DUP4 ISZERO ISZERO MUL OR SWAP1 SSTORE POP PUSH1 0x3 PUSH1 0x0 DUP2 SLOAD DUP1 SWAP3 SWAP2 SWAP1 PUSH2 0x625 SWAP1 PUSH2 0xC89 JUMP JUMPDEST SWAP2 SWAP1 POP SSTORE POP JUMP JUMPDEST PUSH1 0x2 PUSH1 0x0 CALLER PUSH20 0xFFFFFFFFFFFFFFFFFFFFFFFFFFFFFFFFFFFFFFFF AND PUSH20 0xFFFFFFFFFFFFFFFFFFFFFFFFFFFFFFFFFFFFFFFF AND DUP2 MSTORE PUSH1 0x20 ADD SWAP1 DUP2 MSTORE PUSH1 0x20 ADD PUSH1 0x0 KECCAK256 PUSH1 0x0 SWAP1 SLOAD SWAP1 PUSH2 0x100 EXP SWAP1 DIV PUSH1 0xFF AND PUSH2 0x682 JUMPI PUSH1 0x0 DUP1 REVERT JUMPDEST PUSH1 0x0 PUSH1 0x4 DUP3 DUP2 SLOAD DUP2 LT PUSH2 0x698 JUMPI PUSH2 0x697 PUSH2 0xB6A JUMP JUMPDEST JUMPDEST SWAP1 PUSH1 0x0 MSTORE PUSH1 0x20 PUSH1 0x0 KECCAK256 SWAP1 PUSH1 0x6 MUL ADD SWAP1 POP DUP1 PUSH1 0x5 ADD PUSH1 0x0 CALLER PUSH20 0xFFFFFFFFFFFFFFFFFFFFFFFFFFFFFFFFFFFFFFFF AND PUSH20 0xFFFFFFFFFFFFFFFFFFFFFFFFFFFFFFFFFFFFFFFF AND DUP2 MSTORE PUSH1 0x20 ADD SWAP1 DUP2 MSTORE PUSH1 0x20 ADD PUSH1 0x0 KECCAK256 PUSH1 0x0 SWAP1 SLOAD SWAP1 PUSH2 0x100 EXP SWAP1 DIV PUSH1 0xFF AND ISZERO PUSH2 0x701 JUMPI PUSH1 0x0 DUP1 REVERT JUMPDEST PUSH1 0x1 DUP2 PUSH1 0x5 ADD PUSH1 0x0 CALLER PUSH20 0xFFFFFFFFFFFFFFFFFFFFFFFFFFFFFFFFFFFFFFFF AND PUSH20 0xFFFFFFFFFFFFFFFFFFFFFFFFFFFFFFFFFFFFFFFF AND DUP2 MSTORE PUSH1 0x20 ADD SWAP1 DUP2 MSTORE PUSH1 0x20 ADD PUSH1 0x0 KECCAK256 PUSH1 0x0 PUSH2 0x100 EXP DUP2 SLOAD DUP2 PUSH1 0xFF MUL NOT AND SWAP1 DUP4 ISZERO ISZERO MUL OR SWAP1 SSTORE POP DUP1 PUSH1 0x3 ADD PUSH1 0x0 DUP2 SLOAD DUP1 SWAP3 SWAP2 SWAP1 PUSH2 0x770 SWAP1 PUSH2 0xC89 JUMP JUMPDEST SWAP2 SWAP1 POP SSTORE POP POP POP JUMP JUMPDEST DUP3 DUP1 SLOAD PUSH2 0x785 SWAP1 PUSH2 0xC57 JUMP JUMPDEST SWAP1 PUSH1 0x0 MSTORE PUSH1 0x20 PUSH1 0x0 KECCAK256 SWAP1 PUSH1 0x1F ADD PUSH1 0x20 SWAP1 DIV DUP2 ADD SWAP3 DUP3 PUSH2 0x7A7 JUMPI PUSH1 0x0 DUP6 SSTORE PUSH2 0x7EE JUMP JUMPDEST DUP3 PUSH1 0x1F LT PUSH2 0x7C0 JUMPI DUP1 CALLDATALOAD PUSH1 0xFF NOT AND DUP4 DUP1 ADD OR DUP6 SSTORE PUSH2 0x7EE JUMP JUMPDEST DUP3 DUP1 ADD PUSH1 0x1 ADD DUP6 SSTORE DUP3 ISZERO PUSH2 0x7EE JUMPI SWAP2 DUP3 ADD JUMPDEST DUP3 DUP2 GT ISZERO PUSH2 0x7ED JUMPI DUP3 CALLDATALOAD DUP3 SSTORE SWAP2 PUSH1 0x20 ADD SWAP2 SWAP1 PUSH1 0x1 ADD SWAP1 PUSH2 0x7D2 JUMP JUMPDEST JUMPDEST POP SWAP1 POP PUSH2 0x7FB SWAP2 SWAP1 PUSH2 0x7FF JUMP JUMPDEST POP SWAP1 JUMP JUMPDEST JUMPDEST DUP1 DUP3 GT ISZERO PUSH2 0x818 JUMPI PUSH1 0x0 DUP2 PUSH1 0x0 SWAP1 SSTORE POP PUSH1 0x1 ADD PUSH2 0x800 JUMP JUMPDEST POP SWAP1 JUMP JUMPDEST PUSH1 0x0 DUP1 REVERT JUMPDEST PUSH1 0x0 DUP1 REVERT JUMPDEST PUSH1 0x0 DUP2 SWAP1 POP SWAP2 SWAP1 POP JUMP JUMPDEST PUSH2 0x839 DUP2 PUSH2 0x826 JUMP JUMPDEST DUP2 EQ PUSH2 0x844 JUMPI PUSH1 0x0 DUP1 REVERT JUMPDEST POP JUMP JUMPDEST PUSH1 0x0 DUP2 CALLDATALOAD SWAP1 POP PUSH2 0x856 DUP2 PUSH2 0x830 JUMP JUMPDEST SWAP3 SWAP2 POP POP JUMP JUMPDEST PUSH1 0x0 PUSH1 0x20 DUP3 DUP5 SUB SLT ISZERO PUSH2 0x872 JUMPI PUSH2 0x871 PUSH2 0x81C JUMP JUMPDEST JUMPDEST PUSH1 0x0 PUSH2 0x880 DUP5 DUP3 DUP6 ADD PUSH2 0x847 JUMP JUMPDEST SWAP2 POP POP SWAP3 SWAP2 POP POP JUMP JUMPDEST PUSH1 0x0 PUSH20 0xFFFFFFFFFFFFFFFFFFFFFFFFFFFFFFFFFFFFFFFF DUP3 AND SWAP1 POP SWAP2 SWAP1 POP JUMP JUMPDEST PUSH1 0x0 PUSH2 0x8B4 DUP3 PUSH2 0x889 JUMP JUMPDEST SWAP1 POP SWAP2 SWAP1 POP JUMP JUMPDEST PUSH2 0x8C4 DUP2 PUSH2 0x8A9 JUMP JUMPDEST DUP2 EQ PUSH2 0x8CF JUMPI PUSH1 0x0 DUP1 REVERT JUMPDEST POP JUMP JUMPDEST PUSH1 0x0 DUP2 CALLDATALOAD SWAP1 POP PUSH2 0x8E1 DUP2 PUSH2 0x8BB JUMP JUMPDEST SWAP3 SWAP2 POP POP JUMP JUMPDEST PUSH1 0x0 PUSH1 0x20 DUP3 DUP5 SUB SLT ISZERO PUSH2 0x8FD JUMPI PUSH2 0x8FC PUSH2 0x81C JUMP JUMPDEST JUMPDEST PUSH1 0x0 PUSH2 0x90B DUP5 DUP3 DUP6 ADD PUSH2 0x8D2 JUMP JUMPDEST SWAP2 POP POP SWAP3 SWAP2 POP POP JUMP JUMPDEST PUSH1 0x0 DUP2 ISZERO ISZERO SWAP1 POP SWAP2 SWAP1 POP JUMP JUMPDEST PUSH2 0x929 DUP2 PUSH2 0x914 JUMP JUMPDEST DUP3 MSTORE POP POP JUMP JUMPDEST PUSH1 0x0 PUSH1 0x20 DUP3 ADD SWAP1 POP PUSH2 0x944 PUSH1 0x0 DUP4 ADD DUP5 PUSH2 0x920 JUMP JUMPDEST SWAP3 SWAP2 POP POP JUMP JUMPDEST PUSH2 0x953 DUP2 PUSH2 0x8A9 JUMP JUMPDEST DUP3 MSTORE POP POP JUMP JUMPDEST PUSH1 0x0 PUSH1 0x20 DUP3 ADD SWAP1 POP PUSH2 0x96E PUSH1 0x0 DUP4 ADD DUP5 PUSH2 0x94A JUMP JUMPDEST SWAP3 SWAP2 POP POP JUMP JUMPDEST PUSH1 0x0 DUP2 MLOAD SWAP1 POP SWAP2 SWAP1 POP JUMP JUMPDEST PUSH1 0x0 DUP3 DUP3 MSTORE PUSH1 0x20 DUP3 ADD SWAP1 POP SWAP3 SWAP2 POP POP JUMP JUMPDEST PUSH1 0x0 JUMPDEST DUP4 DUP2 LT ISZERO PUSH2 0x9AE JUMPI DUP1 DUP3 ADD MLOAD DUP2 DUP5 ADD MSTORE PUSH1 0x20 DUP2 ADD SWAP1 POP PUSH2 0x993 JUMP JUMPDEST DUP4 DUP2 GT ISZERO PUSH2 0x9BD JUMPI PUSH1 0x0 DUP5 DUP5 ADD MSTORE JUMPDEST POP POP POP POP JUMP JUMPDEST PUSH1 0x0 PUSH1 0x1F NOT PUSH1 0x1F DUP4 ADD AND SWAP1 POP SWAP2 SWAP1 POP JUMP JUMPDEST PUSH1 0x0 PUSH2 0x9DF DUP3 PUSH2 0x974 JUMP JUMPDEST PUSH2 0x9E9 DUP2 DUP6 PUSH2 0x97F JUMP JUMPDEST SWAP4 POP PUSH2 0x9F9 DUP2 DUP6 PUSH1 0x20 DUP7 ADD PUSH2 0x990 JUMP JUMPDEST PUSH2 0xA02 DUP2 PUSH2 0x9C3 JUMP JUMPDEST DUP5 ADD SWAP2 POP POP SWAP3 SWAP2 POP POP JUMP JUMPDEST PUSH2 0xA16 DUP2 PUSH2 0x826 JUMP JUMPDEST DUP3 MSTORE POP POP JUMP JUMPDEST PUSH1 0x0 PUSH1 0xA0 DUP3 ADD SWAP1 POP DUP2 DUP2 SUB PUSH1 0x0 DUP4 ADD MSTORE PUSH2 0xA36 DUP2 DUP9 PUSH2 0x9D4 JUMP JUMPDEST SWAP1 POP PUSH2 0xA45 PUSH1 0x20 DUP4 ADD DUP8 PUSH2 0xA0D JUMP JUMPDEST PUSH2 0xA52 PUSH1 0x40 DUP4 ADD DUP7 PUSH2 0x920 JUMP JUMPDEST PUSH2 0xA5F PUSH1 0x60 DUP4 ADD DUP6 PUSH2 0xA0D JUMP JUMPDEST PUSH2 0xA6C PUSH1 0x80 DUP4 ADD DUP5 PUSH2 0x94A JUMP JUMPDEST SWAP7 SWAP6 POP POP POP POP POP POP JUMP JUMPDEST PUSH1 0x0 PUSH1 0x20 DUP3 ADD SWAP1 POP PUSH2 0xA8B PUSH1 0x0 DUP4 ADD DUP5 PUSH2 0xA0D JUMP JUMPDEST SWAP3 SWAP2 POP POP JUMP JUMPDEST PUSH1 0x0 DUP1 REVERT JUMPDEST PUSH1 0x0 DUP1 REVERT JUMPDEST PUSH1 0x0 DUP1 REVERT JUMPDEST PUSH1 0x0 DUP1 DUP4 PUSH1 0x1F DUP5 ADD SLT PUSH2 0xAB6 JUMPI PUSH2 0xAB5 PUSH2 0xA91 JUMP JUMPDEST JUMPDEST DUP3 CALLDATALOAD SWAP1 POP PUSH8 0xFFFFFFFFFFFFFFFF DUP2 GT ISZERO PUSH2 0xAD3 JUMPI PUSH2 0xAD2 PUSH2 0xA96 JUMP JUMPDEST JUMPDEST PUSH1 0x20 DUP4 ADD SWAP2 POP DUP4 PUSH1 0x1 DUP3 MUL DUP4 ADD GT ISZERO PUSH2 0xAEF JUMPI PUSH2 0xAEE PUSH2 0xA9B JUMP JUMPDEST JUMPDEST SWAP3 POP SWAP3 SWAP1 POP JUMP JUMPDEST PUSH1 0x0 DUP1 PUSH1 0x0 DUP1 PUSH1 0x60 DUP6 DUP8 SUB SLT ISZERO PUSH2 0xB10 JUMPI PUSH2 0xB0F PUSH2 0x81C JUMP JUMPDEST JUMPDEST PUSH1 0x0 DUP6 ADD CALLDATALOAD PUSH8 0xFFFFFFFFFFFFFFFF DUP2 GT ISZERO PUSH2 0xB2E JUMPI PUSH2 0xB2D PUSH2 0x821 JUMP JUMPDEST JUMPDEST PUSH2 0xB3A DUP8 DUP3 DUP9 ADD PUSH2 0xAA0 JUMP JUMPDEST SWAP5 POP SWAP5 POP POP PUSH1 0x20 PUSH2 0xB4D DUP8 DUP3 DUP9 ADD PUSH2 0x847 JUMP JUMPDEST SWAP3 POP POP PUSH1 0x40 PUSH2 0xB5E DUP8 DUP3 DUP9 ADD PUSH2 0x8D2 JUMP JUMPDEST SWAP2 POP POP SWAP3 SWAP6 SWAP2 SWAP5 POP SWAP3 POP JUMP JUMPDEST PUSH32 0x4E487B7100000000000000000000000000000000000000000000000000000000 PUSH1 0x0 MSTORE PUSH1 0x32 PUSH1 0x4 MSTORE PUSH1 0x24 PUSH1 0x0 REVERT JUMPDEST PUSH32 0x4E487B7100000000000000000000000000000000000000000000000000000000 PUSH1 0x0 MSTORE PUSH1 0x12 PUSH1 0x4 MSTORE PUSH1 0x24 PUSH1 0x0 REVERT JUMPDEST PUSH32 0x4E487B7100000000000000000000000000000000000000000000000000000000 PUSH1 0x0 MSTORE PUSH1 0x11 PUSH1 0x4 MSTORE PUSH1 0x24 PUSH1 0x0 REVERT JUMPDEST PUSH1 0x0 PUSH2 0xC02 DUP3 PUSH2 0x826 JUMP JUMPDEST SWAP2 POP PUSH2 0xC0D DUP4 PUSH2 0x826 JUMP JUMPDEST SWAP3 POP DUP3 PUSH2 0xC1D JUMPI PUSH2 0xC1C PUSH2 0xB99 JUMP JUMPDEST JUMPDEST DUP3 DUP3 DIV SWAP1 POP SWAP3 SWAP2 POP POP JUMP JUMPDEST PUSH32 0x4E487B7100000000000000000000000000000000000000000000000000000000 PUSH1 0x0 MSTORE PUSH1 0x22 PUSH1 0x4 MSTORE PUSH1 0x24 PUSH1 0x0 REVERT JUMPDEST PUSH1 0x0 PUSH1 0x2 DUP3 DIV SWAP1 POP PUSH1 0x1 DUP3 AND DUP1 PUSH2 0xC6F JUMPI PUSH1 0x7F DUP3 AND SWAP2 POP JUMPDEST PUSH1 0x20 DUP3 LT DUP2 EQ ISZERO PUSH2 0xC83 JUMPI PUSH2 0xC82 PUSH2 0xC28 JUMP JUMPDEST JUMPDEST POP SWAP2 SWAP1 POP JUMP JUMPDEST PUSH1 0x0 PUSH2 0xC94 DUP3 PUSH2 0x826 JUMP JUMPDEST SWAP2 POP PUSH32 0xFFFFFFFFFFFFFFFFFFFFFFFFFFFFFFFFFFFFFFFFFFFFFFFFFFFFFFFFFFFFFFFF DUP3 EQ ISZERO PUSH2 0xCC7 JUMPI PUSH2 0xCC6 PUSH2 0xBC8 JUMP JUMPDEST JUMPDEST PUSH1 0x1 DUP3 ADD SWAP1 POP SWAP2 SWAP1 POP JUMP INVALID LOG2 PUSH5 0x6970667358 0x22 SLT KECCAK256 DUP2 PUSH29 0x26AE8E4C93B0A6D8D7814CF107D6288F25C250DBB0F230BFE0B661D7D6 JUMPDEST PUSH5 0x736F6C6343 STOP ADDMOD MULMOD STOP CALLER LOG2 PUSH5 0x6970667358 0x22 SLT KECCAK256 SWAP2 0xF6 0xE8 CALLER BASEFEE SHR SAR PUSH21 0x580943C171B9A95FCD639AD2CED60D521F39948168 0xE9 SWAP6 0xF7 PUSH5 0x736F6C6343 STOP ADDMOD MULMOD STOP CALLER "},"gasEstimates":{"creation":{"codeDepositCost":"961400","executionCost":"1001","totalCost":"962401"},"external":{"allDeployedContracts(uint256)":"4956","createContract(uint256)":"infinite","getAllDeployedContract()":"infinite"}},"methodIdentifiers":{"allDeployedContracts(uint256)":"aa6d0a98","createContract(uint256)":"9db8d7d5","getAllDeployedContract()":"d6c83f4f"}},"storageLayout":{"storage":[{"astId":4,"contract":"Crowdfunding.sol:CrowdfundFactory","label":"allDeployedContracts","offset":0,"slot":"0","type":"t_array(t_address)dyn_storage"}],"types":{"t_address":{"encoding":"inplace","label":"address","numberOfBytes":"20"},"t_array(t_address)dyn_storage":{"base":"t_address","encoding":"dynamic_array","label":"address[]","numberOfBytes":"32"}}},"userdoc":{"kind":"user","methods":{},"version":1}}