{"abi":[{"inputs":[{"internalType":"uint256","name":"","type":"uint256"}],"name":"allDeployedContracts","outputs":[{"internalType":"address","name":"","type":"address"}],"stateMutability":"view","type":"function"},{"inputs":[{"internalType":"uint256","name":"minimum","type":"uint256"}],"name":"createContract","outputs":[],"stateMutability":"nonpayable","type":"function"},{"inputs":[],"name":"getAllDeployedContract","outputs":[{"internalType":"address[]","name":"","type":"address[]"}],"stateMutability":"view","type":"function"}],"devdoc":{"kind":"dev","methods":{},"version":1},"evm":{"assembly":"    /* \"Crowdfunding.sol\":25:420  contract CrowdfundFactory {... */\n  mstore(0x40, 0x80)\n  callvalue\n  dup1\n  iszero\n  tag_1\n  jumpi\n  0x00\n  dup1\n  revert\ntag_1:\n  pop\n  dataSize(sub_0)\n  dup1\n  dataOffset(sub_0)\n  0x00\n  codecopy\n  0x00\n  return\nstop\n\nsub_0: assembly {\n        /* \"Crowdfunding.sol\":25:420  contract CrowdfundFactory {... */\n      mstore(0x40, 0x80)\n      callvalue\n      dup1\n      iszero\n      tag_1\n      jumpi\n      0x00\n      dup1\n      revert\n    tag_1:\n      pop\n      jumpi(tag_2, lt(calldatasize, 0x04))\n      shr(0xe0, calldataload(0x00))\n      dup1\n      0x9db8d7d5\n      eq\n      tag_3\n      jumpi\n      dup1\n      0xaa6d0a98\n      eq\n      tag_4\n      jumpi\n      dup1\n      0xd6c83f4f\n      eq\n      tag_5\n      jumpi\n    tag_2:\n      0x00\n      dup1\n      revert\n        /* \"Crowdfunding.sol\":101:295  function createContract(uint minimum) public {... */\n    tag_3:\n      tag_6\n      0x04\n      dup1\n      calldatasize\n      sub\n      dup2\n      add\n      swap1\n      tag_7\n      swap2\n      swap1\n      tag_8\n      jump\t// in\n    tag_7:\n      tag_9\n      jump\t// in\n    tag_6:\n      stop\n        /* \"Crowdfunding.sol\":57:94  address[] public allDeployedContracts */\n    tag_4:\n      tag_10\n      0x04\n      dup1\n      calldatasize\n      sub\n      dup2\n      add\n      swap1\n      tag_11\n      swap2\n      swap1\n      tag_8\n      jump\t// in\n    tag_11:\n      tag_12\n      jump\t// in\n    tag_10:\n      mload(0x40)\n      tag_13\n      swap2\n      swap1\n      tag_14\n      jump\t// in\n    tag_13:\n      mload(0x40)\n      dup1\n      swap2\n      sub\n      swap1\n      return\n        /* \"Crowdfunding.sol\":301:418  function getAllDeployedContract() public view returns (address[] memory) {... */\n    tag_5:\n      tag_15\n      tag_16\n      jump\t// in\n    tag_15:\n      mload(0x40)\n      tag_17\n      swap2\n      swap1\n      tag_18\n      jump\t// in\n    tag_17:\n      mload(0x40)\n      dup1\n      swap2\n      sub\n      swap1\n      return\n        /* \"Crowdfunding.sol\":101:295  function createContract(uint minimum) public {... */\n    tag_9:\n        /* \"Crowdfunding.sol\":156:184  address newCrowdfundCampaign */\n      0x00\n        /* \"Crowdfunding.sol\":209:216  minimum */\n      dup2\n        /* \"Crowdfunding.sol\":218:228  msg.sender */\n      caller\n        /* \"Crowdfunding.sol\":195:229  new Crowdfund(minimum, msg.sender) */\n      mload(0x40)\n      tag_20\n      swap1\n      tag_21\n      jump\t// in\n    tag_20:\n      tag_22\n      swap3\n      swap2\n      swap1\n      tag_23\n      jump\t// in\n    tag_22:\n      mload(0x40)\n      dup1\n      swap2\n      sub\n      swap1\n      0x00\n      create\n      dup1\n      iszero\n      dup1\n      iszero\n      tag_24\n      jumpi\n      returndatasize\n      0x00\n      dup1\n      returndatacopy\n      revert(0x00, returndatasize)\n    tag_24:\n      pop\n        /* \"Crowdfunding.sol\":156:230  address newCrowdfundCampaign = address(new Crowdfund(minimum, msg.sender)) */\n      swap1\n      pop\n        /* \"Crowdfunding.sol\":241:261  allDeployedContracts */\n      0x00\n        /* \"Crowdfunding.sol\":267:287  newCrowdfundCampaign */\n      dup2\n        /* \"Crowdfunding.sol\":241:288  allDeployedContracts.push(newCrowdfundCampaign) */\n      swap1\n      dup1\n      0x01\n      dup2\n      sload\n      add\n      dup1\n      dup3\n      sstore\n      dup1\n      swap2\n      pop\n      pop\n      0x01\n      swap1\n      sub\n      swap1\n      0x00\n      mstore\n      keccak256(0x00, 0x20)\n      add\n      0x00\n      swap1\n      swap2\n      swap1\n      swap2\n      swap1\n      swap2\n      0x0100\n      exp\n      dup2\n      sload\n      dup2\n      0xffffffffffffffffffffffffffffffffffffffff\n      mul\n      not\n      and\n      swap1\n      dup4\n      0xffffffffffffffffffffffffffffffffffffffff\n      and\n      mul\n      or\n      swap1\n      sstore\n      pop\n        /* \"Crowdfunding.sol\":146:295  {... */\n      pop\n        /* \"Crowdfunding.sol\":101:295  function createContract(uint minimum) public {... */\n      pop\n      jump\t// out\n        /* \"Crowdfunding.sol\":57:94  address[] public allDeployedContracts */\n    tag_12:\n      0x00\n      dup2\n      dup2\n      sload\n      dup2\n      lt\n      tag_26\n      jumpi\n      0x00\n      dup1\n      revert\n    tag_26:\n      swap1\n      0x00\n      mstore\n      keccak256(0x00, 0x20)\n      add\n      0x00\n      swap2\n      pop\n      sload\n      swap1\n      0x0100\n      exp\n      swap1\n      div\n      0xffffffffffffffffffffffffffffffffffffffff\n      and\n      dup2\n      jump\t// out\n        /* \"Crowdfunding.sol\":301:418  function getAllDeployedContract() public view returns (address[] memory) {... */\n    tag_16:\n        /* \"Crowdfunding.sol\":356:372  address[] memory */\n      0x60\n        /* \"Crowdfunding.sol\":391:411  allDeployedContracts */\n      0x00\n        /* \"Crowdfunding.sol\":384:411  return allDeployedContracts */\n      dup1\n      sload\n      dup1\n      0x20\n      mul\n      0x20\n      add\n      mload(0x40)\n      swap1\n      dup2\n      add\n      0x40\n      mstore\n      dup1\n      swap3\n      swap2\n      swap1\n      dup2\n      dup2\n      mstore\n      0x20\n      add\n      dup3\n      dup1\n      sload\n      dup1\n      iszero\n      tag_29\n      jumpi\n      0x20\n      mul\n      dup3\n      add\n      swap2\n      swap1\n      0x00\n      mstore\n      keccak256(0x00, 0x20)\n      swap1\n    tag_30:\n      dup2\n      0x00\n      swap1\n      sload\n      swap1\n      0x0100\n      exp\n      swap1\n      div\n      0xffffffffffffffffffffffffffffffffffffffff\n      and\n      0xffffffffffffffffffffffffffffffffffffffff\n      and\n      dup2\n      mstore\n      0x20\n      add\n      swap1\n      0x01\n      add\n      swap1\n      dup1\n      dup4\n      gt\n      tag_30\n      jumpi\n    tag_29:\n      pop\n      pop\n      pop\n      pop\n      pop\n      swap1\n      pop\n        /* \"Crowdfunding.sol\":301:418  function getAllDeployedContract() public view returns (address[] memory) {... */\n      swap1\n      jump\t// out\n    tag_21:\n      dataSize(sub_0)\n      dup1\n      dataOffset(sub_0)\n      dup4\n      codecopy\n      add\n      swap1\n      jump\t// out\n        /* \"#utility.yul\":88:205   */\n    tag_32:\n        /* \"#utility.yul\":197:198   */\n      0x00\n        /* \"#utility.yul\":194:195   */\n      dup1\n        /* \"#utility.yul\":187:199   */\n      revert\n        /* \"#utility.yul\":334:411   */\n    tag_34:\n        /* \"#utility.yul\":371:378   */\n      0x00\n        /* \"#utility.yul\":400:405   */\n      dup2\n        /* \"#utility.yul\":389:405   */\n      swap1\n      pop\n        /* \"#utility.yul\":334:411   */\n      swap2\n      swap1\n      pop\n      jump\t// out\n        /* \"#utility.yul\":417:539   */\n    tag_35:\n        /* \"#utility.yul\":490:514   */\n      tag_54\n        /* \"#utility.yul\":508:513   */\n      dup2\n        /* \"#utility.yul\":490:514   */\n      tag_34\n      jump\t// in\n    tag_54:\n        /* \"#utility.yul\":483:488   */\n      dup2\n        /* \"#utility.yul\":480:515   */\n      eq\n        /* \"#utility.yul\":470:533   */\n      tag_55\n      jumpi\n        /* \"#utility.yul\":529:530   */\n      0x00\n        /* \"#utility.yul\":526:527   */\n      dup1\n        /* \"#utility.yul\":519:531   */\n      revert\n        /* \"#utility.yul\":470:533   */\n    tag_55:\n        /* \"#utility.yul\":417:539   */\n      pop\n      jump\t// out\n        /* \"#utility.yul\":545:684   */\n    tag_36:\n        /* \"#utility.yul\":591:596   */\n      0x00\n        /* \"#utility.yul\":629:635   */\n      dup2\n        /* \"#utility.yul\":616:636   */\n      calldataload\n        /* \"#utility.yul\":607:636   */\n      swap1\n      pop\n        /* \"#utility.yul\":645:678   */\n      tag_57\n        /* \"#utility.yul\":672:677   */\n      dup2\n        /* \"#utility.yul\":645:678   */\n      tag_35\n      jump\t// in\n    tag_57:\n        /* \"#utility.yul\":545:684   */\n      swap3\n      swap2\n      pop\n      pop\n      jump\t// out\n        /* \"#utility.yul\":690:1019   */\n    tag_8:\n        /* \"#utility.yul\":749:755   */\n      0x00\n        /* \"#utility.yul\":798:800   */\n      0x20\n        /* \"#utility.yul\":786:795   */\n      dup3\n        /* \"#utility.yul\":777:784   */\n      dup5\n        /* \"#utility.yul\":773:796   */\n      sub\n        /* \"#utility.yul\":769:801   */\n      slt\n        /* \"#utility.yul\":766:885   */\n      iszero\n      tag_59\n      jumpi\n        /* \"#utility.yul\":804:883   */\n      tag_60\n      tag_32\n      jump\t// in\n    tag_60:\n        /* \"#utility.yul\":766:885   */\n    tag_59:\n        /* \"#utility.yul\":924:925   */\n      0x00\n        /* \"#utility.yul\":949:1002   */\n      tag_61\n        /* \"#utility.yul\":994:1001   */\n      dup5\n        /* \"#utility.yul\":985:991   */\n      dup3\n        /* \"#utility.yul\":974:983   */\n      dup6\n        /* \"#utility.yul\":970:992   */\n      add\n        /* \"#utility.yul\":949:1002   */\n      tag_36\n      jump\t// in\n    tag_61:\n        /* \"#utility.yul\":939:1002   */\n      swap2\n      pop\n        /* \"#utility.yul\":895:1012   */\n      pop\n        /* \"#utility.yul\":690:1019   */\n      swap3\n      swap2\n      pop\n      pop\n      jump\t// out\n        /* \"#utility.yul\":1025:1151   */\n    tag_37:\n        /* \"#utility.yul\":1062:1069   */\n      0x00\n        /* \"#utility.yul\":1102:1144   */\n      0xffffffffffffffffffffffffffffffffffffffff\n        /* \"#utility.yul\":1095:1100   */\n      dup3\n        /* \"#utility.yul\":1091:1145   */\n      and\n        /* \"#utility.yul\":1080:1145   */\n      swap1\n      pop\n        /* \"#utility.yul\":1025:1151   */\n      swap2\n      swap1\n      pop\n      jump\t// out\n        /* \"#utility.yul\":1157:1253   */\n    tag_38:\n        /* \"#utility.yul\":1194:1201   */\n      0x00\n        /* \"#utility.yul\":1223:1247   */\n      tag_64\n        /* \"#utility.yul\":1241:1246   */\n      dup3\n        /* \"#utility.yul\":1223:1247   */\n      tag_37\n      jump\t// in\n    tag_64:\n        /* \"#utility.yul\":1212:1247   */\n      swap1\n      pop\n        /* \"#utility.yul\":1157:1253   */\n      swap2\n      swap1\n      pop\n      jump\t// out\n        /* \"#utility.yul\":1259:1377   */\n    tag_39:\n        /* \"#utility.yul\":1346:1370   */\n      tag_66\n        /* \"#utility.yul\":1364:1369   */\n      dup2\n        /* \"#utility.yul\":1346:1370   */\n      tag_38\n      jump\t// in\n    tag_66:\n        /* \"#utility.yul\":1341:1344   */\n      dup3\n        /* \"#utility.yul\":1334:1371   */\n      mstore\n        /* \"#utility.yul\":1259:1377   */\n      pop\n      pop\n      jump\t// out\n        /* \"#utility.yul\":1383:1605   */\n    tag_14:\n        /* \"#utility.yul\":1476:1480   */\n      0x00\n        /* \"#utility.yul\":1514:1516   */\n      0x20\n        /* \"#utility.yul\":1503:1512   */\n      dup3\n        /* \"#utility.yul\":1499:1517   */\n      add\n        /* \"#utility.yul\":1491:1517   */\n      swap1\n      pop\n        /* \"#utility.yul\":1527:1598   */\n      tag_68\n        /* \"#utility.yul\":1595:1596   */\n      0x00\n        /* \"#utility.yul\":1584:1593   */\n      dup4\n        /* \"#utility.yul\":1580:1597   */\n      add\n        /* \"#utility.yul\":1571:1577   */\n      dup5\n        /* \"#utility.yul\":1527:1598   */\n      tag_39\n      jump\t// in\n    tag_68:\n        /* \"#utility.yul\":1383:1605   */\n      swap3\n      swap2\n      pop\n      pop\n      jump\t// out\n        /* \"#utility.yul\":1611:1725   */\n    tag_40:\n        /* \"#utility.yul\":1678:1684   */\n      0x00\n        /* \"#utility.yul\":1712:1717   */\n      dup2\n        /* \"#utility.yul\":1706:1718   */\n      mload\n        /* \"#utility.yul\":1696:1718   */\n      swap1\n      pop\n        /* \"#utility.yul\":1611:1725   */\n      swap2\n      swap1\n      pop\n      jump\t// out\n        /* \"#utility.yul\":1731:1915   */\n    tag_41:\n        /* \"#utility.yul\":1830:1841   */\n      0x00\n        /* \"#utility.yul\":1864:1870   */\n      dup3\n        /* \"#utility.yul\":1859:1862   */\n      dup3\n        /* \"#utility.yul\":1852:1871   */\n      mstore\n        /* \"#utility.yul\":1904:1908   */\n      0x20\n        /* \"#utility.yul\":1899:1902   */\n      dup3\n        /* \"#utility.yul\":1895:1909   */\n      add\n        /* \"#utility.yul\":1880:1909   */\n      swap1\n      pop\n        /* \"#utility.yul\":1731:1915   */\n      swap3\n      swap2\n      pop\n      pop\n      jump\t// out\n        /* \"#utility.yul\":1921:2053   */\n    tag_42:\n        /* \"#utility.yul\":1988:1992   */\n      0x00\n        /* \"#utility.yul\":2011:2014   */\n      dup2\n        /* \"#utility.yul\":2003:2014   */\n      swap1\n      pop\n        /* \"#utility.yul\":2041:2045   */\n      0x20\n        /* \"#utility.yul\":2036:2039   */\n      dup3\n        /* \"#utility.yul\":2032:2046   */\n      add\n        /* \"#utility.yul\":2024:2046   */\n      swap1\n      pop\n        /* \"#utility.yul\":1921:2053   */\n      swap2\n      swap1\n      pop\n      jump\t// out\n        /* \"#utility.yul\":2059:2167   */\n    tag_43:\n        /* \"#utility.yul\":2136:2160   */\n      tag_73\n        /* \"#utility.yul\":2154:2159   */\n      dup2\n        /* \"#utility.yul\":2136:2160   */\n      tag_38\n      jump\t// in\n    tag_73:\n        /* \"#utility.yul\":2131:2134   */\n      dup3\n        /* \"#utility.yul\":2124:2161   */\n      mstore\n        /* \"#utility.yul\":2059:2167   */\n      pop\n      pop\n      jump\t// out\n        /* \"#utility.yul\":2173:2352   */\n    tag_44:\n        /* \"#utility.yul\":2242:2252   */\n      0x00\n        /* \"#utility.yul\":2263:2309   */\n      tag_75\n        /* \"#utility.yul\":2305:2308   */\n      dup4\n        /* \"#utility.yul\":2297:2303   */\n      dup4\n        /* \"#utility.yul\":2263:2309   */\n      tag_43\n      jump\t// in\n    tag_75:\n        /* \"#utility.yul\":2341:2345   */\n      0x20\n        /* \"#utility.yul\":2336:2339   */\n      dup4\n        /* \"#utility.yul\":2332:2346   */\n      add\n        /* \"#utility.yul\":2318:2346   */\n      swap1\n      pop\n        /* \"#utility.yul\":2173:2352   */\n      swap3\n      swap2\n      pop\n      pop\n      jump\t// out\n        /* \"#utility.yul\":2358:2471   */\n    tag_45:\n        /* \"#utility.yul\":2428:2432   */\n      0x00\n        /* \"#utility.yul\":2460:2464   */\n      0x20\n        /* \"#utility.yul\":2455:2458   */\n      dup3\n        /* \"#utility.yul\":2451:2465   */\n      add\n        /* \"#utility.yul\":2443:2465   */\n      swap1\n      pop\n        /* \"#utility.yul\":2358:2471   */\n      swap2\n      swap1\n      pop\n      jump\t// out\n        /* \"#utility.yul\":2507:3239   */\n    tag_46:\n        /* \"#utility.yul\":2626:2629   */\n      0x00\n        /* \"#utility.yul\":2655:2709   */\n      tag_78\n        /* \"#utility.yul\":2703:2708   */\n      dup3\n        /* \"#utility.yul\":2655:2709   */\n      tag_40\n      jump\t// in\n    tag_78:\n        /* \"#utility.yul\":2725:2811   */\n      tag_79\n        /* \"#utility.yul\":2804:2810   */\n      dup2\n        /* \"#utility.yul\":2799:2802   */\n      dup6\n        /* \"#utility.yul\":2725:2811   */\n      tag_41\n      jump\t// in\n    tag_79:\n        /* \"#utility.yul\":2718:2811   */\n      swap4\n      pop\n        /* \"#utility.yul\":2835:2891   */\n      tag_80\n        /* \"#utility.yul\":2885:2890   */\n      dup4\n        /* \"#utility.yul\":2835:2891   */\n      tag_42\n      jump\t// in\n    tag_80:\n        /* \"#utility.yul\":2914:2921   */\n      dup1\n        /* \"#utility.yul\":2945:2946   */\n      0x00\n        /* \"#utility.yul\":2930:3214   */\n    tag_81:\n        /* \"#utility.yul\":2955:2961   */\n      dup4\n        /* \"#utility.yul\":2952:2953   */\n      dup2\n        /* \"#utility.yul\":2949:2962   */\n      lt\n        /* \"#utility.yul\":2930:3214   */\n      iszero\n      tag_83\n      jumpi\n        /* \"#utility.yul\":3031:3037   */\n      dup2\n        /* \"#utility.yul\":3025:3038   */\n      mload\n        /* \"#utility.yul\":3058:3121   */\n      tag_84\n        /* \"#utility.yul\":3117:3120   */\n      dup9\n        /* \"#utility.yul\":3102:3115   */\n      dup3\n        /* \"#utility.yul\":3058:3121   */\n      tag_44\n      jump\t// in\n    tag_84:\n        /* \"#utility.yul\":3051:3121   */\n      swap8\n      pop\n        /* \"#utility.yul\":3144:3204   */\n      tag_85\n        /* \"#utility.yul\":3197:3203   */\n      dup4\n        /* \"#utility.yul\":3144:3204   */\n      tag_45\n      jump\t// in\n    tag_85:\n        /* \"#utility.yul\":3134:3204   */\n      swap3\n      pop\n        /* \"#utility.yul\":2990:3214   */\n      pop\n        /* \"#utility.yul\":2977:2978   */\n      0x01\n        /* \"#utility.yul\":2974:2975   */\n      dup2\n        /* \"#utility.yul\":2970:2979   */\n      add\n        /* \"#utility.yul\":2965:2979   */\n      swap1\n      pop\n        /* \"#utility.yul\":2930:3214   */\n      jump(tag_81)\n    tag_83:\n        /* \"#utility.yul\":2934:2948   */\n      pop\n        /* \"#utility.yul\":3230:3233   */\n      dup6\n        /* \"#utility.yul\":3223:3233   */\n      swap4\n      pop\n        /* \"#utility.yul\":2631:3239   */\n      pop\n      pop\n      pop\n        /* \"#utility.yul\":2507:3239   */\n      swap3\n      swap2\n      pop\n      pop\n      jump\t// out\n        /* \"#utility.yul\":3245:3618   */\n    tag_18:\n        /* \"#utility.yul\":3388:3392   */\n      0x00\n        /* \"#utility.yul\":3426:3428   */\n      0x20\n        /* \"#utility.yul\":3415:3424   */\n      dup3\n        /* \"#utility.yul\":3411:3429   */\n      add\n        /* \"#utility.yul\":3403:3429   */\n      swap1\n      pop\n        /* \"#utility.yul\":3475:3484   */\n      dup2\n        /* \"#utility.yul\":3469:3473   */\n      dup2\n        /* \"#utility.yul\":3465:3485   */\n      sub\n        /* \"#utility.yul\":3461:3462   */\n      0x00\n        /* \"#utility.yul\":3450:3459   */\n      dup4\n        /* \"#utility.yul\":3446:3463   */\n      add\n        /* \"#utility.yul\":3439:3486   */\n      mstore\n        /* \"#utility.yul\":3503:3611   */\n      tag_87\n        /* \"#utility.yul\":3606:3610   */\n      dup2\n        /* \"#utility.yul\":3597:3603   */\n      dup5\n        /* \"#utility.yul\":3503:3611   */\n      tag_46\n      jump\t// in\n    tag_87:\n        /* \"#utility.yul\":3495:3611   */\n      swap1\n      pop\n        /* \"#utility.yul\":3245:3618   */\n      swap3\n      swap2\n      pop\n      pop\n      jump\t// out\n        /* \"#utility.yul\":3624:3742   */\n    tag_47:\n        /* \"#utility.yul\":3711:3735   */\n      tag_89\n        /* \"#utility.yul\":3729:3734   */\n      dup2\n        /* \"#utility.yul\":3711:3735   */\n      tag_34\n      jump\t// in\n    tag_89:\n        /* \"#utility.yul\":3706:3709   */\n      dup3\n        /* \"#utility.yul\":3699:3736   */\n      mstore\n        /* \"#utility.yul\":3624:3742   */\n      pop\n      pop\n      jump\t// out\n        /* \"#utility.yul\":3748:4080   */\n    tag_23:\n        /* \"#utility.yul\":3869:3873   */\n      0x00\n        /* \"#utility.yul\":3907:3909   */\n      0x40\n        /* \"#utility.yul\":3896:3905   */\n      dup3\n        /* \"#utility.yul\":3892:3910   */\n      add\n        /* \"#utility.yul\":3884:3910   */\n      swap1\n      pop\n        /* \"#utility.yul\":3920:3991   */\n      tag_91\n        /* \"#utility.yul\":3988:3989   */\n      0x00\n        /* \"#utility.yul\":3977:3986   */\n      dup4\n        /* \"#utility.yul\":3973:3990   */\n      add\n        /* \"#utility.yul\":3964:3970   */\n      dup6\n        /* \"#utility.yul\":3920:3991   */\n      tag_47\n      jump\t// in\n    tag_91:\n        /* \"#utility.yul\":4001:4073   */\n      tag_92\n        /* \"#utility.yul\":4069:4071   */\n      0x20\n        /* \"#utility.yul\":4058:4067   */\n      dup4\n        /* \"#utility.yul\":4054:4072   */\n      add\n        /* \"#utility.yul\":4045:4051   */\n      dup5\n        /* \"#utility.yul\":4001:4073   */\n      tag_39\n      jump\t// in\n    tag_92:\n        /* \"#utility.yul\":3748:4080   */\n      swap4\n      swap3\n      pop\n      pop\n      pop\n      jump\t// out\n    stop\n\n    sub_0: assembly {\n            /* \"Crowdfunding.sol\":422:3044  contract Crowdfund {... */\n          mstore(0x40, 0x80)\n            /* \"Crowdfunding.sol\":826:941  constructor(uint minimum, address creator){... */\n          callvalue\n          dup1\n          iszero\n          tag_1\n          jumpi\n          0x00\n          dup1\n          revert\n        tag_1:\n          pop\n          mload(0x40)\n          sub(codesize, bytecodeSize)\n          dup1\n          bytecodeSize\n          dup4\n          codecopy\n          dup2\n          dup2\n          add\n          0x40\n          mstore\n          dup2\n          add\n          swap1\n          tag_2\n          swap2\n          swap1\n          tag_3\n          jump\t// in\n        tag_2:\n            /* \"Crowdfunding.sol\":900:907  minimum */\n          dup2\n            /* \"Crowdfunding.sol\":878:897  minimumContribution */\n          0x01\n            /* \"Crowdfunding.sol\":878:907  minimumContribution = minimum */\n          dup2\n          swap1\n          sstore\n          pop\n            /* \"Crowdfunding.sol\":927:934  creator */\n          dup1\n            /* \"Crowdfunding.sol\":917:924  manager */\n          0x00\n          dup1\n            /* \"Crowdfunding.sol\":917:934  manager = creator */\n          0x0100\n          exp\n          dup2\n          sload\n          dup2\n          0xffffffffffffffffffffffffffffffffffffffff\n          mul\n          not\n          and\n          swap1\n          dup4\n          0xffffffffffffffffffffffffffffffffffffffff\n          and\n          mul\n          or\n          swap1\n          sstore\n          pop\n            /* \"Crowdfunding.sol\":826:941  constructor(uint minimum, address creator){... */\n          pop\n          pop\n            /* \"Crowdfunding.sol\":422:3044  contract Crowdfund {... */\n          jump(tag_6)\n            /* \"#utility.yul\":88:205   */\n        tag_8:\n            /* \"#utility.yul\":197:198   */\n          0x00\n            /* \"#utility.yul\":194:195   */\n          dup1\n            /* \"#utility.yul\":187:199   */\n          revert\n            /* \"#utility.yul\":334:411   */\n        tag_10:\n            /* \"#utility.yul\":371:378   */\n          0x00\n            /* \"#utility.yul\":400:405   */\n          dup2\n            /* \"#utility.yul\":389:405   */\n          swap1\n          pop\n            /* \"#utility.yul\":334:411   */\n          swap2\n          swap1\n          pop\n          jump\t// out\n            /* \"#utility.yul\":417:539   */\n        tag_11:\n            /* \"#utility.yul\":490:514   */\n          tag_23\n            /* \"#utility.yul\":508:513   */\n          dup2\n            /* \"#utility.yul\":490:514   */\n          tag_10\n          jump\t// in\n        tag_23:\n            /* \"#utility.yul\":483:488   */\n          dup2\n            /* \"#utility.yul\":480:515   */\n          eq\n            /* \"#utility.yul\":470:533   */\n          tag_24\n          jumpi\n            /* \"#utility.yul\":529:530   */\n          0x00\n            /* \"#utility.yul\":526:527   */\n          dup1\n            /* \"#utility.yul\":519:531   */\n          revert\n            /* \"#utility.yul\":470:533   */\n        tag_24:\n            /* \"#utility.yul\":417:539   */\n          pop\n          jump\t// out\n            /* \"#utility.yul\":545:688   */\n        tag_12:\n            /* \"#utility.yul\":602:607   */\n          0x00\n            /* \"#utility.yul\":633:639   */\n          dup2\n            /* \"#utility.yul\":627:640   */\n          mload\n            /* \"#utility.yul\":618:640   */\n          swap1\n          pop\n            /* \"#utility.yul\":649:682   */\n          tag_26\n            /* \"#utility.yul\":676:681   */\n          dup2\n            /* \"#utility.yul\":649:682   */\n          tag_11\n          jump\t// in\n        tag_26:\n            /* \"#utility.yul\":545:688   */\n          swap3\n          swap2\n          pop\n          pop\n          jump\t// out\n            /* \"#utility.yul\":694:820   */\n        tag_13:\n            /* \"#utility.yul\":731:738   */\n          0x00\n            /* \"#utility.yul\":771:813   */\n          0xffffffffffffffffffffffffffffffffffffffff\n            /* \"#utility.yul\":764:769   */\n          dup3\n            /* \"#utility.yul\":760:814   */\n          and\n            /* \"#utility.yul\":749:814   */\n          swap1\n          pop\n            /* \"#utility.yul\":694:820   */\n          swap2\n          swap1\n          pop\n          jump\t// out\n            /* \"#utility.yul\":826:922   */\n        tag_14:\n            /* \"#utility.yul\":863:870   */\n          0x00\n            /* \"#utility.yul\":892:916   */\n          tag_29\n            /* \"#utility.yul\":910:915   */\n          dup3\n            /* \"#utility.yul\":892:916   */\n          tag_13\n          jump\t// in\n        tag_29:\n            /* \"#utility.yul\":881:916   */\n          swap1\n          pop\n            /* \"#utility.yul\":826:922   */\n          swap2\n          swap1\n          pop\n          jump\t// out\n            /* \"#utility.yul\":928:1050   */\n        tag_15:\n            /* \"#utility.yul\":1001:1025   */\n          tag_31\n            /* \"#utility.yul\":1019:1024   */\n          dup2\n            /* \"#utility.yul\":1001:1025   */\n          tag_14\n          jump\t// in\n        tag_31:\n            /* \"#utility.yul\":994:999   */\n          dup2\n            /* \"#utility.yul\":991:1026   */\n          eq\n            /* \"#utility.yul\":981:1044   */\n          tag_32\n          jumpi\n            /* \"#utility.yul\":1040:1041   */\n          0x00\n            /* \"#utility.yul\":1037:1038   */\n          dup1\n            /* \"#utility.yul\":1030:1042   */\n          revert\n            /* \"#utility.yul\":981:1044   */\n        tag_32:\n            /* \"#utility.yul\":928:1050   */\n          pop\n          jump\t// out\n            /* \"#utility.yul\":1056:1199   */\n        tag_16:\n            /* \"#utility.yul\":1113:1118   */\n          0x00\n            /* \"#utility.yul\":1144:1150   */\n          dup2\n            /* \"#utility.yul\":1138:1151   */\n          mload\n            /* \"#utility.yul\":1129:1151   */\n          swap1\n          pop\n            /* \"#utility.yul\":1160:1193   */\n          tag_34\n            /* \"#utility.yul\":1187:1192   */\n          dup2\n            /* \"#utility.yul\":1160:1193   */\n          tag_15\n          jump\t// in\n        tag_34:\n            /* \"#utility.yul\":1056:1199   */\n          swap3\n          swap2\n          pop\n          pop\n          jump\t// out\n            /* \"#utility.yul\":1205:1712   */\n        tag_3:\n            /* \"#utility.yul\":1284:1290   */\n          0x00\n            /* \"#utility.yul\":1292:1298   */\n          dup1\n            /* \"#utility.yul\":1341:1343   */\n          0x40\n            /* \"#utility.yul\":1329:1338   */\n          dup4\n            /* \"#utility.yul\":1320:1327   */\n          dup6\n            /* \"#utility.yul\":1316:1339   */\n          sub\n            /* \"#utility.yul\":1312:1344   */\n          slt\n            /* \"#utility.yul\":1309:1428   */\n          iszero\n          tag_36\n          jumpi\n            /* \"#utility.yul\":1347:1426   */\n          tag_37\n          tag_8\n          jump\t// in\n        tag_37:\n            /* \"#utility.yul\":1309:1428   */\n        tag_36:\n            /* \"#utility.yul\":1467:1468   */\n          0x00\n            /* \"#utility.yul\":1492:1556   */\n          tag_38\n            /* \"#utility.yul\":1548:1555   */\n          dup6\n            /* \"#utility.yul\":1539:1545   */\n          dup3\n            /* \"#utility.yul\":1528:1537   */\n          dup7\n            /* \"#utility.yul\":1524:1546   */\n          add\n            /* \"#utility.yul\":1492:1556   */\n          tag_12\n          jump\t// in\n        tag_38:\n            /* \"#utility.yul\":1482:1556   */\n          swap3\n          pop\n            /* \"#utility.yul\":1438:1566   */\n          pop\n            /* \"#utility.yul\":1605:1607   */\n          0x20\n            /* \"#utility.yul\":1631:1695   */\n          tag_39\n            /* \"#utility.yul\":1687:1694   */\n          dup6\n            /* \"#utility.yul\":1678:1684   */\n          dup3\n            /* \"#utility.yul\":1667:1676   */\n          dup7\n            /* \"#utility.yul\":1663:1685   */\n          add\n            /* \"#utility.yul\":1631:1695   */\n          tag_16\n          jump\t// in\n        tag_39:\n            /* \"#utility.yul\":1621:1695   */\n          swap2\n          pop\n            /* \"#utility.yul\":1576:1705   */\n          pop\n            /* \"#utility.yul\":1205:1712   */\n          swap3\n          pop\n          swap3\n          swap1\n          pop\n          jump\t// out\n            /* \"Crowdfunding.sol\":422:3044  contract Crowdfund {... */\n        tag_6:\n          dataSize(sub_0)\n          dup1\n          dataOffset(sub_0)\n          0x00\n          codecopy\n          0x00\n          return\n        stop\n\n        sub_0: assembly {\n                /* \"Crowdfunding.sol\":422:3044  contract Crowdfund {... */\n              mstore(0x40, 0x80)\n              jumpi(tag_1, lt(calldatasize, 0x04))\n              shr(0xe0, calldataload(0x00))\n              dup1\n              0x81d12c58\n              gt\n              tag_13\n              jumpi\n              dup1\n              0x81d12c58\n              eq\n              tag_7\n              jumpi\n              dup1\n              0x82fde093\n              eq\n              tag_8\n              jumpi\n              dup1\n              0x8a9cfd55\n              eq\n              tag_9\n              jumpi\n              dup1\n              0x937e09b1\n              eq\n              tag_10\n              jumpi\n              dup1\n              0xd7bb99ba\n              eq\n              tag_11\n              jumpi\n              dup1\n              0xd7d1bbdb\n              eq\n              tag_12\n              jumpi\n              jump(tag_1)\n            tag_13:\n              dup1\n              0x03441006\n              eq\n              tag_2\n              jumpi\n              dup1\n              0x0a144391\n              eq\n              tag_3\n              jumpi\n              dup1\n              0x3410452a\n              eq\n              tag_4\n              jumpi\n              dup1\n              0x4051ddac\n              eq\n              tag_5\n              jumpi\n              dup1\n              0x481c6a75\n              eq\n              tag_6\n              jumpi\n            tag_1:\n              0x00\n              dup1\n              revert\n                /* \"Crowdfunding.sol\":2215:2680  function finalizeRequest(uint index) public restricted{... */\n            tag_2:\n              callvalue\n              dup1\n              iszero\n              tag_14\n              jumpi\n              0x00\n              dup1\n              revert\n            tag_14:\n              pop\n              tag_15\n              0x04\n              dup1\n              calldatasize\n              sub\n              dup2\n              add\n              swap1\n              tag_16\n              swap2\n              swap1\n              tag_17\n              jump\t// in\n            tag_16:\n              tag_18\n              jump\t// in\n            tag_15:\n              stop\n                /* \"Crowdfunding.sol\":715:756  mapping(address => bool) public approvers */\n            tag_3:\n              callvalue\n              dup1\n              iszero\n              tag_19\n              jumpi\n              0x00\n              dup1\n              revert\n            tag_19:\n              pop\n              tag_20\n              0x04\n              dup1\n              calldatasize\n              sub\n              dup2\n              add\n              swap1\n              tag_21\n              swap2\n              swap1\n              tag_22\n              jump\t// in\n            tag_21:\n              tag_23\n              jump\t// in\n            tag_20:\n              mload(0x40)\n              tag_24\n              swap2\n              swap1\n              tag_25\n              jump\t// in\n            tag_24:\n              mload(0x40)\n              dup1\n              swap2\n              sub\n              swap1\n              return\n                /* \"Crowdfunding.sol\":2947:3041  function getRequestsCount() public view returns (uint) {... */\n            tag_4:\n              callvalue\n              dup1\n              iszero\n              tag_26\n              jumpi\n              0x00\n              dup1\n              revert\n            tag_26:\n              pop\n              tag_27\n              tag_28\n              jump\t// in\n            tag_27:\n              mload(0x40)\n              tag_29\n              swap2\n              swap1\n              tag_30\n              jump\t// in\n            tag_29:\n              mload(0x40)\n              dup1\n              swap2\n              sub\n              swap1\n              return\n                /* \"Crowdfunding.sol\":2686:2941  function getSummary() public view returns(address, uint, uint, uint, uint) {... */\n            tag_5:\n              callvalue\n              dup1\n              iszero\n              tag_31\n              jumpi\n              0x00\n              dup1\n              revert\n            tag_31:\n              pop\n              tag_32\n              tag_33\n              jump\t// in\n            tag_32:\n              mload(0x40)\n              tag_34\n              swap6\n              swap5\n              swap4\n              swap3\n              swap2\n              swap1\n              tag_35\n              jump\t// in\n            tag_34:\n              mload(0x40)\n              dup1\n              swap2\n              sub\n              swap1\n              return\n                /* \"Crowdfunding.sol\":650:672  address public manager */\n            tag_6:\n              callvalue\n              dup1\n              iszero\n              tag_36\n              jumpi\n              0x00\n              dup1\n              revert\n            tag_36:\n              pop\n              tag_37\n              tag_38\n              jump\t// in\n            tag_37:\n              mload(0x40)\n              tag_39\n              swap2\n              swap1\n              tag_40\n              jump\t// in\n            tag_39:\n              mload(0x40)\n              dup1\n              swap2\n              sub\n              swap1\n              return\n                /* \"Crowdfunding.sol\":794:819  Request[] public requests */\n            tag_7:\n              callvalue\n              dup1\n              iszero\n              tag_41\n              jumpi\n              0x00\n              dup1\n              revert\n            tag_41:\n              pop\n              tag_42\n              0x04\n              dup1\n              calldatasize\n              sub\n              dup2\n              add\n              swap1\n              tag_43\n              swap2\n              swap1\n              tag_17\n              jump\t// in\n            tag_43:\n              tag_44\n              jump\t// in\n            tag_42:\n              mload(0x40)\n              tag_45\n              swap6\n              swap5\n              swap4\n              swap3\n              swap2\n              swap1\n              tag_46\n              jump\t// in\n            tag_45:\n              mload(0x40)\n              dup1\n              swap2\n              sub\n              swap1\n              return\n                /* \"Crowdfunding.sol\":762:788  uint public approversCount */\n            tag_8:\n              callvalue\n              dup1\n              iszero\n              tag_47\n              jumpi\n              0x00\n              dup1\n              revert\n            tag_47:\n              pop\n              tag_48\n              tag_49\n              jump\t// in\n            tag_48:\n              mload(0x40)\n              tag_50\n              swap2\n              swap1\n              tag_30\n              jump\t// in\n            tag_50:\n              mload(0x40)\n              dup1\n              swap2\n              sub\n              swap1\n              return\n                /* \"Crowdfunding.sol\":1201:1841  function createRequest(string calldata _description, uint _value, address _recipient) public restricted{... */\n            tag_9:\n              callvalue\n              dup1\n              iszero\n              tag_51\n              jumpi\n              0x00\n              dup1\n              revert\n            tag_51:\n              pop\n              tag_52\n              0x04\n              dup1\n              calldatasize\n              sub\n              dup2\n              add\n              swap1\n              tag_53\n              swap2\n              swap1\n              tag_54\n              jump\t// in\n            tag_53:\n              tag_55\n              jump\t// in\n            tag_52:\n              stop\n                /* \"Crowdfunding.sol\":678:709  uint public minimumContribution */\n            tag_10:\n              callvalue\n              dup1\n              iszero\n              tag_56\n              jumpi\n              0x00\n              dup1\n              revert\n            tag_56:\n              pop\n              tag_57\n              tag_58\n              jump\t// in\n            tag_57:\n              mload(0x40)\n              tag_59\n              swap2\n              swap1\n              tag_30\n              jump\t// in\n            tag_59:\n              mload(0x40)\n              dup1\n              swap2\n              sub\n              swap1\n              return\n                /* \"Crowdfunding.sol\":1037:1195  function contribute() public payable {... */\n            tag_11:\n              tag_60\n              tag_61\n              jump\t// in\n            tag_60:\n              stop\n                /* \"Crowdfunding.sol\":1847:2209  function approveRequest(uint index) public {... */\n            tag_12:\n              callvalue\n              dup1\n              iszero\n              tag_62\n              jumpi\n              0x00\n              dup1\n              revert\n            tag_62:\n              pop\n              tag_63\n              0x04\n              dup1\n              calldatasize\n              sub\n              dup2\n              add\n              swap1\n              tag_64\n              swap2\n              swap1\n              tag_17\n              jump\t// in\n            tag_64:\n              tag_65\n              jump\t// in\n            tag_63:\n              stop\n                /* \"Crowdfunding.sol\":2215:2680  function finalizeRequest(uint index) public restricted{... */\n            tag_18:\n                /* \"Crowdfunding.sol\":1001:1008  manager */\n              0x00\n              dup1\n              sload\n              swap1\n              0x0100\n              exp\n              swap1\n              div\n              0xffffffffffffffffffffffffffffffffffffffff\n              and\n                /* \"Crowdfunding.sol\":987:1008  msg.sender == manager */\n              0xffffffffffffffffffffffffffffffffffffffff\n              and\n                /* \"Crowdfunding.sol\":987:997  msg.sender */\n              caller\n                /* \"Crowdfunding.sol\":987:1008  msg.sender == manager */\n              0xffffffffffffffffffffffffffffffffffffffff\n              and\n              eq\n                /* \"Crowdfunding.sol\":979:1009  require(msg.sender == manager) */\n              tag_67\n              jumpi\n              0x00\n              dup1\n              revert\n            tag_67:\n                /* \"Crowdfunding.sol\":2279:2302  Request storage request */\n              0x00\n                /* \"Crowdfunding.sol\":2305:2313  requests */\n              0x04\n                /* \"Crowdfunding.sol\":2314:2319  index */\n              dup3\n                /* \"Crowdfunding.sol\":2305:2320  requests[index] */\n              dup2\n              sload\n              dup2\n              lt\n              tag_69\n              jumpi\n              tag_70\n              tag_71\n              jump\t// in\n            tag_70:\n            tag_69:\n              swap1\n              0x00\n              mstore\n              keccak256(0x00, 0x20)\n              swap1\n              0x06\n              mul\n              add\n                /* \"Crowdfunding.sol\":2279:2320  Request storage request = requests[index] */\n              swap1\n              pop\n                /* \"Crowdfunding.sol\":2389:2396  request */\n              dup1\n                /* \"Crowdfunding.sol\":2389:2405  request.complete */\n              0x02\n              add\n              0x00\n              swap1\n              sload\n              swap1\n              0x0100\n              exp\n              swap1\n              div\n              0xff\n              and\n                /* \"Crowdfunding.sol\":2388:2405  !request.complete */\n              iszero\n                /* \"Crowdfunding.sol\":2380:2406  require(!request.complete) */\n              tag_73\n              jumpi\n              0x00\n              dup1\n              revert\n            tag_73:\n                /* \"Crowdfunding.sol\":2543:2544  2 */\n              0x02\n                /* \"Crowdfunding.sol\":2526:2540  approversCount */\n              sload(0x03)\n                /* \"Crowdfunding.sol\":2526:2544  approversCount / 2 */\n              tag_74\n              swap2\n              swap1\n              tag_75\n              jump\t// in\n            tag_74:\n                /* \"Crowdfunding.sol\":2501:2508  request */\n              dup2\n                /* \"Crowdfunding.sol\":2501:2522  request.approvalCount */\n              0x03\n              add\n              sload\n                /* \"Crowdfunding.sol\":2501:2545  request.approvalCount > (approversCount / 2) */\n              gt\n                /* \"Crowdfunding.sol\":2493:2546  require(request.approvalCount > (approversCount / 2)) */\n              tag_76\n              jumpi\n              0x00\n              dup1\n              revert\n            tag_76:\n                /* \"Crowdfunding.sol\":2598:2605  request */\n              dup1\n                /* \"Crowdfunding.sol\":2598:2615  request.recipient */\n              0x04\n              add\n              0x00\n              swap1\n              sload\n              swap1\n              0x0100\n              exp\n              swap1\n              div\n              0xffffffffffffffffffffffffffffffffffffffff\n              and\n                /* \"Crowdfunding.sol\":2590:2625  payable(request.recipient).transfer */\n              0xffffffffffffffffffffffffffffffffffffffff\n              and\n                /* \"Crowdfunding.sol\":2590:2640  payable(request.recipient).transfer(request.value) */\n              0x08fc\n                /* \"Crowdfunding.sol\":2626:2633  request */\n              dup3\n                /* \"Crowdfunding.sol\":2626:2639  request.value */\n              0x01\n              add\n              sload\n                /* \"Crowdfunding.sol\":2590:2640  payable(request.recipient).transfer(request.value) */\n              swap1\n              dup2\n              iszero\n              mul\n              swap1\n              mload(0x40)\n              0x00\n              mload(0x40)\n              dup1\n              dup4\n              sub\n              dup2\n              dup6\n              dup9\n              dup9\n              call\n              swap4\n              pop\n              pop\n              pop\n              pop\n              iszero\n              dup1\n              iszero\n              tag_78\n              jumpi\n              returndatasize\n              0x00\n              dup1\n              returndatacopy\n              revert(0x00, returndatasize)\n            tag_78:\n              pop\n                /* \"Crowdfunding.sol\":2669:2673  true */\n              0x01\n                /* \"Crowdfunding.sol\":2650:2657  request */\n              dup2\n                /* \"Crowdfunding.sol\":2650:2666  request.complete */\n              0x02\n              add\n              0x00\n                /* \"Crowdfunding.sol\":2650:2673  request.complete = true */\n              0x0100\n              exp\n              dup2\n              sload\n              dup2\n              0xff\n              mul\n              not\n              and\n              swap1\n              dup4\n              iszero\n              iszero\n              mul\n              or\n              swap1\n              sstore\n              pop\n                /* \"Crowdfunding.sol\":2269:2680  {... */\n              pop\n                /* \"Crowdfunding.sol\":2215:2680  function finalizeRequest(uint index) public restricted{... */\n              pop\n              jump\t// out\n                /* \"Crowdfunding.sol\":715:756  mapping(address => bool) public approvers */\n            tag_23:\n              mstore(0x20, 0x02)\n              dup1\n              0x00\n              mstore\n              keccak256(0x00, 0x40)\n              0x00\n              swap2\n              pop\n              sload\n              swap1\n              0x0100\n              exp\n              swap1\n              div\n              0xff\n              and\n              dup2\n              jump\t// out\n                /* \"Crowdfunding.sol\":2947:3041  function getRequestsCount() public view returns (uint) {... */\n            tag_28:\n                /* \"Crowdfunding.sol\":2996:3000  uint */\n              0x00\n                /* \"Crowdfunding.sol\":3019:3027  requests */\n              0x04\n                /* \"Crowdfunding.sol\":3019:3034  requests.length */\n              dup1\n              sload\n              swap1\n              pop\n                /* \"Crowdfunding.sol\":3012:3034  return requests.length */\n              swap1\n              pop\n                /* \"Crowdfunding.sol\":2947:3041  function getRequestsCount() public view returns (uint) {... */\n              swap1\n              jump\t// out\n                /* \"Crowdfunding.sol\":2686:2941  function getSummary() public view returns(address, uint, uint, uint, uint) {... */\n            tag_33:\n                /* \"Crowdfunding.sol\":2728:2735  address */\n              0x00\n                /* \"Crowdfunding.sol\":2737:2741  uint */\n              dup1\n                /* \"Crowdfunding.sol\":2743:2747  uint */\n              0x00\n                /* \"Crowdfunding.sol\":2749:2753  uint */\n              dup1\n                /* \"Crowdfunding.sol\":2755:2759  uint */\n              0x00\n                /* \"Crowdfunding.sol\":2792:2799  manager */\n              dup1\n              0x00\n              swap1\n              sload\n              swap1\n              0x0100\n              exp\n              swap1\n              div\n              0xffffffffffffffffffffffffffffffffffffffff\n              and\n                /* \"Crowdfunding.sol\":2813:2832  minimumContribution */\n              sload(0x01)\n                /* \"Crowdfunding.sol\":2846:2854  requests */\n              0x04\n                /* \"Crowdfunding.sol\":2846:2861  requests.length */\n              dup1\n              sload\n              swap1\n              pop\n                /* \"Crowdfunding.sol\":2875:2889  approversCount */\n              sload(0x03)\n                /* \"Crowdfunding.sol\":2903:2924  address(this).balance */\n              selfbalance\n                /* \"Crowdfunding.sol\":2771:2934  return (... */\n              swap5\n              pop\n              swap5\n              pop\n              swap5\n              pop\n              swap5\n              pop\n              swap5\n              pop\n                /* \"Crowdfunding.sol\":2686:2941  function getSummary() public view returns(address, uint, uint, uint, uint) {... */\n              swap1\n              swap2\n              swap3\n              swap4\n              swap5\n              jump\t// out\n                /* \"Crowdfunding.sol\":650:672  address public manager */\n            tag_38:\n              0x00\n              dup1\n              sload\n              swap1\n              0x0100\n              exp\n              swap1\n              div\n              0xffffffffffffffffffffffffffffffffffffffff\n              and\n              dup2\n              jump\t// out\n                /* \"Crowdfunding.sol\":794:819  Request[] public requests */\n            tag_44:\n              0x04\n              dup2\n              dup2\n              sload\n              dup2\n              lt\n              tag_81\n              jumpi\n              0x00\n              dup1\n              revert\n            tag_81:\n              swap1\n              0x00\n              mstore\n              keccak256(0x00, 0x20)\n              swap1\n              0x06\n              mul\n              add\n              0x00\n              swap2\n              pop\n              swap1\n              pop\n              dup1\n              0x00\n              add\n              dup1\n              sload\n              tag_83\n              swap1\n              tag_84\n              jump\t// in\n            tag_83:\n              dup1\n              0x1f\n              add\n              0x20\n              dup1\n              swap2\n              div\n              mul\n              0x20\n              add\n              mload(0x40)\n              swap1\n              dup2\n              add\n              0x40\n              mstore\n              dup1\n              swap3\n              swap2\n              swap1\n              dup2\n              dup2\n              mstore\n              0x20\n              add\n              dup3\n              dup1\n              sload\n              tag_85\n              swap1\n              tag_84\n              jump\t// in\n            tag_85:\n              dup1\n              iszero\n              tag_86\n              jumpi\n              dup1\n              0x1f\n              lt\n              tag_87\n              jumpi\n              0x0100\n              dup1\n              dup4\n              sload\n              div\n              mul\n              dup4\n              mstore\n              swap2\n              0x20\n              add\n              swap2\n              jump(tag_86)\n            tag_87:\n              dup3\n              add\n              swap2\n              swap1\n              0x00\n              mstore\n              keccak256(0x00, 0x20)\n              swap1\n            tag_88:\n              dup2\n              sload\n              dup2\n              mstore\n              swap1\n              0x01\n              add\n              swap1\n              0x20\n              add\n              dup1\n              dup4\n              gt\n              tag_88\n              jumpi\n              dup3\n              swap1\n              sub\n              0x1f\n              and\n              dup3\n              add\n              swap2\n            tag_86:\n              pop\n              pop\n              pop\n              pop\n              pop\n              swap1\n              dup1\n              0x01\n              add\n              sload\n              swap1\n              dup1\n              0x02\n              add\n              0x00\n              swap1\n              sload\n              swap1\n              0x0100\n              exp\n              swap1\n              div\n              0xff\n              and\n              swap1\n              dup1\n              0x03\n              add\n              sload\n              swap1\n              dup1\n              0x04\n              add\n              0x00\n              swap1\n              sload\n              swap1\n              0x0100\n              exp\n              swap1\n              div\n              0xffffffffffffffffffffffffffffffffffffffff\n              and\n              swap1\n              pop\n              dup6\n              jump\t// out\n                /* \"Crowdfunding.sol\":762:788  uint public approversCount */\n            tag_49:\n              sload(0x03)\n              dup2\n              jump\t// out\n                /* \"Crowdfunding.sol\":1201:1841  function createRequest(string calldata _description, uint _value, address _recipient) public restricted{... */\n            tag_55:\n                /* \"Crowdfunding.sol\":1001:1008  manager */\n              0x00\n              dup1\n              sload\n              swap1\n              0x0100\n              exp\n              swap1\n              div\n              0xffffffffffffffffffffffffffffffffffffffff\n              and\n                /* \"Crowdfunding.sol\":987:1008  msg.sender == manager */\n              0xffffffffffffffffffffffffffffffffffffffff\n              and\n                /* \"Crowdfunding.sol\":987:997  msg.sender */\n              caller\n                /* \"Crowdfunding.sol\":987:1008  msg.sender == manager */\n              0xffffffffffffffffffffffffffffffffffffffff\n              and\n              eq\n                /* \"Crowdfunding.sol\":979:1009  require(msg.sender == manager) */\n              tag_90\n              jumpi\n              0x00\n              dup1\n              revert\n            tag_90:\n                /* \"Crowdfunding.sol\":1314:1340  Request storage newRequest */\n              0x00\n                /* \"Crowdfunding.sol\":1343:1351  requests */\n              0x04\n                /* \"Crowdfunding.sol\":1343:1358  requests.push() */\n              0x01\n              dup2\n              0x01\n              dup2\n              sload\n              add\n              dup1\n              dup3\n              sstore\n              dup1\n              swap2\n              pop\n              pop\n              sub\n              swap1\n              0x00\n              mstore\n              keccak256(0x00, 0x20)\n              swap1\n              0x06\n              mul\n              add\n                /* \"Crowdfunding.sol\":1314:1358  Request storage newRequest = requests.push() */\n              swap1\n              pop\n                /* \"Crowdfunding.sol\":1393:1405  _description */\n              dup5\n              dup5\n                /* \"Crowdfunding.sol\":1368:1378  newRequest */\n              dup3\n                /* \"Crowdfunding.sol\":1368:1390  newRequest.description */\n              0x00\n              add\n                /* \"Crowdfunding.sol\":1368:1405  newRequest.description = _description */\n              swap2\n              swap1\n              tag_93\n              swap3\n              swap2\n              swap1\n              tag_94\n              jump\t// in\n            tag_93:\n              pop\n                /* \"Crowdfunding.sol\":1434:1440  _value */\n              dup3\n                /* \"Crowdfunding.sol\":1415:1425  newRequest */\n              dup2\n                /* \"Crowdfunding.sol\":1415:1431  newRequest.value */\n              0x01\n              add\n                /* \"Crowdfunding.sol\":1415:1440  newRequest.value = _value */\n              dup2\n              swap1\n              sstore\n              pop\n                /* \"Crowdfunding.sol\":1473:1483  _recipient */\n              dup2\n                /* \"Crowdfunding.sol\":1450:1460  newRequest */\n              dup2\n                /* \"Crowdfunding.sol\":1450:1470  newRequest.recipient */\n              0x04\n              add\n              0x00\n                /* \"Crowdfunding.sol\":1450:1483  newRequest.recipient = _recipient */\n              0x0100\n              exp\n              dup2\n              sload\n              dup2\n              0xffffffffffffffffffffffffffffffffffffffff\n              mul\n              not\n              and\n              swap1\n              dup4\n              0xffffffffffffffffffffffffffffffffffffffff\n              and\n              mul\n              or\n              swap1\n              sstore\n              pop\n                /* \"Crowdfunding.sol\":1515:1520  false */\n              0x00\n                /* \"Crowdfunding.sol\":1493:1503  newRequest */\n              dup2\n                /* \"Crowdfunding.sol\":1493:1512  newRequest.complete */\n              0x02\n              add\n              0x00\n                /* \"Crowdfunding.sol\":1493:1520  newRequest.complete = false */\n              0x0100\n              exp\n              dup2\n              sload\n              dup2\n              0xff\n              mul\n              not\n              and\n              swap1\n              dup4\n              iszero\n              iszero\n              mul\n              or\n              swap1\n              sstore\n              pop\n                /* \"Crowdfunding.sol\":1557:1558  0 */\n              0x00\n                /* \"Crowdfunding.sol\":1530:1540  newRequest */\n              dup2\n                /* \"Crowdfunding.sol\":1530:1554  newRequest.approvalCount */\n              0x03\n              add\n                /* \"Crowdfunding.sol\":1530:1558  newRequest.approvalCount = 0 */\n              dup2\n              swap1\n              sstore\n              pop\n                /* \"Crowdfunding.sol\":1304:1841  {... */\n              pop\n                /* \"Crowdfunding.sol\":1201:1841  function createRequest(string calldata _description, uint _value, address _recipient) public restricted{... */\n              pop\n              pop\n              pop\n              pop\n              jump\t// out\n                /* \"Crowdfunding.sol\":678:709  uint public minimumContribution */\n            tag_58:\n              sload(0x01)\n              dup2\n              jump\t// out\n                /* \"Crowdfunding.sol\":1037:1195  function contribute() public payable {... */\n            tag_61:\n                /* \"Crowdfunding.sol\":1104:1123  minimumContribution */\n              sload(0x01)\n                /* \"Crowdfunding.sol\":1092:1101  msg.value */\n              callvalue\n                /* \"Crowdfunding.sol\":1092:1123  msg.value > minimumContribution */\n              gt\n                /* \"Crowdfunding.sol\":1084:1124  require(msg.value > minimumContribution) */\n              tag_96\n              jumpi\n              0x00\n              dup1\n              revert\n            tag_96:\n                /* \"Crowdfunding.sol\":1158:1162  true */\n              0x01\n                /* \"Crowdfunding.sol\":1134:1143  approvers */\n              0x02\n                /* \"Crowdfunding.sol\":1134:1155  approvers[msg.sender] */\n              0x00\n                /* \"Crowdfunding.sol\":1144:1154  msg.sender */\n              caller\n                /* \"Crowdfunding.sol\":1134:1155  approvers[msg.sender] */\n              0xffffffffffffffffffffffffffffffffffffffff\n              and\n              0xffffffffffffffffffffffffffffffffffffffff\n              and\n              dup2\n              mstore\n              0x20\n              add\n              swap1\n              dup2\n              mstore\n              0x20\n              add\n              0x00\n              keccak256\n              0x00\n                /* \"Crowdfunding.sol\":1134:1162  approvers[msg.sender] = true */\n              0x0100\n              exp\n              dup2\n              sload\n              dup2\n              0xff\n              mul\n              not\n              and\n              swap1\n              dup4\n              iszero\n              iszero\n              mul\n              or\n              swap1\n              sstore\n              pop\n                /* \"Crowdfunding.sol\":1172:1186  approversCount */\n              0x03\n              0x00\n                /* \"Crowdfunding.sol\":1172:1188  approversCount++ */\n              dup2\n              sload\n              dup1\n              swap3\n              swap2\n              swap1\n              tag_97\n              swap1\n              tag_98\n              jump\t// in\n            tag_97:\n              swap2\n              swap1\n              pop\n              sstore\n              pop\n                /* \"Crowdfunding.sol\":1037:1195  function contribute() public payable {... */\n              jump\t// out\n                /* \"Crowdfunding.sol\":1847:2209  function approveRequest(uint index) public {... */\n            tag_65:\n                /* \"Crowdfunding.sol\":1951:1960  approvers */\n              0x02\n                /* \"Crowdfunding.sol\":1951:1972  approvers[msg.sender] */\n              0x00\n                /* \"Crowdfunding.sol\":1961:1971  msg.sender */\n              caller\n                /* \"Crowdfunding.sol\":1951:1972  approvers[msg.sender] */\n              0xffffffffffffffffffffffffffffffffffffffff\n              and\n              0xffffffffffffffffffffffffffffffffffffffff\n              and\n              dup2\n              mstore\n              0x20\n              add\n              swap1\n              dup2\n              mstore\n              0x20\n              add\n              0x00\n              keccak256\n              0x00\n              swap1\n              sload\n              swap1\n              0x0100\n              exp\n              swap1\n              div\n              0xff\n              and\n                /* \"Crowdfunding.sol\":1943:1973  require(approvers[msg.sender]) */\n              tag_100\n              jumpi\n              0x00\n              dup1\n              revert\n            tag_100:\n                /* \"Crowdfunding.sol\":2033:2056  Request storage request */\n              0x00\n                /* \"Crowdfunding.sol\":2059:2067  requests */\n              0x04\n                /* \"Crowdfunding.sol\":2068:2073  index */\n              dup3\n                /* \"Crowdfunding.sol\":2059:2074  requests[index] */\n              dup2\n              sload\n              dup2\n              lt\n              tag_101\n              jumpi\n              tag_102\n              tag_71\n              jump\t// in\n            tag_102:\n            tag_101:\n              swap1\n              0x00\n              mstore\n              keccak256(0x00, 0x20)\n              swap1\n              0x06\n              mul\n              add\n                /* \"Crowdfunding.sol\":2033:2074  Request storage request = requests[index] */\n              swap1\n              pop\n                /* \"Crowdfunding.sol\":2093:2100  request */\n              dup1\n                /* \"Crowdfunding.sol\":2093:2110  request.approvals */\n              0x05\n              add\n                /* \"Crowdfunding.sol\":2093:2122  request.approvals[msg.sender] */\n              0x00\n                /* \"Crowdfunding.sol\":2111:2121  msg.sender */\n              caller\n                /* \"Crowdfunding.sol\":2093:2122  request.approvals[msg.sender] */\n              0xffffffffffffffffffffffffffffffffffffffff\n              and\n              0xffffffffffffffffffffffffffffffffffffffff\n              and\n              dup2\n              mstore\n              0x20\n              add\n              swap1\n              dup2\n              mstore\n              0x20\n              add\n              0x00\n              keccak256\n              0x00\n              swap1\n              sload\n              swap1\n              0x0100\n              exp\n              swap1\n              div\n              0xff\n              and\n                /* \"Crowdfunding.sol\":2092:2122  !request.approvals[msg.sender] */\n              iszero\n                /* \"Crowdfunding.sol\":2084:2123  require(!request.approvals[msg.sender]) */\n              tag_104\n              jumpi\n              0x00\n              dup1\n              revert\n            tag_104:\n                /* \"Crowdfunding.sol\":2165:2169  true */\n              0x01\n                /* \"Crowdfunding.sol\":2133:2140  request */\n              dup2\n                /* \"Crowdfunding.sol\":2133:2150  request.approvals */\n              0x05\n              add\n                /* \"Crowdfunding.sol\":2133:2162  request.approvals[msg.sender] */\n              0x00\n                /* \"Crowdfunding.sol\":2151:2161  msg.sender */\n              caller\n                /* \"Crowdfunding.sol\":2133:2162  request.approvals[msg.sender] */\n              0xffffffffffffffffffffffffffffffffffffffff\n              and\n              0xffffffffffffffffffffffffffffffffffffffff\n              and\n              dup2\n              mstore\n              0x20\n              add\n              swap1\n              dup2\n              mstore\n              0x20\n              add\n              0x00\n              keccak256\n              0x00\n                /* \"Crowdfunding.sol\":2133:2169  request.approvals[msg.sender] = true */\n              0x0100\n              exp\n              dup2\n              sload\n              dup2\n              0xff\n              mul\n              not\n              and\n              swap1\n              dup4\n              iszero\n              iszero\n              mul\n              or\n              swap1\n              sstore\n              pop\n                /* \"Crowdfunding.sol\":2179:2186  request */\n              dup1\n                /* \"Crowdfunding.sol\":2179:2200  request.approvalCount */\n              0x03\n              add\n              0x00\n                /* \"Crowdfunding.sol\":2179:2202  request.approvalCount++ */\n              dup2\n              sload\n              dup1\n              swap3\n              swap2\n              swap1\n              tag_105\n              swap1\n              tag_98\n              jump\t// in\n            tag_105:\n              swap2\n              swap1\n              pop\n              sstore\n              pop\n                /* \"Crowdfunding.sol\":1890:2209  {... */\n              pop\n                /* \"Crowdfunding.sol\":1847:2209  function approveRequest(uint index) public {... */\n              pop\n              jump\t// out\n            tag_94:\n              dup3\n              dup1\n              sload\n              tag_106\n              swap1\n              tag_84\n              jump\t// in\n            tag_106:\n              swap1\n              0x00\n              mstore\n              keccak256(0x00, 0x20)\n              swap1\n              0x1f\n              add\n              0x20\n              swap1\n              div\n              dup2\n              add\n              swap3\n              dup3\n              tag_108\n              jumpi\n              0x00\n              dup6\n              sstore\n              jump(tag_107)\n            tag_108:\n              dup3\n              0x1f\n              lt\n              tag_109\n              jumpi\n              dup1\n              calldataload\n              not(0xff)\n              and\n              dup4\n              dup1\n              add\n              or\n              dup6\n              sstore\n              jump(tag_107)\n            tag_109:\n              dup3\n              dup1\n              add\n              0x01\n              add\n              dup6\n              sstore\n              dup3\n              iszero\n              tag_107\n              jumpi\n              swap2\n              dup3\n              add\n            tag_110:\n              dup3\n              dup2\n              gt\n              iszero\n              tag_111\n              jumpi\n              dup3\n              calldataload\n              dup3\n              sstore\n              swap2\n              0x20\n              add\n              swap2\n              swap1\n              0x01\n              add\n              swap1\n              jump(tag_110)\n            tag_111:\n            tag_107:\n              pop\n              swap1\n              pop\n              tag_112\n              swap2\n              swap1\n              tag_113\n              jump\t// in\n            tag_112:\n              pop\n              swap1\n              jump\t// out\n            tag_113:\n            tag_114:\n              dup1\n              dup3\n              gt\n              iszero\n              tag_115\n              jumpi\n              0x00\n              dup2\n              0x00\n              swap1\n              sstore\n              pop\n              0x01\n              add\n              jump(tag_114)\n            tag_115:\n              pop\n              swap1\n              jump\t// out\n                /* \"#utility.yul\":88:205   */\n            tag_117:\n                /* \"#utility.yul\":197:198   */\n              0x00\n                /* \"#utility.yul\":194:195   */\n              dup1\n                /* \"#utility.yul\":187:199   */\n              revert\n                /* \"#utility.yul\":211:328   */\n            tag_118:\n                /* \"#utility.yul\":320:321   */\n              0x00\n                /* \"#utility.yul\":317:318   */\n              dup1\n                /* \"#utility.yul\":310:322   */\n              revert\n                /* \"#utility.yul\":334:411   */\n            tag_119:\n                /* \"#utility.yul\":371:378   */\n              0x00\n                /* \"#utility.yul\":400:405   */\n              dup2\n                /* \"#utility.yul\":389:405   */\n              swap1\n              pop\n                /* \"#utility.yul\":334:411   */\n              swap2\n              swap1\n              pop\n              jump\t// out\n                /* \"#utility.yul\":417:539   */\n            tag_120:\n                /* \"#utility.yul\":490:514   */\n              tag_148\n                /* \"#utility.yul\":508:513   */\n              dup2\n                /* \"#utility.yul\":490:514   */\n              tag_119\n              jump\t// in\n            tag_148:\n                /* \"#utility.yul\":483:488   */\n              dup2\n                /* \"#utility.yul\":480:515   */\n              eq\n                /* \"#utility.yul\":470:533   */\n              tag_149\n              jumpi\n                /* \"#utility.yul\":529:530   */\n              0x00\n                /* \"#utility.yul\":526:527   */\n              dup1\n                /* \"#utility.yul\":519:531   */\n              revert\n                /* \"#utility.yul\":470:533   */\n            tag_149:\n                /* \"#utility.yul\":417:539   */\n              pop\n              jump\t// out\n                /* \"#utility.yul\":545:684   */\n            tag_121:\n                /* \"#utility.yul\":591:596   */\n              0x00\n                /* \"#utility.yul\":629:635   */\n              dup2\n                /* \"#utility.yul\":616:636   */\n              calldataload\n                /* \"#utility.yul\":607:636   */\n              swap1\n              pop\n                /* \"#utility.yul\":645:678   */\n              tag_151\n                /* \"#utility.yul\":672:677   */\n              dup2\n                /* \"#utility.yul\":645:678   */\n              tag_120\n              jump\t// in\n            tag_151:\n                /* \"#utility.yul\":545:684   */\n              swap3\n              swap2\n              pop\n              pop\n              jump\t// out\n                /* \"#utility.yul\":690:1019   */\n            tag_17:\n                /* \"#utility.yul\":749:755   */\n              0x00\n                /* \"#utility.yul\":798:800   */\n              0x20\n                /* \"#utility.yul\":786:795   */\n              dup3\n                /* \"#utility.yul\":777:784   */\n              dup5\n                /* \"#utility.yul\":773:796   */\n              sub\n                /* \"#utility.yul\":769:801   */\n              slt\n                /* \"#utility.yul\":766:885   */\n              iszero\n              tag_153\n              jumpi\n                /* \"#utility.yul\":804:883   */\n              tag_154\n              tag_117\n              jump\t// in\n            tag_154:\n                /* \"#utility.yul\":766:885   */\n            tag_153:\n                /* \"#utility.yul\":924:925   */\n              0x00\n                /* \"#utility.yul\":949:1002   */\n              tag_155\n                /* \"#utility.yul\":994:1001   */\n              dup5\n                /* \"#utility.yul\":985:991   */\n              dup3\n                /* \"#utility.yul\":974:983   */\n              dup6\n                /* \"#utility.yul\":970:992   */\n              add\n                /* \"#utility.yul\":949:1002   */\n              tag_121\n              jump\t// in\n            tag_155:\n                /* \"#utility.yul\":939:1002   */\n              swap2\n              pop\n                /* \"#utility.yul\":895:1012   */\n              pop\n                /* \"#utility.yul\":690:1019   */\n              swap3\n              swap2\n              pop\n              pop\n              jump\t// out\n                /* \"#utility.yul\":1025:1151   */\n            tag_122:\n                /* \"#utility.yul\":1062:1069   */\n              0x00\n                /* \"#utility.yul\":1102:1144   */\n              0xffffffffffffffffffffffffffffffffffffffff\n                /* \"#utility.yul\":1095:1100   */\n              dup3\n                /* \"#utility.yul\":1091:1145   */\n              and\n                /* \"#utility.yul\":1080:1145   */\n              swap1\n              pop\n                /* \"#utility.yul\":1025:1151   */\n              swap2\n              swap1\n              pop\n              jump\t// out\n                /* \"#utility.yul\":1157:1253   */\n            tag_123:\n                /* \"#utility.yul\":1194:1201   */\n              0x00\n                /* \"#utility.yul\":1223:1247   */\n              tag_158\n                /* \"#utility.yul\":1241:1246   */\n              dup3\n                /* \"#utility.yul\":1223:1247   */\n              tag_122\n              jump\t// in\n            tag_158:\n                /* \"#utility.yul\":1212:1247   */\n              swap1\n              pop\n                /* \"#utility.yul\":1157:1253   */\n              swap2\n              swap1\n              pop\n              jump\t// out\n                /* \"#utility.yul\":1259:1381   */\n            tag_124:\n                /* \"#utility.yul\":1332:1356   */\n              tag_160\n                /* \"#utility.yul\":1350:1355   */\n              dup2\n                /* \"#utility.yul\":1332:1356   */\n              tag_123\n              jump\t// in\n            tag_160:\n                /* \"#utility.yul\":1325:1330   */\n              dup2\n                /* \"#utility.yul\":1322:1357   */\n              eq\n                /* \"#utility.yul\":1312:1375   */\n              tag_161\n              jumpi\n                /* \"#utility.yul\":1371:1372   */\n              0x00\n                /* \"#utility.yul\":1368:1369   */\n              dup1\n                /* \"#utility.yul\":1361:1373   */\n              revert\n                /* \"#utility.yul\":1312:1375   */\n            tag_161:\n                /* \"#utility.yul\":1259:1381   */\n              pop\n              jump\t// out\n                /* \"#utility.yul\":1387:1526   */\n            tag_125:\n                /* \"#utility.yul\":1433:1438   */\n              0x00\n                /* \"#utility.yul\":1471:1477   */\n              dup2\n                /* \"#utility.yul\":1458:1478   */\n              calldataload\n                /* \"#utility.yul\":1449:1478   */\n              swap1\n              pop\n                /* \"#utility.yul\":1487:1520   */\n              tag_163\n                /* \"#utility.yul\":1514:1519   */\n              dup2\n                /* \"#utility.yul\":1487:1520   */\n              tag_124\n              jump\t// in\n            tag_163:\n                /* \"#utility.yul\":1387:1526   */\n              swap3\n              swap2\n              pop\n              pop\n              jump\t// out\n                /* \"#utility.yul\":1532:1861   */\n            tag_22:\n                /* \"#utility.yul\":1591:1597   */\n              0x00\n                /* \"#utility.yul\":1640:1642   */\n              0x20\n                /* \"#utility.yul\":1628:1637   */\n              dup3\n                /* \"#utility.yul\":1619:1626   */\n              dup5\n                /* \"#utility.yul\":1615:1638   */\n              sub\n                /* \"#utility.yul\":1611:1643   */\n              slt\n                /* \"#utility.yul\":1608:1727   */\n              iszero\n              tag_165\n              jumpi\n                /* \"#utility.yul\":1646:1725   */\n              tag_166\n              tag_117\n              jump\t// in\n            tag_166:\n                /* \"#utility.yul\":1608:1727   */\n            tag_165:\n                /* \"#utility.yul\":1766:1767   */\n              0x00\n                /* \"#utility.yul\":1791:1844   */\n              tag_167\n                /* \"#utility.yul\":1836:1843   */\n              dup5\n                /* \"#utility.yul\":1827:1833   */\n              dup3\n                /* \"#utility.yul\":1816:1825   */\n              dup6\n                /* \"#utility.yul\":1812:1834   */\n              add\n                /* \"#utility.yul\":1791:1844   */\n              tag_125\n              jump\t// in\n            tag_167:\n                /* \"#utility.yul\":1781:1844   */\n              swap2\n              pop\n                /* \"#utility.yul\":1737:1854   */\n              pop\n                /* \"#utility.yul\":1532:1861   */\n              swap3\n              swap2\n              pop\n              pop\n              jump\t// out\n                /* \"#utility.yul\":1867:1957   */\n            tag_126:\n                /* \"#utility.yul\":1901:1908   */\n              0x00\n                /* \"#utility.yul\":1944:1949   */\n              dup2\n                /* \"#utility.yul\":1937:1950   */\n              iszero\n                /* \"#utility.yul\":1930:1951   */\n              iszero\n                /* \"#utility.yul\":1919:1951   */\n              swap1\n              pop\n                /* \"#utility.yul\":1867:1957   */\n              swap2\n              swap1\n              pop\n              jump\t// out\n                /* \"#utility.yul\":1963:2072   */\n            tag_127:\n                /* \"#utility.yul\":2044:2065   */\n              tag_170\n                /* \"#utility.yul\":2059:2064   */\n              dup2\n                /* \"#utility.yul\":2044:2065   */\n              tag_126\n              jump\t// in\n            tag_170:\n                /* \"#utility.yul\":2039:2042   */\n              dup3\n                /* \"#utility.yul\":2032:2066   */\n              mstore\n                /* \"#utility.yul\":1963:2072   */\n              pop\n              pop\n              jump\t// out\n                /* \"#utility.yul\":2078:2288   */\n            tag_25:\n                /* \"#utility.yul\":2165:2169   */\n              0x00\n                /* \"#utility.yul\":2203:2205   */\n              0x20\n                /* \"#utility.yul\":2192:2201   */\n              dup3\n                /* \"#utility.yul\":2188:2206   */\n              add\n                /* \"#utility.yul\":2180:2206   */\n              swap1\n              pop\n                /* \"#utility.yul\":2216:2281   */\n              tag_172\n                /* \"#utility.yul\":2278:2279   */\n              0x00\n                /* \"#utility.yul\":2267:2276   */\n              dup4\n                /* \"#utility.yul\":2263:2280   */\n              add\n                /* \"#utility.yul\":2254:2260   */\n              dup5\n                /* \"#utility.yul\":2216:2281   */\n              tag_127\n              jump\t// in\n            tag_172:\n                /* \"#utility.yul\":2078:2288   */\n              swap3\n              swap2\n              pop\n              pop\n              jump\t// out\n                /* \"#utility.yul\":2294:2412   */\n            tag_128:\n                /* \"#utility.yul\":2381:2405   */\n              tag_174\n                /* \"#utility.yul\":2399:2404   */\n              dup2\n                /* \"#utility.yul\":2381:2405   */\n              tag_119\n              jump\t// in\n            tag_174:\n                /* \"#utility.yul\":2376:2379   */\n              dup3\n                /* \"#utility.yul\":2369:2406   */\n              mstore\n                /* \"#utility.yul\":2294:2412   */\n              pop\n              pop\n              jump\t// out\n                /* \"#utility.yul\":2418:2640   */\n            tag_30:\n                /* \"#utility.yul\":2511:2515   */\n              0x00\n                /* \"#utility.yul\":2549:2551   */\n              0x20\n                /* \"#utility.yul\":2538:2547   */\n              dup3\n                /* \"#utility.yul\":2534:2552   */\n              add\n                /* \"#utility.yul\":2526:2552   */\n              swap1\n              pop\n                /* \"#utility.yul\":2562:2633   */\n              tag_176\n                /* \"#utility.yul\":2630:2631   */\n              0x00\n                /* \"#utility.yul\":2619:2628   */\n              dup4\n                /* \"#utility.yul\":2615:2632   */\n              add\n                /* \"#utility.yul\":2606:2612   */\n              dup5\n                /* \"#utility.yul\":2562:2633   */\n              tag_128\n              jump\t// in\n            tag_176:\n                /* \"#utility.yul\":2418:2640   */\n              swap3\n              swap2\n              pop\n              pop\n              jump\t// out\n                /* \"#utility.yul\":2646:2764   */\n            tag_129:\n                /* \"#utility.yul\":2733:2757   */\n              tag_178\n                /* \"#utility.yul\":2751:2756   */\n              dup2\n                /* \"#utility.yul\":2733:2757   */\n              tag_123\n              jump\t// in\n            tag_178:\n                /* \"#utility.yul\":2728:2731   */\n              dup3\n                /* \"#utility.yul\":2721:2758   */\n              mstore\n                /* \"#utility.yul\":2646:2764   */\n              pop\n              pop\n              jump\t// out\n                /* \"#utility.yul\":2770:3434   */\n            tag_35:\n                /* \"#utility.yul\":2975:2979   */\n              0x00\n                /* \"#utility.yul\":3013:3016   */\n              0xa0\n                /* \"#utility.yul\":3002:3011   */\n              dup3\n                /* \"#utility.yul\":2998:3017   */\n              add\n                /* \"#utility.yul\":2990:3017   */\n              swap1\n              pop\n                /* \"#utility.yul\":3027:3098   */\n              tag_180\n                /* \"#utility.yul\":3095:3096   */\n              0x00\n                /* \"#utility.yul\":3084:3093   */\n              dup4\n                /* \"#utility.yul\":3080:3097   */\n              add\n                /* \"#utility.yul\":3071:3077   */\n              dup9\n                /* \"#utility.yul\":3027:3098   */\n              tag_129\n              jump\t// in\n            tag_180:\n                /* \"#utility.yul\":3108:3180   */\n              tag_181\n                /* \"#utility.yul\":3176:3178   */\n              0x20\n                /* \"#utility.yul\":3165:3174   */\n              dup4\n                /* \"#utility.yul\":3161:3179   */\n              add\n                /* \"#utility.yul\":3152:3158   */\n              dup8\n                /* \"#utility.yul\":3108:3180   */\n              tag_128\n              jump\t// in\n            tag_181:\n                /* \"#utility.yul\":3190:3262   */\n              tag_182\n                /* \"#utility.yul\":3258:3260   */\n              0x40\n                /* \"#utility.yul\":3247:3256   */\n              dup4\n                /* \"#utility.yul\":3243:3261   */\n              add\n                /* \"#utility.yul\":3234:3240   */\n              dup7\n                /* \"#utility.yul\":3190:3262   */\n              tag_128\n              jump\t// in\n            tag_182:\n                /* \"#utility.yul\":3272:3344   */\n              tag_183\n                /* \"#utility.yul\":3340:3342   */\n              0x60\n                /* \"#utility.yul\":3329:3338   */\n              dup4\n                /* \"#utility.yul\":3325:3343   */\n              add\n                /* \"#utility.yul\":3316:3322   */\n              dup6\n                /* \"#utility.yul\":3272:3344   */\n              tag_128\n              jump\t// in\n            tag_183:\n                /* \"#utility.yul\":3354:3427   */\n              tag_184\n                /* \"#utility.yul\":3422:3425   */\n              0x80\n                /* \"#utility.yul\":3411:3420   */\n              dup4\n                /* \"#utility.yul\":3407:3426   */\n              add\n                /* \"#utility.yul\":3398:3404   */\n              dup5\n                /* \"#utility.yul\":3354:3427   */\n              tag_128\n              jump\t// in\n            tag_184:\n                /* \"#utility.yul\":2770:3434   */\n              swap7\n              swap6\n              pop\n              pop\n              pop\n              pop\n              pop\n              pop\n              jump\t// out\n                /* \"#utility.yul\":3440:3662   */\n            tag_40:\n                /* \"#utility.yul\":3533:3537   */\n              0x00\n                /* \"#utility.yul\":3571:3573   */\n              0x20\n                /* \"#utility.yul\":3560:3569   */\n              dup3\n                /* \"#utility.yul\":3556:3574   */\n              add\n                /* \"#utility.yul\":3548:3574   */\n              swap1\n              pop\n                /* \"#utility.yul\":3584:3655   */\n              tag_186\n                /* \"#utility.yul\":3652:3653   */\n              0x00\n                /* \"#utility.yul\":3641:3650   */\n              dup4\n                /* \"#utility.yul\":3637:3654   */\n              add\n                /* \"#utility.yul\":3628:3634   */\n              dup5\n                /* \"#utility.yul\":3584:3655   */\n              tag_129\n              jump\t// in\n            tag_186:\n                /* \"#utility.yul\":3440:3662   */\n              swap3\n              swap2\n              pop\n              pop\n              jump\t// out\n                /* \"#utility.yul\":3668:3767   */\n            tag_130:\n                /* \"#utility.yul\":3720:3726   */\n              0x00\n                /* \"#utility.yul\":3754:3759   */\n              dup2\n                /* \"#utility.yul\":3748:3760   */\n              mload\n                /* \"#utility.yul\":3738:3760   */\n              swap1\n              pop\n                /* \"#utility.yul\":3668:3767   */\n              swap2\n              swap1\n              pop\n              jump\t// out\n                /* \"#utility.yul\":3773:3942   */\n            tag_131:\n                /* \"#utility.yul\":3857:3868   */\n              0x00\n                /* \"#utility.yul\":3891:3897   */\n              dup3\n                /* \"#utility.yul\":3886:3889   */\n              dup3\n                /* \"#utility.yul\":3879:3898   */\n              mstore\n                /* \"#utility.yul\":3931:3935   */\n              0x20\n                /* \"#utility.yul\":3926:3929   */\n              dup3\n                /* \"#utility.yul\":3922:3936   */\n              add\n                /* \"#utility.yul\":3907:3936   */\n              swap1\n              pop\n                /* \"#utility.yul\":3773:3942   */\n              swap3\n              swap2\n              pop\n              pop\n              jump\t// out\n                /* \"#utility.yul\":3948:4255   */\n            tag_132:\n                /* \"#utility.yul\":4016:4017   */\n              0x00\n                /* \"#utility.yul\":4026:4139   */\n            tag_190:\n                /* \"#utility.yul\":4040:4046   */\n              dup4\n                /* \"#utility.yul\":4037:4038   */\n              dup2\n                /* \"#utility.yul\":4034:4047   */\n              lt\n                /* \"#utility.yul\":4026:4139   */\n              iszero\n              tag_192\n              jumpi\n                /* \"#utility.yul\":4125:4126   */\n              dup1\n                /* \"#utility.yul\":4120:4123   */\n              dup3\n                /* \"#utility.yul\":4116:4127   */\n              add\n                /* \"#utility.yul\":4110:4128   */\n              mload\n                /* \"#utility.yul\":4106:4107   */\n              dup2\n                /* \"#utility.yul\":4101:4104   */\n              dup5\n                /* \"#utility.yul\":4097:4108   */\n              add\n                /* \"#utility.yul\":4090:4129   */\n              mstore\n                /* \"#utility.yul\":4062:4064   */\n              0x20\n                /* \"#utility.yul\":4059:4060   */\n              dup2\n                /* \"#utility.yul\":4055:4065   */\n              add\n                /* \"#utility.yul\":4050:4065   */\n              swap1\n              pop\n                /* \"#utility.yul\":4026:4139   */\n              jump(tag_190)\n            tag_192:\n                /* \"#utility.yul\":4157:4163   */\n              dup4\n                /* \"#utility.yul\":4154:4155   */\n              dup2\n                /* \"#utility.yul\":4151:4164   */\n              gt\n                /* \"#utility.yul\":4148:4249   */\n              iszero\n              tag_193\n              jumpi\n                /* \"#utility.yul\":4237:4238   */\n              0x00\n                /* \"#utility.yul\":4228:4234   */\n              dup5\n                /* \"#utility.yul\":4223:4226   */\n              dup5\n                /* \"#utility.yul\":4219:4235   */\n              add\n                /* \"#utility.yul\":4212:4239   */\n              mstore\n                /* \"#utility.yul\":4148:4249   */\n            tag_193:\n                /* \"#utility.yul\":3997:4255   */\n              pop\n                /* \"#utility.yul\":3948:4255   */\n              pop\n              pop\n              pop\n              jump\t// out\n                /* \"#utility.yul\":4261:4363   */\n            tag_133:\n                /* \"#utility.yul\":4302:4308   */\n              0x00\n                /* \"#utility.yul\":4353:4355   */\n              0x1f\n                /* \"#utility.yul\":4349:4356   */\n              not\n                /* \"#utility.yul\":4344:4346   */\n              0x1f\n                /* \"#utility.yul\":4337:4342   */\n              dup4\n                /* \"#utility.yul\":4333:4347   */\n              add\n                /* \"#utility.yul\":4329:4357   */\n              and\n                /* \"#utility.yul\":4319:4357   */\n              swap1\n              pop\n                /* \"#utility.yul\":4261:4363   */\n              swap2\n              swap1\n              pop\n              jump\t// out\n                /* \"#utility.yul\":4369:4733   */\n            tag_134:\n                /* \"#utility.yul\":4457:4460   */\n              0x00\n                /* \"#utility.yul\":4485:4524   */\n              tag_196\n                /* \"#utility.yul\":4518:4523   */\n              dup3\n                /* \"#utility.yul\":4485:4524   */\n              tag_130\n              jump\t// in\n            tag_196:\n                /* \"#utility.yul\":4540:4611   */\n              tag_197\n                /* \"#utility.yul\":4604:4610   */\n              dup2\n                /* \"#utility.yul\":4599:4602   */\n              dup6\n                /* \"#utility.yul\":4540:4611   */\n              tag_131\n              jump\t// in\n            tag_197:\n                /* \"#utility.yul\":4533:4611   */\n              swap4\n              pop\n                /* \"#utility.yul\":4620:4672   */\n              tag_198\n                /* \"#utility.yul\":4665:4671   */\n              dup2\n                /* \"#utility.yul\":4660:4663   */\n              dup6\n                /* \"#utility.yul\":4653:4657   */\n              0x20\n                /* \"#utility.yul\":4646:4651   */\n              dup7\n                /* \"#utility.yul\":4642:4658   */\n              add\n                /* \"#utility.yul\":4620:4672   */\n              tag_132\n              jump\t// in\n            tag_198:\n                /* \"#utility.yul\":4697:4726   */\n              tag_199\n                /* \"#utility.yul\":4719:4725   */\n              dup2\n                /* \"#utility.yul\":4697:4726   */\n              tag_133\n              jump\t// in\n            tag_199:\n                /* \"#utility.yul\":4692:4695   */\n              dup5\n                /* \"#utility.yul\":4688:4727   */\n              add\n                /* \"#utility.yul\":4681:4727   */\n              swap2\n              pop\n                /* \"#utility.yul\":4461:4733   */\n              pop\n                /* \"#utility.yul\":4369:4733   */\n              swap3\n              swap2\n              pop\n              pop\n              jump\t// out\n                /* \"#utility.yul\":4739:5482   */\n            tag_46:\n                /* \"#utility.yul\":4958:4962   */\n              0x00\n                /* \"#utility.yul\":4996:4999   */\n              0xa0\n                /* \"#utility.yul\":4985:4994   */\n              dup3\n                /* \"#utility.yul\":4981:5000   */\n              add\n                /* \"#utility.yul\":4973:5000   */\n              swap1\n              pop\n                /* \"#utility.yul\":5046:5055   */\n              dup2\n                /* \"#utility.yul\":5040:5044   */\n              dup2\n                /* \"#utility.yul\":5036:5056   */\n              sub\n                /* \"#utility.yul\":5032:5033   */\n              0x00\n                /* \"#utility.yul\":5021:5030   */\n              dup4\n                /* \"#utility.yul\":5017:5034   */\n              add\n                /* \"#utility.yul\":5010:5057   */\n              mstore\n                /* \"#utility.yul\":5074:5152   */\n              tag_201\n                /* \"#utility.yul\":5147:5151   */\n              dup2\n                /* \"#utility.yul\":5138:5144   */\n              dup9\n                /* \"#utility.yul\":5074:5152   */\n              tag_134\n              jump\t// in\n            tag_201:\n                /* \"#utility.yul\":5066:5152   */\n              swap1\n              pop\n                /* \"#utility.yul\":5162:5234   */\n              tag_202\n                /* \"#utility.yul\":5230:5232   */\n              0x20\n                /* \"#utility.yul\":5219:5228   */\n              dup4\n                /* \"#utility.yul\":5215:5233   */\n              add\n                /* \"#utility.yul\":5206:5212   */\n              dup8\n                /* \"#utility.yul\":5162:5234   */\n              tag_128\n              jump\t// in\n            tag_202:\n                /* \"#utility.yul\":5244:5310   */\n              tag_203\n                /* \"#utility.yul\":5306:5308   */\n              0x40\n                /* \"#utility.yul\":5295:5304   */\n              dup4\n                /* \"#utility.yul\":5291:5309   */\n              add\n                /* \"#utility.yul\":5282:5288   */\n              dup7\n                /* \"#utility.yul\":5244:5310   */\n              tag_127\n              jump\t// in\n            tag_203:\n                /* \"#utility.yul\":5320:5392   */\n              tag_204\n                /* \"#utility.yul\":5388:5390   */\n              0x60\n                /* \"#utility.yul\":5377:5386   */\n              dup4\n                /* \"#utility.yul\":5373:5391   */\n              add\n                /* \"#utility.yul\":5364:5370   */\n              dup6\n                /* \"#utility.yul\":5320:5392   */\n              tag_128\n              jump\t// in\n            tag_204:\n                /* \"#utility.yul\":5402:5475   */\n              tag_205\n                /* \"#utility.yul\":5470:5473   */\n              0x80\n                /* \"#utility.yul\":5459:5468   */\n              dup4\n                /* \"#utility.yul\":5455:5474   */\n              add\n                /* \"#utility.yul\":5446:5452   */\n              dup5\n                /* \"#utility.yul\":5402:5475   */\n              tag_129\n              jump\t// in\n            tag_205:\n                /* \"#utility.yul\":4739:5482   */\n              swap7\n              swap6\n              pop\n              pop\n              pop\n              pop\n              pop\n              pop\n              jump\t// out\n                /* \"#utility.yul\":5488:5605   */\n            tag_135:\n                /* \"#utility.yul\":5597:5598   */\n              0x00\n                /* \"#utility.yul\":5594:5595   */\n              dup1\n                /* \"#utility.yul\":5587:5599   */\n              revert\n                /* \"#utility.yul\":5611:5728   */\n            tag_136:\n                /* \"#utility.yul\":5720:5721   */\n              0x00\n                /* \"#utility.yul\":5717:5718   */\n              dup1\n                /* \"#utility.yul\":5710:5722   */\n              revert\n                /* \"#utility.yul\":5734:5851   */\n            tag_137:\n                /* \"#utility.yul\":5843:5844   */\n              0x00\n                /* \"#utility.yul\":5840:5841   */\n              dup1\n                /* \"#utility.yul\":5833:5845   */\n              revert\n                /* \"#utility.yul\":5871:6424   */\n            tag_138:\n                /* \"#utility.yul\":5929:5937   */\n              0x00\n                /* \"#utility.yul\":5939:5945   */\n              dup1\n                /* \"#utility.yul\":5989:5992   */\n              dup4\n                /* \"#utility.yul\":5982:5986   */\n              0x1f\n                /* \"#utility.yul\":5974:5980   */\n              dup5\n                /* \"#utility.yul\":5970:5987   */\n              add\n                /* \"#utility.yul\":5966:5993   */\n              slt\n                /* \"#utility.yul\":5956:6078   */\n              tag_210\n              jumpi\n                /* \"#utility.yul\":5997:6076   */\n              tag_211\n              tag_135\n              jump\t// in\n            tag_211:\n                /* \"#utility.yul\":5956:6078   */\n            tag_210:\n                /* \"#utility.yul\":6110:6116   */\n              dup3\n                /* \"#utility.yul\":6097:6117   */\n              calldataload\n                /* \"#utility.yul\":6087:6117   */\n              swap1\n              pop\n                /* \"#utility.yul\":6140:6158   */\n              0xffffffffffffffff\n                /* \"#utility.yul\":6132:6138   */\n              dup2\n                /* \"#utility.yul\":6129:6159   */\n              gt\n                /* \"#utility.yul\":6126:6243   */\n              iszero\n              tag_212\n              jumpi\n                /* \"#utility.yul\":6162:6241   */\n              tag_213\n              tag_136\n              jump\t// in\n            tag_213:\n                /* \"#utility.yul\":6126:6243   */\n            tag_212:\n                /* \"#utility.yul\":6276:6280   */\n              0x20\n                /* \"#utility.yul\":6268:6274   */\n              dup4\n                /* \"#utility.yul\":6264:6281   */\n              add\n                /* \"#utility.yul\":6252:6281   */\n              swap2\n              pop\n                /* \"#utility.yul\":6330:6333   */\n              dup4\n                /* \"#utility.yul\":6322:6326   */\n              0x01\n                /* \"#utility.yul\":6314:6320   */\n              dup3\n                /* \"#utility.yul\":6310:6327   */\n              mul\n                /* \"#utility.yul\":6300:6308   */\n              dup4\n                /* \"#utility.yul\":6296:6328   */\n              add\n                /* \"#utility.yul\":6293:6334   */\n              gt\n                /* \"#utility.yul\":6290:6418   */\n              iszero\n              tag_214\n              jumpi\n                /* \"#utility.yul\":6337:6416   */\n              tag_215\n              tag_137\n              jump\t// in\n            tag_215:\n                /* \"#utility.yul\":6290:6418   */\n            tag_214:\n                /* \"#utility.yul\":5871:6424   */\n              swap3\n              pop\n              swap3\n              swap1\n              pop\n              jump\t// out\n                /* \"#utility.yul\":6430:7249   */\n            tag_54:\n                /* \"#utility.yul\":6519:6525   */\n              0x00\n                /* \"#utility.yul\":6527:6533   */\n              dup1\n                /* \"#utility.yul\":6535:6541   */\n              0x00\n                /* \"#utility.yul\":6543:6549   */\n              dup1\n                /* \"#utility.yul\":6592:6594   */\n              0x60\n                /* \"#utility.yul\":6580:6589   */\n              dup6\n                /* \"#utility.yul\":6571:6578   */\n              dup8\n                /* \"#utility.yul\":6567:6590   */\n              sub\n                /* \"#utility.yul\":6563:6595   */\n              slt\n                /* \"#utility.yul\":6560:6679   */\n              iszero\n              tag_217\n              jumpi\n                /* \"#utility.yul\":6598:6677   */\n              tag_218\n              tag_117\n              jump\t// in\n            tag_218:\n                /* \"#utility.yul\":6560:6679   */\n            tag_217:\n                /* \"#utility.yul\":6746:6747   */\n              0x00\n                /* \"#utility.yul\":6735:6744   */\n              dup6\n                /* \"#utility.yul\":6731:6748   */\n              add\n                /* \"#utility.yul\":6718:6749   */\n              calldataload\n                /* \"#utility.yul\":6776:6794   */\n              0xffffffffffffffff\n                /* \"#utility.yul\":6768:6774   */\n              dup2\n                /* \"#utility.yul\":6765:6795   */\n              gt\n                /* \"#utility.yul\":6762:6879   */\n              iszero\n              tag_219\n              jumpi\n                /* \"#utility.yul\":6798:6877   */\n              tag_220\n              tag_118\n              jump\t// in\n            tag_220:\n                /* \"#utility.yul\":6762:6879   */\n            tag_219:\n                /* \"#utility.yul\":6911:6976   */\n              tag_221\n                /* \"#utility.yul\":6968:6975   */\n              dup8\n                /* \"#utility.yul\":6959:6965   */\n              dup3\n                /* \"#utility.yul\":6948:6957   */\n              dup9\n                /* \"#utility.yul\":6944:6966   */\n              add\n                /* \"#utility.yul\":6911:6976   */\n              tag_138\n              jump\t// in\n            tag_221:\n                /* \"#utility.yul\":6893:6976   */\n              swap5\n              pop\n              swap5\n              pop\n                /* \"#utility.yul\":6689:6986   */\n              pop\n                /* \"#utility.yul\":7025:7027   */\n              0x20\n                /* \"#utility.yul\":7051:7104   */\n              tag_222\n                /* \"#utility.yul\":7096:7103   */\n              dup8\n                /* \"#utility.yul\":7087:7093   */\n              dup3\n                /* \"#utility.yul\":7076:7085   */\n              dup9\n                /* \"#utility.yul\":7072:7094   */\n              add\n                /* \"#utility.yul\":7051:7104   */\n              tag_121\n              jump\t// in\n            tag_222:\n                /* \"#utility.yul\":7041:7104   */\n              swap3\n              pop\n                /* \"#utility.yul\":6996:7114   */\n              pop\n                /* \"#utility.yul\":7153:7155   */\n              0x40\n                /* \"#utility.yul\":7179:7232   */\n              tag_223\n                /* \"#utility.yul\":7224:7231   */\n              dup8\n                /* \"#utility.yul\":7215:7221   */\n              dup3\n                /* \"#utility.yul\":7204:7213   */\n              dup9\n                /* \"#utility.yul\":7200:7222   */\n              add\n                /* \"#utility.yul\":7179:7232   */\n              tag_125\n              jump\t// in\n            tag_223:\n                /* \"#utility.yul\":7169:7232   */\n              swap2\n              pop\n                /* \"#utility.yul\":7124:7242   */\n              pop\n                /* \"#utility.yul\":6430:7249   */\n              swap3\n              swap6\n              swap2\n              swap5\n              pop\n              swap3\n              pop\n              jump\t// out\n                /* \"#utility.yul\":7255:7435   */\n            tag_71:\n                /* \"#utility.yul\":7303:7380   */\n              0x4e487b7100000000000000000000000000000000000000000000000000000000\n                /* \"#utility.yul\":7300:7301   */\n              0x00\n                /* \"#utility.yul\":7293:7381   */\n              mstore\n                /* \"#utility.yul\":7400:7404   */\n              0x32\n                /* \"#utility.yul\":7397:7398   */\n              0x04\n                /* \"#utility.yul\":7390:7405   */\n              mstore\n                /* \"#utility.yul\":7424:7428   */\n              0x24\n                /* \"#utility.yul\":7421:7422   */\n              0x00\n                /* \"#utility.yul\":7414:7429   */\n              revert\n                /* \"#utility.yul\":7441:7621   */\n            tag_139:\n                /* \"#utility.yul\":7489:7566   */\n              0x4e487b7100000000000000000000000000000000000000000000000000000000\n                /* \"#utility.yul\":7486:7487   */\n              0x00\n                /* \"#utility.yul\":7479:7567   */\n              mstore\n                /* \"#utility.yul\":7586:7590   */\n              0x12\n                /* \"#utility.yul\":7583:7584   */\n              0x04\n                /* \"#utility.yul\":7576:7591   */\n              mstore\n                /* \"#utility.yul\":7610:7614   */\n              0x24\n                /* \"#utility.yul\":7607:7608   */\n              0x00\n                /* \"#utility.yul\":7600:7615   */\n              revert\n                /* \"#utility.yul\":7627:7807   */\n            tag_140:\n                /* \"#utility.yul\":7675:7752   */\n              0x4e487b7100000000000000000000000000000000000000000000000000000000\n                /* \"#utility.yul\":7672:7673   */\n              0x00\n                /* \"#utility.yul\":7665:7753   */\n              mstore\n                /* \"#utility.yul\":7772:7776   */\n              0x11\n                /* \"#utility.yul\":7769:7770   */\n              0x04\n                /* \"#utility.yul\":7762:7777   */\n              mstore\n                /* \"#utility.yul\":7796:7800   */\n              0x24\n                /* \"#utility.yul\":7793:7794   */\n              0x00\n                /* \"#utility.yul\":7786:7801   */\n              revert\n                /* \"#utility.yul\":7813:7998   */\n            tag_75:\n                /* \"#utility.yul\":7853:7854   */\n              0x00\n                /* \"#utility.yul\":7870:7890   */\n              tag_228\n                /* \"#utility.yul\":7888:7889   */\n              dup3\n                /* \"#utility.yul\":7870:7890   */\n              tag_119\n              jump\t// in\n            tag_228:\n                /* \"#utility.yul\":7865:7890   */\n              swap2\n              pop\n                /* \"#utility.yul\":7904:7924   */\n              tag_229\n                /* \"#utility.yul\":7922:7923   */\n              dup4\n                /* \"#utility.yul\":7904:7924   */\n              tag_119\n              jump\t// in\n            tag_229:\n                /* \"#utility.yul\":7899:7924   */\n              swap3\n              pop\n                /* \"#utility.yul\":7943:7944   */\n              dup3\n                /* \"#utility.yul\":7933:7968   */\n              tag_230\n              jumpi\n                /* \"#utility.yul\":7948:7966   */\n              tag_231\n              tag_139\n              jump\t// in\n            tag_231:\n                /* \"#utility.yul\":7933:7968   */\n            tag_230:\n                /* \"#utility.yul\":7990:7991   */\n              dup3\n                /* \"#utility.yul\":7987:7988   */\n              dup3\n                /* \"#utility.yul\":7983:7992   */\n              div\n                /* \"#utility.yul\":7978:7992   */\n              swap1\n              pop\n                /* \"#utility.yul\":7813:7998   */\n              swap3\n              swap2\n              pop\n              pop\n              jump\t// out\n                /* \"#utility.yul\":8004:8184   */\n            tag_141:\n                /* \"#utility.yul\":8052:8129   */\n              0x4e487b7100000000000000000000000000000000000000000000000000000000\n                /* \"#utility.yul\":8049:8050   */\n              0x00\n                /* \"#utility.yul\":8042:8130   */\n              mstore\n                /* \"#utility.yul\":8149:8153   */\n              0x22\n                /* \"#utility.yul\":8146:8147   */\n              0x04\n                /* \"#utility.yul\":8139:8154   */\n              mstore\n                /* \"#utility.yul\":8173:8177   */\n              0x24\n                /* \"#utility.yul\":8170:8171   */\n              0x00\n                /* \"#utility.yul\":8163:8178   */\n              revert\n                /* \"#utility.yul\":8190:8510   */\n            tag_84:\n                /* \"#utility.yul\":8234:8240   */\n              0x00\n                /* \"#utility.yul\":8271:8272   */\n              0x02\n                /* \"#utility.yul\":8265:8269   */\n              dup3\n                /* \"#utility.yul\":8261:8273   */\n              div\n                /* \"#utility.yul\":8251:8273   */\n              swap1\n              pop\n                /* \"#utility.yul\":8318:8319   */\n              0x01\n                /* \"#utility.yul\":8312:8316   */\n              dup3\n                /* \"#utility.yul\":8308:8320   */\n              and\n                /* \"#utility.yul\":8339:8357   */\n              dup1\n                /* \"#utility.yul\":8329:8410   */\n              tag_234\n              jumpi\n                /* \"#utility.yul\":8395:8399   */\n              0x7f\n                /* \"#utility.yul\":8387:8393   */\n              dup3\n                /* \"#utility.yul\":8383:8400   */\n              and\n                /* \"#utility.yul\":8373:8400   */\n              swap2\n              pop\n                /* \"#utility.yul\":8329:8410   */\n            tag_234:\n                /* \"#utility.yul\":8457:8459   */\n              0x20\n                /* \"#utility.yul\":8449:8455   */\n              dup3\n                /* \"#utility.yul\":8446:8460   */\n              lt\n                /* \"#utility.yul\":8426:8444   */\n              dup2\n                /* \"#utility.yul\":8423:8461   */\n              eq\n                /* \"#utility.yul\":8420:8504   */\n              iszero\n              tag_235\n              jumpi\n                /* \"#utility.yul\":8476:8494   */\n              tag_236\n              tag_141\n              jump\t// in\n            tag_236:\n                /* \"#utility.yul\":8420:8504   */\n            tag_235:\n                /* \"#utility.yul\":8241:8510   */\n              pop\n                /* \"#utility.yul\":8190:8510   */\n              swap2\n              swap1\n              pop\n              jump\t// out\n                /* \"#utility.yul\":8516:8749   */\n            tag_98:\n                /* \"#utility.yul\":8555:8558   */\n              0x00\n                /* \"#utility.yul\":8578:8602   */\n              tag_238\n                /* \"#utility.yul\":8596:8601   */\n              dup3\n                /* \"#utility.yul\":8578:8602   */\n              tag_119\n              jump\t// in\n            tag_238:\n                /* \"#utility.yul\":8569:8602   */\n              swap2\n              pop\n                /* \"#utility.yul\":8624:8690   */\n              0xffffffffffffffffffffffffffffffffffffffffffffffffffffffffffffffff\n                /* \"#utility.yul\":8617:8622   */\n              dup3\n                /* \"#utility.yul\":8614:8691   */\n              eq\n                /* \"#utility.yul\":8611:8714   */\n              iszero\n              tag_239\n              jumpi\n                /* \"#utility.yul\":8694:8712   */\n              tag_240\n              tag_140\n              jump\t// in\n            tag_240:\n                /* \"#utility.yul\":8611:8714   */\n            tag_239:\n                /* \"#utility.yul\":8741:8742   */\n              0x01\n                /* \"#utility.yul\":8734:8739   */\n              dup3\n                /* \"#utility.yul\":8730:8743   */\n              add\n                /* \"#utility.yul\":8723:8743   */\n              swap1\n              pop\n                /* \"#utility.yul\":8516:8749   */\n              swap2\n              swap1\n              pop\n              jump\t// out\n\n            auxdata: 0xa2646970667358221220a6f454d225cdda5850b900ae7581d37386bcd09f896738b5dfb8fb07c5973f8864736f6c63430008090033\n        }\n    }\n\n    auxdata: 0xa2646970667358221220e6f17541493407ce258c49878aac1b934816c71b0551c94a9aaf601c939b408064736f6c63430008090033\n}\n","bytecode":{"linkReferences":{},"object":"608060405234801561001057600080fd5b506113df806100206000396000f3fe608060405234801561001057600080fd5b50600436106100415760003560e01c80639db8d7d514610046578063aa6d0a9814610062578063d6c83f4f14610092575b600080fd5b610060600480360381019061005b9190610266565b6100b0565b005b61007c60048036038101906100779190610266565b610151565b60405161008991906102d4565b60405180910390f35b61009a610190565b6040516100a791906103ad565b60405180910390f35b600081336040516100c09061021e565b6100cb9291906103de565b604051809103906000f0801580156100e7573d6000803e3d6000fd5b5090506000819080600181540180825580915050600190039060005260206000200160009091909190916101000a81548173ffffffffffffffffffffffffffffffffffffffff021916908373ffffffffffffffffffffffffffffffffffffffff1602179055505050565b6000818154811061016157600080fd5b906000526020600020016000915054906101000a900473ffffffffffffffffffffffffffffffffffffffff1681565b6060600080548060200260200160405190810160405280929190818152602001828054801561021457602002820191906000526020600020905b8160009054906101000a900473ffffffffffffffffffffffffffffffffffffffff1673ffffffffffffffffffffffffffffffffffffffff16815260200190600101908083116101ca575b5050505050905090565b610fa28061040883390190565b600080fd5b6000819050919050565b61024381610230565b811461024e57600080fd5b50565b6000813590506102608161023a565b92915050565b60006020828403121561027c5761027b61022b565b5b600061028a84828501610251565b91505092915050565b600073ffffffffffffffffffffffffffffffffffffffff82169050919050565b60006102be82610293565b9050919050565b6102ce816102b3565b82525050565b60006020820190506102e960008301846102c5565b92915050565b600081519050919050565b600082825260208201905092915050565b6000819050602082019050919050565b610324816102b3565b82525050565b6000610336838361031b565b60208301905092915050565b6000602082019050919050565b600061035a826102ef565b61036481856102fa565b935061036f8361030b565b8060005b838110156103a0578151610387888261032a565b975061039283610342565b925050600181019050610373565b5085935050505092915050565b600060208201905081810360008301526103c7818461034f565b905092915050565b6103d881610230565b82525050565b60006040820190506103f360008301856103cf565b61040060208301846102c5565b939250505056fe60806040523480156200001157600080fd5b5060405162000fa238038062000fa283398181016040528101906200003791906200012b565b81600181905550806000806101000a81548173ffffffffffffffffffffffffffffffffffffffff021916908373ffffffffffffffffffffffffffffffffffffffff160217905550505062000172565b600080fd5b6000819050919050565b620000a0816200008b565b8114620000ac57600080fd5b50565b600081519050620000c08162000095565b92915050565b600073ffffffffffffffffffffffffffffffffffffffff82169050919050565b6000620000f382620000c6565b9050919050565b6200010581620000e6565b81146200011157600080fd5b50565b6000815190506200012581620000fa565b92915050565b6000806040838503121562000145576200014462000086565b5b60006200015585828601620000af565b9250506020620001688582860162000114565b9150509250929050565b610e2080620001826000396000f3fe60806040526004361061009c5760003560e01c806381d12c581161006457806381d12c581461018c57806382fde093146101cd5780638a9cfd55146101f8578063937e09b114610221578063d7bb99ba1461024c578063d7d1bbdb146102565761009c565b806303441006146100a15780630a144391146100ca5780633410452a146101075780634051ddac14610132578063481c6a7514610161575b600080fd5b3480156100ad57600080fd5b506100c860048036038101906100c39190610921565b61027f565b005b3480156100d657600080fd5b506100f160048036038101906100ec91906109ac565b6103c7565b6040516100fe91906109f4565b60405180910390f35b34801561011357600080fd5b5061011c6103e7565b6040516101299190610a1e565b60405180910390f35b34801561013e57600080fd5b506101476103f4565b604051610158959493929190610a48565b60405180910390f35b34801561016d57600080fd5b5061017661043c565b6040516101839190610a9b565b60405180910390f35b34801561019857600080fd5b506101b360048036038101906101ae9190610921565b610460565b6040516101c4959493929190610b4f565b60405180910390f35b3480156101d957600080fd5b506101e261055b565b6040516101ef9190610a1e565b60405180910390f35b34801561020457600080fd5b5061021f600480360381019061021a9190610c0e565b610561565b005b34801561022d57600080fd5b5061023661066b565b6040516102439190610a1e565b60405180910390f35b610254610671565b005b34801561026257600080fd5b5061027d60048036038101906102789190610921565b6106f1565b005b60008054906101000a900473ffffffffffffffffffffffffffffffffffffffff1673ffffffffffffffffffffffffffffffffffffffff163373ffffffffffffffffffffffffffffffffffffffff16146102d757600080fd5b6000600482815481106102ed576102ec610c82565b5b906000526020600020906006020190508060020160009054906101000a900460ff161561031957600080fd5b60026003546103289190610d0f565b81600301541161033757600080fd5b8060040160009054906101000a900473ffffffffffffffffffffffffffffffffffffffff1673ffffffffffffffffffffffffffffffffffffffff166108fc82600101549081150290604051600060405180830381858888f193505050501580156103a5573d6000803e3d6000fd5b5060018160020160006101000a81548160ff0219169083151502179055505050565b60026020528060005260406000206000915054906101000a900460ff1681565b6000600480549050905090565b60008060008060008060009054906101000a900473ffffffffffffffffffffffffffffffffffffffff1660015460048054905060035447945094509450945094509091929394565b60008054906101000a900473ffffffffffffffffffffffffffffffffffffffff1681565b6004818154811061047057600080fd5b906000526020600020906006020160009150905080600001805461049390610d6f565b80601f01602080910402602001604051908101604052809291908181526020018280546104bf90610d6f565b801561050c5780601f106104e15761010080835404028352916020019161050c565b820191906000526020600020905b8154815290600101906020018083116104ef57829003601f168201915b5050505050908060010154908060020160009054906101000a900460ff16908060030154908060040160009054906101000a900473ffffffffffffffffffffffffffffffffffffffff16905085565b60035481565b60008054906101000a900473ffffffffffffffffffffffffffffffffffffffff1673ffffffffffffffffffffffffffffffffffffffff163373ffffffffffffffffffffffffffffffffffffffff16146105b957600080fd5b60006004600181600181540180825580915050039060005260206000209060060201905084848260000191906105f092919061083e565b50828160010181905550818160040160006101000a81548173ffffffffffffffffffffffffffffffffffffffff021916908373ffffffffffffffffffffffffffffffffffffffff16021790555060008160020160006101000a81548160ff021916908315150217905550600081600301819055505050505050565b60015481565b600154341161067f57600080fd5b6001600260003373ffffffffffffffffffffffffffffffffffffffff1673ffffffffffffffffffffffffffffffffffffffff16815260200190815260200160002060006101000a81548160ff021916908315150217905550600360008154809291906106ea90610da1565b9190505550565b600260003373ffffffffffffffffffffffffffffffffffffffff1673ffffffffffffffffffffffffffffffffffffffff16815260200190815260200160002060009054906101000a900460ff1661074757600080fd5b60006004828154811061075d5761075c610c82565b5b906000526020600020906006020190508060050160003373ffffffffffffffffffffffffffffffffffffffff1673ffffffffffffffffffffffffffffffffffffffff16815260200190815260200160002060009054906101000a900460ff16156107c657600080fd5b60018160050160003373ffffffffffffffffffffffffffffffffffffffff1673ffffffffffffffffffffffffffffffffffffffff16815260200190815260200160002060006101000a81548160ff02191690831515021790555080600301600081548092919061083590610da1565b91905055505050565b82805461084a90610d6f565b90600052602060002090601f01602090048101928261086c57600085556108b3565b82601f1061088557803560ff19168380011785556108b3565b828001600101855582156108b3579182015b828111156108b2578235825591602001919060010190610897565b5b5090506108c091906108c4565b5090565b5b808211156108dd5760008160009055506001016108c5565b5090565b600080fd5b600080fd5b6000819050919050565b6108fe816108eb565b811461090957600080fd5b50565b60008135905061091b816108f5565b92915050565b600060208284031215610937576109366108e1565b5b60006109458482850161090c565b91505092915050565b600073ffffffffffffffffffffffffffffffffffffffff82169050919050565b60006109798261094e565b9050919050565b6109898161096e565b811461099457600080fd5b50565b6000813590506109a681610980565b92915050565b6000602082840312156109c2576109c16108e1565b5b60006109d084828501610997565b91505092915050565b60008115159050919050565b6109ee816109d9565b82525050565b6000602082019050610a0960008301846109e5565b92915050565b610a18816108eb565b82525050565b6000602082019050610a336000830184610a0f565b92915050565b610a428161096e565b82525050565b600060a082019050610a5d6000830188610a39565b610a6a6020830187610a0f565b610a776040830186610a0f565b610a846060830185610a0f565b610a916080830184610a0f565b9695505050505050565b6000602082019050610ab06000830184610a39565b92915050565b600081519050919050565b600082825260208201905092915050565b60005b83811015610af0578082015181840152602081019050610ad5565b83811115610aff576000848401525b50505050565b6000601f19601f8301169050919050565b6000610b2182610ab6565b610b2b8185610ac1565b9350610b3b818560208601610ad2565b610b4481610b05565b840191505092915050565b600060a0820190508181036000830152610b698188610b16565b9050610b786020830187610a0f565b610b8560408301866109e5565b610b926060830185610a0f565b610b9f6080830184610a39565b9695505050505050565b600080fd5b600080fd5b600080fd5b60008083601f840112610bce57610bcd610ba9565b5b8235905067ffffffffffffffff811115610beb57610bea610bae565b5b602083019150836001820283011115610c0757610c06610bb3565b5b9250929050565b60008060008060608587031215610c2857610c276108e1565b5b600085013567ffffffffffffffff811115610c4657610c456108e6565b5b610c5287828801610bb8565b94509450506020610c658782880161090c565b9250506040610c7687828801610997565b91505092959194509250565b7f4e487b7100000000000000000000000000000000000000000000000000000000600052603260045260246000fd5b7f4e487b7100000000000000000000000000000000000000000000000000000000600052601260045260246000fd5b7f4e487b7100000000000000000000000000000000000000000000000000000000600052601160045260246000fd5b6000610d1a826108eb565b9150610d25836108eb565b925082610d3557610d34610cb1565b5b828204905092915050565b7f4e487b7100000000000000000000000000000000000000000000000000000000600052602260045260246000fd5b60006002820490506001821680610d8757607f821691505b60208210811415610d9b57610d9a610d40565b5b50919050565b6000610dac826108eb565b91507fffffffffffffffffffffffffffffffffffffffffffffffffffffffffffffffff821415610ddf57610dde610ce0565b5b60018201905091905056fea2646970667358221220a6f454d225cdda5850b900ae7581d37386bcd09f896738b5dfb8fb07c5973f8864736f6c63430008090033a2646970667358221220e6f17541493407ce258c49878aac1b934816c71b0551c94a9aaf601c939b408064736f6c63430008090033","opcodes":"PUSH1 0x80 PUSH1 0x40 MSTORE CALLVALUE DUP1 ISZERO PUSH2 0x10 JUMPI PUSH1 0x0 DUP1 REVERT JUMPDEST POP PUSH2 0x13DF DUP1 PUSH2 0x20 PUSH1 0x0 CODECOPY PUSH1 0x0 RETURN INVALID PUSH1 0x80 PUSH1 0x40 MSTORE CALLVALUE DUP1 ISZERO PUSH2 0x10 JUMPI PUSH1 0x0 DUP1 REVERT JUMPDEST POP PUSH1 0x4 CALLDATASIZE LT PUSH2 0x41 JUMPI PUSH1 0x0 CALLDATALOAD PUSH1 0xE0 SHR DUP1 PUSH4 0x9DB8D7D5 EQ PUSH2 0x46 JUMPI DUP1 PUSH4 0xAA6D0A98 EQ PUSH2 0x62 JUMPI DUP1 PUSH4 0xD6C83F4F EQ PUSH2 0x92 JUMPI JUMPDEST PUSH1 0x0 DUP1 REVERT JUMPDEST PUSH2 0x60 PUSH1 0x4 DUP1 CALLDATASIZE SUB DUP2 ADD SWAP1 PUSH2 0x5B SWAP2 SWAP1 PUSH2 0x266 JUMP JUMPDEST PUSH2 0xB0 JUMP JUMPDEST STOP JUMPDEST PUSH2 0x7C PUSH1 0x4 DUP1 CALLDATASIZE SUB DUP2 ADD SWAP1 PUSH2 0x77 SWAP2 SWAP1 PUSH2 0x266 JUMP JUMPDEST PUSH2 0x151 JUMP JUMPDEST PUSH1 0x40 MLOAD PUSH2 0x89 SWAP2 SWAP1 PUSH2 0x2D4 JUMP JUMPDEST PUSH1 0x40 MLOAD DUP1 SWAP2 SUB SWAP1 RETURN JUMPDEST PUSH2 0x9A PUSH2 0x190 JUMP JUMPDEST PUSH1 0x40 MLOAD PUSH2 0xA7 SWAP2 SWAP1 PUSH2 0x3AD JUMP JUMPDEST PUSH1 0x40 MLOAD DUP1 SWAP2 SUB SWAP1 RETURN JUMPDEST PUSH1 0x0 DUP2 CALLER PUSH1 0x40 MLOAD PUSH2 0xC0 SWAP1 PUSH2 0x21E JUMP JUMPDEST PUSH2 0xCB SWAP3 SWAP2 SWAP1 PUSH2 0x3DE JUMP JUMPDEST PUSH1 0x40 MLOAD DUP1 SWAP2 SUB SWAP1 PUSH1 0x0 CREATE DUP1 ISZERO DUP1 ISZERO PUSH2 0xE7 JUMPI RETURNDATASIZE PUSH1 0x0 DUP1 RETURNDATACOPY RETURNDATASIZE PUSH1 0x0 REVERT JUMPDEST POP SWAP1 POP PUSH1 0x0 DUP2 SWAP1 DUP1 PUSH1 0x1 DUP2 SLOAD ADD DUP1 DUP3 SSTORE DUP1 SWAP2 POP POP PUSH1 0x1 SWAP1 SUB SWAP1 PUSH1 0x0 MSTORE PUSH1 0x20 PUSH1 0x0 KECCAK256 ADD PUSH1 0x0 SWAP1 SWAP2 SWAP1 SWAP2 SWAP1 SWAP2 PUSH2 0x100 EXP DUP2 SLOAD DUP2 PUSH20 0xFFFFFFFFFFFFFFFFFFFFFFFFFFFFFFFFFFFFFFFF MUL NOT AND SWAP1 DUP4 PUSH20 0xFFFFFFFFFFFFFFFFFFFFFFFFFFFFFFFFFFFFFFFF AND MUL OR SWAP1 SSTORE POP POP POP JUMP JUMPDEST PUSH1 0x0 DUP2 DUP2 SLOAD DUP2 LT PUSH2 0x161 JUMPI PUSH1 0x0 DUP1 REVERT JUMPDEST SWAP1 PUSH1 0x0 MSTORE PUSH1 0x20 PUSH1 0x0 KECCAK256 ADD PUSH1 0x0 SWAP2 POP SLOAD SWAP1 PUSH2 0x100 EXP SWAP1 DIV PUSH20 0xFFFFFFFFFFFFFFFFFFFFFFFFFFFFFFFFFFFFFFFF AND DUP2 JUMP JUMPDEST PUSH1 0x60 PUSH1 0x0 DUP1 SLOAD DUP1 PUSH1 0x20 MUL PUSH1 0x20 ADD PUSH1 0x40 MLOAD SWAP1 DUP2 ADD PUSH1 0x40 MSTORE DUP1 SWAP3 SWAP2 SWAP1 DUP2 DUP2 MSTORE PUSH1 0x20 ADD DUP3 DUP1 SLOAD DUP1 ISZERO PUSH2 0x214 JUMPI PUSH1 0x20 MUL DUP3 ADD SWAP2 SWAP1 PUSH1 0x0 MSTORE PUSH1 0x20 PUSH1 0x0 KECCAK256 SWAP1 JUMPDEST DUP2 PUSH1 0x0 SWAP1 SLOAD SWAP1 PUSH2 0x100 EXP SWAP1 DIV PUSH20 0xFFFFFFFFFFFFFFFFFFFFFFFFFFFFFFFFFFFFFFFF AND PUSH20 0xFFFFFFFFFFFFFFFFFFFFFFFFFFFFFFFFFFFFFFFF AND DUP2 MSTORE PUSH1 0x20 ADD SWAP1 PUSH1 0x1 ADD SWAP1 DUP1 DUP4 GT PUSH2 0x1CA JUMPI JUMPDEST POP POP POP POP POP SWAP1 POP SWAP1 JUMP JUMPDEST PUSH2 0xFA2 DUP1 PUSH2 0x408 DUP4 CODECOPY ADD SWAP1 JUMP JUMPDEST PUSH1 0x0 DUP1 REVERT JUMPDEST PUSH1 0x0 DUP2 SWAP1 POP SWAP2 SWAP1 POP JUMP JUMPDEST PUSH2 0x243 DUP2 PUSH2 0x230 JUMP JUMPDEST DUP2 EQ PUSH2 0x24E JUMPI PUSH1 0x0 DUP1 REVERT JUMPDEST POP JUMP JUMPDEST PUSH1 0x0 DUP2 CALLDATALOAD SWAP1 POP PUSH2 0x260 DUP2 PUSH2 0x23A JUMP JUMPDEST SWAP3 SWAP2 POP POP JUMP JUMPDEST PUSH1 0x0 PUSH1 0x20 DUP3 DUP5 SUB SLT ISZERO PUSH2 0x27C JUMPI PUSH2 0x27B PUSH2 0x22B JUMP JUMPDEST JUMPDEST PUSH1 0x0 PUSH2 0x28A DUP5 DUP3 DUP6 ADD PUSH2 0x251 JUMP JUMPDEST SWAP2 POP POP SWAP3 SWAP2 POP POP JUMP JUMPDEST PUSH1 0x0 PUSH20 0xFFFFFFFFFFFFFFFFFFFFFFFFFFFFFFFFFFFFFFFF DUP3 AND SWAP1 POP SWAP2 SWAP1 POP JUMP JUMPDEST PUSH1 0x0 PUSH2 0x2BE DUP3 PUSH2 0x293 JUMP JUMPDEST SWAP1 POP SWAP2 SWAP1 POP JUMP JUMPDEST PUSH2 0x2CE DUP2 PUSH2 0x2B3 JUMP JUMPDEST DUP3 MSTORE POP POP JUMP JUMPDEST PUSH1 0x0 PUSH1 0x20 DUP3 ADD SWAP1 POP PUSH2 0x2E9 PUSH1 0x0 DUP4 ADD DUP5 PUSH2 0x2C5 JUMP JUMPDEST SWAP3 SWAP2 POP POP JUMP JUMPDEST PUSH1 0x0 DUP2 MLOAD SWAP1 POP SWAP2 SWAP1 POP JUMP JUMPDEST PUSH1 0x0 DUP3 DUP3 MSTORE PUSH1 0x20 DUP3 ADD SWAP1 POP SWAP3 SWAP2 POP POP JUMP JUMPDEST PUSH1 0x0 DUP2 SWAP1 POP PUSH1 0x20 DUP3 ADD SWAP1 POP SWAP2 SWAP1 POP JUMP JUMPDEST PUSH2 0x324 DUP2 PUSH2 0x2B3 JUMP JUMPDEST DUP3 MSTORE POP POP JUMP JUMPDEST PUSH1 0x0 PUSH2 0x336 DUP4 DUP4 PUSH2 0x31B JUMP JUMPDEST PUSH1 0x20 DUP4 ADD SWAP1 POP SWAP3 SWAP2 POP POP JUMP JUMPDEST PUSH1 0x0 PUSH1 0x20 DUP3 ADD SWAP1 POP SWAP2 SWAP1 POP JUMP JUMPDEST PUSH1 0x0 PUSH2 0x35A DUP3 PUSH2 0x2EF JUMP JUMPDEST PUSH2 0x364 DUP2 DUP6 PUSH2 0x2FA JUMP JUMPDEST SWAP4 POP PUSH2 0x36F DUP4 PUSH2 0x30B JUMP JUMPDEST DUP1 PUSH1 0x0 JUMPDEST DUP4 DUP2 LT ISZERO PUSH2 0x3A0 JUMPI DUP2 MLOAD PUSH2 0x387 DUP9 DUP3 PUSH2 0x32A JUMP JUMPDEST SWAP8 POP PUSH2 0x392 DUP4 PUSH2 0x342 JUMP JUMPDEST SWAP3 POP POP PUSH1 0x1 DUP2 ADD SWAP1 POP PUSH2 0x373 JUMP JUMPDEST POP DUP6 SWAP4 POP POP POP POP SWAP3 SWAP2 POP POP JUMP JUMPDEST PUSH1 0x0 PUSH1 0x20 DUP3 ADD SWAP1 POP DUP2 DUP2 SUB PUSH1 0x0 DUP4 ADD MSTORE PUSH2 0x3C7 DUP2 DUP5 PUSH2 0x34F JUMP JUMPDEST SWAP1 POP SWAP3 SWAP2 POP POP JUMP JUMPDEST PUSH2 0x3D8 DUP2 PUSH2 0x230 JUMP JUMPDEST DUP3 MSTORE POP POP JUMP JUMPDEST PUSH1 0x0 PUSH1 0x40 DUP3 ADD SWAP1 POP PUSH2 0x3F3 PUSH1 0x0 DUP4 ADD DUP6 PUSH2 0x3CF JUMP JUMPDEST PUSH2 0x400 PUSH1 0x20 DUP4 ADD DUP5 PUSH2 0x2C5 JUMP JUMPDEST SWAP4 SWAP3 POP POP POP JUMP INVALID PUSH1 0x80 PUSH1 0x40 MSTORE CALLVALUE DUP1 ISZERO PUSH3 0x11 JUMPI PUSH1 0x0 DUP1 REVERT JUMPDEST POP PUSH1 0x40 MLOAD PUSH3 0xFA2 CODESIZE SUB DUP1 PUSH3 0xFA2 DUP4 CODECOPY DUP2 DUP2 ADD PUSH1 0x40 MSTORE DUP2 ADD SWAP1 PUSH3 0x37 SWAP2 SWAP1 PUSH3 0x12B JUMP JUMPDEST DUP2 PUSH1 0x1 DUP2 SWAP1 SSTORE POP DUP1 PUSH1 0x0 DUP1 PUSH2 0x100 EXP DUP2 SLOAD DUP2 PUSH20 0xFFFFFFFFFFFFFFFFFFFFFFFFFFFFFFFFFFFFFFFF MUL NOT AND SWAP1 DUP4 PUSH20 0xFFFFFFFFFFFFFFFFFFFFFFFFFFFFFFFFFFFFFFFF AND MUL OR SWAP1 SSTORE POP POP POP PUSH3 0x172 JUMP JUMPDEST PUSH1 0x0 DUP1 REVERT JUMPDEST PUSH1 0x0 DUP2 SWAP1 POP SWAP2 SWAP1 POP JUMP JUMPDEST PUSH3 0xA0 DUP2 PUSH3 0x8B JUMP JUMPDEST DUP2 EQ PUSH3 0xAC JUMPI PUSH1 0x0 DUP1 REVERT JUMPDEST POP JUMP JUMPDEST PUSH1 0x0 DUP2 MLOAD SWAP1 POP PUSH3 0xC0 DUP2 PUSH3 0x95 JUMP JUMPDEST SWAP3 SWAP2 POP POP JUMP JUMPDEST PUSH1 0x0 PUSH20 0xFFFFFFFFFFFFFFFFFFFFFFFFFFFFFFFFFFFFFFFF DUP3 AND SWAP1 POP SWAP2 SWAP1 POP JUMP JUMPDEST PUSH1 0x0 PUSH3 0xF3 DUP3 PUSH3 0xC6 JUMP JUMPDEST SWAP1 POP SWAP2 SWAP1 POP JUMP JUMPDEST PUSH3 0x105 DUP2 PUSH3 0xE6 JUMP JUMPDEST DUP2 EQ PUSH3 0x111 JUMPI PUSH1 0x0 DUP1 REVERT JUMPDEST POP JUMP JUMPDEST PUSH1 0x0 DUP2 MLOAD SWAP1 POP PUSH3 0x125 DUP2 PUSH3 0xFA JUMP JUMPDEST SWAP3 SWAP2 POP POP JUMP JUMPDEST PUSH1 0x0 DUP1 PUSH1 0x40 DUP4 DUP6 SUB SLT ISZERO PUSH3 0x145 JUMPI PUSH3 0x144 PUSH3 0x86 JUMP JUMPDEST JUMPDEST PUSH1 0x0 PUSH3 0x155 DUP6 DUP3 DUP7 ADD PUSH3 0xAF JUMP JUMPDEST SWAP3 POP POP PUSH1 0x20 PUSH3 0x168 DUP6 DUP3 DUP7 ADD PUSH3 0x114 JUMP JUMPDEST SWAP2 POP POP SWAP3 POP SWAP3 SWAP1 POP JUMP JUMPDEST PUSH2 0xE20 DUP1 PUSH3 0x182 PUSH1 0x0 CODECOPY PUSH1 0x0 RETURN INVALID PUSH1 0x80 PUSH1 0x40 MSTORE PUSH1 0x4 CALLDATASIZE LT PUSH2 0x9C JUMPI PUSH1 0x0 CALLDATALOAD PUSH1 0xE0 SHR DUP1 PUSH4 0x81D12C58 GT PUSH2 0x64 JUMPI DUP1 PUSH4 0x81D12C58 EQ PUSH2 0x18C JUMPI DUP1 PUSH4 0x82FDE093 EQ PUSH2 0x1CD JUMPI DUP1 PUSH4 0x8A9CFD55 EQ PUSH2 0x1F8 JUMPI DUP1 PUSH4 0x937E09B1 EQ PUSH2 0x221 JUMPI DUP1 PUSH4 0xD7BB99BA EQ PUSH2 0x24C JUMPI DUP1 PUSH4 0xD7D1BBDB EQ PUSH2 0x256 JUMPI PUSH2 0x9C JUMP JUMPDEST DUP1 PUSH4 0x3441006 EQ PUSH2 0xA1 JUMPI DUP1 PUSH4 0xA144391 EQ PUSH2 0xCA JUMPI DUP1 PUSH4 0x3410452A EQ PUSH2 0x107 JUMPI DUP1 PUSH4 0x4051DDAC EQ PUSH2 0x132 JUMPI DUP1 PUSH4 0x481C6A75 EQ PUSH2 0x161 JUMPI JUMPDEST PUSH1 0x0 DUP1 REVERT JUMPDEST CALLVALUE DUP1 ISZERO PUSH2 0xAD JUMPI PUSH1 0x0 DUP1 REVERT JUMPDEST POP PUSH2 0xC8 PUSH1 0x4 DUP1 CALLDATASIZE SUB DUP2 ADD SWAP1 PUSH2 0xC3 SWAP2 SWAP1 PUSH2 0x921 JUMP JUMPDEST PUSH2 0x27F JUMP JUMPDEST STOP JUMPDEST CALLVALUE DUP1 ISZERO PUSH2 0xD6 JUMPI PUSH1 0x0 DUP1 REVERT JUMPDEST POP PUSH2 0xF1 PUSH1 0x4 DUP1 CALLDATASIZE SUB DUP2 ADD SWAP1 PUSH2 0xEC SWAP2 SWAP1 PUSH2 0x9AC JUMP JUMPDEST PUSH2 0x3C7 JUMP JUMPDEST PUSH1 0x40 MLOAD PUSH2 0xFE SWAP2 SWAP1 PUSH2 0x9F4 JUMP JUMPDEST PUSH1 0x40 MLOAD DUP1 SWAP2 SUB SWAP1 RETURN JUMPDEST CALLVALUE DUP1 ISZERO PUSH2 0x113 JUMPI PUSH1 0x0 DUP1 REVERT JUMPDEST POP PUSH2 0x11C PUSH2 0x3E7 JUMP JUMPDEST PUSH1 0x40 MLOAD PUSH2 0x129 SWAP2 SWAP1 PUSH2 0xA1E JUMP JUMPDEST PUSH1 0x40 MLOAD DUP1 SWAP2 SUB SWAP1 RETURN JUMPDEST CALLVALUE DUP1 ISZERO PUSH2 0x13E JUMPI PUSH1 0x0 DUP1 REVERT JUMPDEST POP PUSH2 0x147 PUSH2 0x3F4 JUMP JUMPDEST PUSH1 0x40 MLOAD PUSH2 0x158 SWAP6 SWAP5 SWAP4 SWAP3 SWAP2 SWAP1 PUSH2 0xA48 JUMP JUMPDEST PUSH1 0x40 MLOAD DUP1 SWAP2 SUB SWAP1 RETURN JUMPDEST CALLVALUE DUP1 ISZERO PUSH2 0x16D JUMPI PUSH1 0x0 DUP1 REVERT JUMPDEST POP PUSH2 0x176 PUSH2 0x43C JUMP JUMPDEST PUSH1 0x40 MLOAD PUSH2 0x183 SWAP2 SWAP1 PUSH2 0xA9B JUMP JUMPDEST PUSH1 0x40 MLOAD DUP1 SWAP2 SUB SWAP1 RETURN JUMPDEST CALLVALUE DUP1 ISZERO PUSH2 0x198 JUMPI PUSH1 0x0 DUP1 REVERT JUMPDEST POP PUSH2 0x1B3 PUSH1 0x4 DUP1 CALLDATASIZE SUB DUP2 ADD SWAP1 PUSH2 0x1AE SWAP2 SWAP1 PUSH2 0x921 JUMP JUMPDEST PUSH2 0x460 JUMP JUMPDEST PUSH1 0x40 MLOAD PUSH2 0x1C4 SWAP6 SWAP5 SWAP4 SWAP3 SWAP2 SWAP1 PUSH2 0xB4F JUMP JUMPDEST PUSH1 0x40 MLOAD DUP1 SWAP2 SUB SWAP1 RETURN JUMPDEST CALLVALUE DUP1 ISZERO PUSH2 0x1D9 JUMPI PUSH1 0x0 DUP1 REVERT JUMPDEST POP PUSH2 0x1E2 PUSH2 0x55B JUMP JUMPDEST PUSH1 0x40 MLOAD PUSH2 0x1EF SWAP2 SWAP1 PUSH2 0xA1E JUMP JUMPDEST PUSH1 0x40 MLOAD DUP1 SWAP2 SUB SWAP1 RETURN JUMPDEST CALLVALUE DUP1 ISZERO PUSH2 0x204 JUMPI PUSH1 0x0 DUP1 REVERT JUMPDEST POP PUSH2 0x21F PUSH1 0x4 DUP1 CALLDATASIZE SUB DUP2 ADD SWAP1 PUSH2 0x21A SWAP2 SWAP1 PUSH2 0xC0E JUMP JUMPDEST PUSH2 0x561 JUMP JUMPDEST STOP JUMPDEST CALLVALUE DUP1 ISZERO PUSH2 0x22D JUMPI PUSH1 0x0 DUP1 REVERT JUMPDEST POP PUSH2 0x236 PUSH2 0x66B JUMP JUMPDEST PUSH1 0x40 MLOAD PUSH2 0x243 SWAP2 SWAP1 PUSH2 0xA1E JUMP JUMPDEST PUSH1 0x40 MLOAD DUP1 SWAP2 SUB SWAP1 RETURN JUMPDEST PUSH2 0x254 PUSH2 0x671 JUMP JUMPDEST STOP JUMPDEST CALLVALUE DUP1 ISZERO PUSH2 0x262 JUMPI PUSH1 0x0 DUP1 REVERT JUMPDEST POP PUSH2 0x27D PUSH1 0x4 DUP1 CALLDATASIZE SUB DUP2 ADD SWAP1 PUSH2 0x278 SWAP2 SWAP1 PUSH2 0x921 JUMP JUMPDEST PUSH2 0x6F1 JUMP JUMPDEST STOP JUMPDEST PUSH1 0x0 DUP1 SLOAD SWAP1 PUSH2 0x100 EXP SWAP1 DIV PUSH20 0xFFFFFFFFFFFFFFFFFFFFFFFFFFFFFFFFFFFFFFFF AND PUSH20 0xFFFFFFFFFFFFFFFFFFFFFFFFFFFFFFFFFFFFFFFF AND CALLER PUSH20 0xFFFFFFFFFFFFFFFFFFFFFFFFFFFFFFFFFFFFFFFF AND EQ PUSH2 0x2D7 JUMPI PUSH1 0x0 DUP1 REVERT JUMPDEST PUSH1 0x0 PUSH1 0x4 DUP3 DUP2 SLOAD DUP2 LT PUSH2 0x2ED JUMPI PUSH2 0x2EC PUSH2 0xC82 JUMP JUMPDEST JUMPDEST SWAP1 PUSH1 0x0 MSTORE PUSH1 0x20 PUSH1 0x0 KECCAK256 SWAP1 PUSH1 0x6 MUL ADD SWAP1 POP DUP1 PUSH1 0x2 ADD PUSH1 0x0 SWAP1 SLOAD SWAP1 PUSH2 0x100 EXP SWAP1 DIV PUSH1 0xFF AND ISZERO PUSH2 0x319 JUMPI PUSH1 0x0 DUP1 REVERT JUMPDEST PUSH1 0x2 PUSH1 0x3 SLOAD PUSH2 0x328 SWAP2 SWAP1 PUSH2 0xD0F JUMP JUMPDEST DUP2 PUSH1 0x3 ADD SLOAD GT PUSH2 0x337 JUMPI PUSH1 0x0 DUP1 REVERT JUMPDEST DUP1 PUSH1 0x4 ADD PUSH1 0x0 SWAP1 SLOAD SWAP1 PUSH2 0x100 EXP SWAP1 DIV PUSH20 0xFFFFFFFFFFFFFFFFFFFFFFFFFFFFFFFFFFFFFFFF AND PUSH20 0xFFFFFFFFFFFFFFFFFFFFFFFFFFFFFFFFFFFFFFFF AND PUSH2 0x8FC DUP3 PUSH1 0x1 ADD SLOAD SWAP1 DUP2 ISZERO MUL SWAP1 PUSH1 0x40 MLOAD PUSH1 0x0 PUSH1 0x40 MLOAD DUP1 DUP4 SUB DUP2 DUP6 DUP9 DUP9 CALL SWAP4 POP POP POP POP ISZERO DUP1 ISZERO PUSH2 0x3A5 JUMPI RETURNDATASIZE PUSH1 0x0 DUP1 RETURNDATACOPY RETURNDATASIZE PUSH1 0x0 REVERT JUMPDEST POP PUSH1 0x1 DUP2 PUSH1 0x2 ADD PUSH1 0x0 PUSH2 0x100 EXP DUP2 SLOAD DUP2 PUSH1 0xFF MUL NOT AND SWAP1 DUP4 ISZERO ISZERO MUL OR SWAP1 SSTORE POP POP POP JUMP JUMPDEST PUSH1 0x2 PUSH1 0x20 MSTORE DUP1 PUSH1 0x0 MSTORE PUSH1 0x40 PUSH1 0x0 KECCAK256 PUSH1 0x0 SWAP2 POP SLOAD SWAP1 PUSH2 0x100 EXP SWAP1 DIV PUSH1 0xFF AND DUP2 JUMP JUMPDEST PUSH1 0x0 PUSH1 0x4 DUP1 SLOAD SWAP1 POP SWAP1 POP SWAP1 JUMP JUMPDEST PUSH1 0x0 DUP1 PUSH1 0x0 DUP1 PUSH1 0x0 DUP1 PUSH1 0x0 SWAP1 SLOAD SWAP1 PUSH2 0x100 EXP SWAP1 DIV PUSH20 0xFFFFFFFFFFFFFFFFFFFFFFFFFFFFFFFFFFFFFFFF AND PUSH1 0x1 SLOAD PUSH1 0x4 DUP1 SLOAD SWAP1 POP PUSH1 0x3 SLOAD SELFBALANCE SWAP5 POP SWAP5 POP SWAP5 POP SWAP5 POP SWAP5 POP SWAP1 SWAP2 SWAP3 SWAP4 SWAP5 JUMP JUMPDEST PUSH1 0x0 DUP1 SLOAD SWAP1 PUSH2 0x100 EXP SWAP1 DIV PUSH20 0xFFFFFFFFFFFFFFFFFFFFFFFFFFFFFFFFFFFFFFFF AND DUP2 JUMP JUMPDEST PUSH1 0x4 DUP2 DUP2 SLOAD DUP2 LT PUSH2 0x470 JUMPI PUSH1 0x0 DUP1 REVERT JUMPDEST SWAP1 PUSH1 0x0 MSTORE PUSH1 0x20 PUSH1 0x0 KECCAK256 SWAP1 PUSH1 0x6 MUL ADD PUSH1 0x0 SWAP2 POP SWAP1 POP DUP1 PUSH1 0x0 ADD DUP1 SLOAD PUSH2 0x493 SWAP1 PUSH2 0xD6F JUMP JUMPDEST DUP1 PUSH1 0x1F ADD PUSH1 0x20 DUP1 SWAP2 DIV MUL PUSH1 0x20 ADD PUSH1 0x40 MLOAD SWAP1 DUP2 ADD PUSH1 0x40 MSTORE DUP1 SWAP3 SWAP2 SWAP1 DUP2 DUP2 MSTORE PUSH1 0x20 ADD DUP3 DUP1 SLOAD PUSH2 0x4BF SWAP1 PUSH2 0xD6F JUMP JUMPDEST DUP1 ISZERO PUSH2 0x50C JUMPI DUP1 PUSH1 0x1F LT PUSH2 0x4E1 JUMPI PUSH2 0x100 DUP1 DUP4 SLOAD DIV MUL DUP4 MSTORE SWAP2 PUSH1 0x20 ADD SWAP2 PUSH2 0x50C JUMP JUMPDEST DUP3 ADD SWAP2 SWAP1 PUSH1 0x0 MSTORE PUSH1 0x20 PUSH1 0x0 KECCAK256 SWAP1 JUMPDEST DUP2 SLOAD DUP2 MSTORE SWAP1 PUSH1 0x1 ADD SWAP1 PUSH1 0x20 ADD DUP1 DUP4 GT PUSH2 0x4EF JUMPI DUP3 SWAP1 SUB PUSH1 0x1F AND DUP3 ADD SWAP2 JUMPDEST POP POP POP POP POP SWAP1 DUP1 PUSH1 0x1 ADD SLOAD SWAP1 DUP1 PUSH1 0x2 ADD PUSH1 0x0 SWAP1 SLOAD SWAP1 PUSH2 0x100 EXP SWAP1 DIV PUSH1 0xFF AND SWAP1 DUP1 PUSH1 0x3 ADD SLOAD SWAP1 DUP1 PUSH1 0x4 ADD PUSH1 0x0 SWAP1 SLOAD SWAP1 PUSH2 0x100 EXP SWAP1 DIV PUSH20 0xFFFFFFFFFFFFFFFFFFFFFFFFFFFFFFFFFFFFFFFF AND SWAP1 POP DUP6 JUMP JUMPDEST PUSH1 0x3 SLOAD DUP2 JUMP JUMPDEST PUSH1 0x0 DUP1 SLOAD SWAP1 PUSH2 0x100 EXP SWAP1 DIV PUSH20 0xFFFFFFFFFFFFFFFFFFFFFFFFFFFFFFFFFFFFFFFF AND PUSH20 0xFFFFFFFFFFFFFFFFFFFFFFFFFFFFFFFFFFFFFFFF AND CALLER PUSH20 0xFFFFFFFFFFFFFFFFFFFFFFFFFFFFFFFFFFFFFFFF AND EQ PUSH2 0x5B9 JUMPI PUSH1 0x0 DUP1 REVERT JUMPDEST PUSH1 0x0 PUSH1 0x4 PUSH1 0x1 DUP2 PUSH1 0x1 DUP2 SLOAD ADD DUP1 DUP3 SSTORE DUP1 SWAP2 POP POP SUB SWAP1 PUSH1 0x0 MSTORE PUSH1 0x20 PUSH1 0x0 KECCAK256 SWAP1 PUSH1 0x6 MUL ADD SWAP1 POP DUP5 DUP5 DUP3 PUSH1 0x0 ADD SWAP2 SWAP1 PUSH2 0x5F0 SWAP3 SWAP2 SWAP1 PUSH2 0x83E JUMP JUMPDEST POP DUP3 DUP2 PUSH1 0x1 ADD DUP2 SWAP1 SSTORE POP DUP2 DUP2 PUSH1 0x4 ADD PUSH1 0x0 PUSH2 0x100 EXP DUP2 SLOAD DUP2 PUSH20 0xFFFFFFFFFFFFFFFFFFFFFFFFFFFFFFFFFFFFFFFF MUL NOT AND SWAP1 DUP4 PUSH20 0xFFFFFFFFFFFFFFFFFFFFFFFFFFFFFFFFFFFFFFFF AND MUL OR SWAP1 SSTORE POP PUSH1 0x0 DUP2 PUSH1 0x2 ADD PUSH1 0x0 PUSH2 0x100 EXP DUP2 SLOAD DUP2 PUSH1 0xFF MUL NOT AND SWAP1 DUP4 ISZERO ISZERO MUL OR SWAP1 SSTORE POP PUSH1 0x0 DUP2 PUSH1 0x3 ADD DUP2 SWAP1 SSTORE POP POP POP POP POP POP JUMP JUMPDEST PUSH1 0x1 SLOAD DUP2 JUMP JUMPDEST PUSH1 0x1 SLOAD CALLVALUE GT PUSH2 0x67F JUMPI PUSH1 0x0 DUP1 REVERT JUMPDEST PUSH1 0x1 PUSH1 0x2 PUSH1 0x0 CALLER PUSH20 0xFFFFFFFFFFFFFFFFFFFFFFFFFFFFFFFFFFFFFFFF AND PUSH20 0xFFFFFFFFFFFFFFFFFFFFFFFFFFFFFFFFFFFFFFFF AND DUP2 MSTORE PUSH1 0x20 ADD SWAP1 DUP2 MSTORE PUSH1 0x20 ADD PUSH1 0x0 KECCAK256 PUSH1 0x0 PUSH2 0x100 EXP DUP2 SLOAD DUP2 PUSH1 0xFF MUL NOT AND SWAP1 DUP4 ISZERO ISZERO MUL OR SWAP1 SSTORE POP PUSH1 0x3 PUSH1 0x0 DUP2 SLOAD DUP1 SWAP3 SWAP2 SWAP1 PUSH2 0x6EA SWAP1 PUSH2 0xDA1 JUMP JUMPDEST SWAP2 SWAP1 POP SSTORE POP JUMP JUMPDEST PUSH1 0x2 PUSH1 0x0 CALLER PUSH20 0xFFFFFFFFFFFFFFFFFFFFFFFFFFFFFFFFFFFFFFFF AND PUSH20 0xFFFFFFFFFFFFFFFFFFFFFFFFFFFFFFFFFFFFFFFF AND DUP2 MSTORE PUSH1 0x20 ADD SWAP1 DUP2 MSTORE PUSH1 0x20 ADD PUSH1 0x0 KECCAK256 PUSH1 0x0 SWAP1 SLOAD SWAP1 PUSH2 0x100 EXP SWAP1 DIV PUSH1 0xFF AND PUSH2 0x747 JUMPI PUSH1 0x0 DUP1 REVERT JUMPDEST PUSH1 0x0 PUSH1 0x4 DUP3 DUP2 SLOAD DUP2 LT PUSH2 0x75D JUMPI PUSH2 0x75C PUSH2 0xC82 JUMP JUMPDEST JUMPDEST SWAP1 PUSH1 0x0 MSTORE PUSH1 0x20 PUSH1 0x0 KECCAK256 SWAP1 PUSH1 0x6 MUL ADD SWAP1 POP DUP1 PUSH1 0x5 ADD PUSH1 0x0 CALLER PUSH20 0xFFFFFFFFFFFFFFFFFFFFFFFFFFFFFFFFFFFFFFFF AND PUSH20 0xFFFFFFFFFFFFFFFFFFFFFFFFFFFFFFFFFFFFFFFF AND DUP2 MSTORE PUSH1 0x20 ADD SWAP1 DUP2 MSTORE PUSH1 0x20 ADD PUSH1 0x0 KECCAK256 PUSH1 0x0 SWAP1 SLOAD SWAP1 PUSH2 0x100 EXP SWAP1 DIV PUSH1 0xFF AND ISZERO PUSH2 0x7C6 JUMPI PUSH1 0x0 DUP1 REVERT JUMPDEST PUSH1 0x1 DUP2 PUSH1 0x5 ADD PUSH1 0x0 CALLER PUSH20 0xFFFFFFFFFFFFFFFFFFFFFFFFFFFFFFFFFFFFFFFF AND PUSH20 0xFFFFFFFFFFFFFFFFFFFFFFFFFFFFFFFFFFFFFFFF AND DUP2 MSTORE PUSH1 0x20 ADD SWAP1 DUP2 MSTORE PUSH1 0x20 ADD PUSH1 0x0 KECCAK256 PUSH1 0x0 PUSH2 0x100 EXP DUP2 SLOAD DUP2 PUSH1 0xFF MUL NOT AND SWAP1 DUP4 ISZERO ISZERO MUL OR SWAP1 SSTORE POP DUP1 PUSH1 0x3 ADD PUSH1 0x0 DUP2 SLOAD DUP1 SWAP3 SWAP2 SWAP1 PUSH2 0x835 SWAP1 PUSH2 0xDA1 JUMP JUMPDEST SWAP2 SWAP1 POP SSTORE POP POP POP JUMP JUMPDEST DUP3 DUP1 SLOAD PUSH2 0x84A SWAP1 PUSH2 0xD6F JUMP JUMPDEST SWAP1 PUSH1 0x0 MSTORE PUSH1 0x20 PUSH1 0x0 KECCAK256 SWAP1 PUSH1 0x1F ADD PUSH1 0x20 SWAP1 DIV DUP2 ADD SWAP3 DUP3 PUSH2 0x86C JUMPI PUSH1 0x0 DUP6 SSTORE PUSH2 0x8B3 JUMP JUMPDEST DUP3 PUSH1 0x1F LT PUSH2 0x885 JUMPI DUP1 CALLDATALOAD PUSH1 0xFF NOT AND DUP4 DUP1 ADD OR DUP6 SSTORE PUSH2 0x8B3 JUMP JUMPDEST DUP3 DUP1 ADD PUSH1 0x1 ADD DUP6 SSTORE DUP3 ISZERO PUSH2 0x8B3 JUMPI SWAP2 DUP3 ADD JUMPDEST DUP3 DUP2 GT ISZERO PUSH2 0x8B2 JUMPI DUP3 CALLDATALOAD DUP3 SSTORE SWAP2 PUSH1 0x20 ADD SWAP2 SWAP1 PUSH1 0x1 ADD SWAP1 PUSH2 0x897 JUMP JUMPDEST JUMPDEST POP SWAP1 POP PUSH2 0x8C0 SWAP2 SWAP1 PUSH2 0x8C4 JUMP JUMPDEST POP SWAP1 JUMP JUMPDEST JUMPDEST DUP1 DUP3 GT ISZERO PUSH2 0x8DD JUMPI PUSH1 0x0 DUP2 PUSH1 0x0 SWAP1 SSTORE POP PUSH1 0x1 ADD PUSH2 0x8C5 JUMP JUMPDEST POP SWAP1 JUMP JUMPDEST PUSH1 0x0 DUP1 REVERT JUMPDEST PUSH1 0x0 DUP1 REVERT JUMPDEST PUSH1 0x0 DUP2 SWAP1 POP SWAP2 SWAP1 POP JUMP JUMPDEST PUSH2 0x8FE DUP2 PUSH2 0x8EB JUMP JUMPDEST DUP2 EQ PUSH2 0x909 JUMPI PUSH1 0x0 DUP1 REVERT JUMPDEST POP JUMP JUMPDEST PUSH1 0x0 DUP2 CALLDATALOAD SWAP1 POP PUSH2 0x91B DUP2 PUSH2 0x8F5 JUMP JUMPDEST SWAP3 SWAP2 POP POP JUMP JUMPDEST PUSH1 0x0 PUSH1 0x20 DUP3 DUP5 SUB SLT ISZERO PUSH2 0x937 JUMPI PUSH2 0x936 PUSH2 0x8E1 JUMP JUMPDEST JUMPDEST PUSH1 0x0 PUSH2 0x945 DUP5 DUP3 DUP6 ADD PUSH2 0x90C JUMP JUMPDEST SWAP2 POP POP SWAP3 SWAP2 POP POP JUMP JUMPDEST PUSH1 0x0 PUSH20 0xFFFFFFFFFFFFFFFFFFFFFFFFFFFFFFFFFFFFFFFF DUP3 AND SWAP1 POP SWAP2 SWAP1 POP JUMP JUMPDEST PUSH1 0x0 PUSH2 0x979 DUP3 PUSH2 0x94E JUMP JUMPDEST SWAP1 POP SWAP2 SWAP1 POP JUMP JUMPDEST PUSH2 0x989 DUP2 PUSH2 0x96E JUMP JUMPDEST DUP2 EQ PUSH2 0x994 JUMPI PUSH1 0x0 DUP1 REVERT JUMPDEST POP JUMP JUMPDEST PUSH1 0x0 DUP2 CALLDATALOAD SWAP1 POP PUSH2 0x9A6 DUP2 PUSH2 0x980 JUMP JUMPDEST SWAP3 SWAP2 POP POP JUMP JUMPDEST PUSH1 0x0 PUSH1 0x20 DUP3 DUP5 SUB SLT ISZERO PUSH2 0x9C2 JUMPI PUSH2 0x9C1 PUSH2 0x8E1 JUMP JUMPDEST JUMPDEST PUSH1 0x0 PUSH2 0x9D0 DUP5 DUP3 DUP6 ADD PUSH2 0x997 JUMP JUMPDEST SWAP2 POP POP SWAP3 SWAP2 POP POP JUMP JUMPDEST PUSH1 0x0 DUP2 ISZERO ISZERO SWAP1 POP SWAP2 SWAP1 POP JUMP JUMPDEST PUSH2 0x9EE DUP2 PUSH2 0x9D9 JUMP JUMPDEST DUP3 MSTORE POP POP JUMP JUMPDEST PUSH1 0x0 PUSH1 0x20 DUP3 ADD SWAP1 POP PUSH2 0xA09 PUSH1 0x0 DUP4 ADD DUP5 PUSH2 0x9E5 JUMP JUMPDEST SWAP3 SWAP2 POP POP JUMP JUMPDEST PUSH2 0xA18 DUP2 PUSH2 0x8EB JUMP JUMPDEST DUP3 MSTORE POP POP JUMP JUMPDEST PUSH1 0x0 PUSH1 0x20 DUP3 ADD SWAP1 POP PUSH2 0xA33 PUSH1 0x0 DUP4 ADD DUP5 PUSH2 0xA0F JUMP JUMPDEST SWAP3 SWAP2 POP POP JUMP JUMPDEST PUSH2 0xA42 DUP2 PUSH2 0x96E JUMP JUMPDEST DUP3 MSTORE POP POP JUMP JUMPDEST PUSH1 0x0 PUSH1 0xA0 DUP3 ADD SWAP1 POP PUSH2 0xA5D PUSH1 0x0 DUP4 ADD DUP9 PUSH2 0xA39 JUMP JUMPDEST PUSH2 0xA6A PUSH1 0x20 DUP4 ADD DUP8 PUSH2 0xA0F JUMP JUMPDEST PUSH2 0xA77 PUSH1 0x40 DUP4 ADD DUP7 PUSH2 0xA0F JUMP JUMPDEST PUSH2 0xA84 PUSH1 0x60 DUP4 ADD DUP6 PUSH2 0xA0F JUMP JUMPDEST PUSH2 0xA91 PUSH1 0x80 DUP4 ADD DUP5 PUSH2 0xA0F JUMP JUMPDEST SWAP7 SWAP6 POP POP POP POP POP POP JUMP JUMPDEST PUSH1 0x0 PUSH1 0x20 DUP3 ADD SWAP1 POP PUSH2 0xAB0 PUSH1 0x0 DUP4 ADD DUP5 PUSH2 0xA39 JUMP JUMPDEST SWAP3 SWAP2 POP POP JUMP JUMPDEST PUSH1 0x0 DUP2 MLOAD SWAP1 POP SWAP2 SWAP1 POP JUMP JUMPDEST PUSH1 0x0 DUP3 DUP3 MSTORE PUSH1 0x20 DUP3 ADD SWAP1 POP SWAP3 SWAP2 POP POP JUMP JUMPDEST PUSH1 0x0 JUMPDEST DUP4 DUP2 LT ISZERO PUSH2 0xAF0 JUMPI DUP1 DUP3 ADD MLOAD DUP2 DUP5 ADD MSTORE PUSH1 0x20 DUP2 ADD SWAP1 POP PUSH2 0xAD5 JUMP JUMPDEST DUP4 DUP2 GT ISZERO PUSH2 0xAFF JUMPI PUSH1 0x0 DUP5 DUP5 ADD MSTORE JUMPDEST POP POP POP POP JUMP JUMPDEST PUSH1 0x0 PUSH1 0x1F NOT PUSH1 0x1F DUP4 ADD AND SWAP1 POP SWAP2 SWAP1 POP JUMP JUMPDEST PUSH1 0x0 PUSH2 0xB21 DUP3 PUSH2 0xAB6 JUMP JUMPDEST PUSH2 0xB2B DUP2 DUP6 PUSH2 0xAC1 JUMP JUMPDEST SWAP4 POP PUSH2 0xB3B DUP2 DUP6 PUSH1 0x20 DUP7 ADD PUSH2 0xAD2 JUMP JUMPDEST PUSH2 0xB44 DUP2 PUSH2 0xB05 JUMP JUMPDEST DUP5 ADD SWAP2 POP POP SWAP3 SWAP2 POP POP JUMP JUMPDEST PUSH1 0x0 PUSH1 0xA0 DUP3 ADD SWAP1 POP DUP2 DUP2 SUB PUSH1 0x0 DUP4 ADD MSTORE PUSH2 0xB69 DUP2 DUP9 PUSH2 0xB16 JUMP JUMPDEST SWAP1 POP PUSH2 0xB78 PUSH1 0x20 DUP4 ADD DUP8 PUSH2 0xA0F JUMP JUMPDEST PUSH2 0xB85 PUSH1 0x40 DUP4 ADD DUP7 PUSH2 0x9E5 JUMP JUMPDEST PUSH2 0xB92 PUSH1 0x60 DUP4 ADD DUP6 PUSH2 0xA0F JUMP JUMPDEST PUSH2 0xB9F PUSH1 0x80 DUP4 ADD DUP5 PUSH2 0xA39 JUMP JUMPDEST SWAP7 SWAP6 POP POP POP POP POP POP JUMP JUMPDEST PUSH1 0x0 DUP1 REVERT JUMPDEST PUSH1 0x0 DUP1 REVERT JUMPDEST PUSH1 0x0 DUP1 REVERT JUMPDEST PUSH1 0x0 DUP1 DUP4 PUSH1 0x1F DUP5 ADD SLT PUSH2 0xBCE JUMPI PUSH2 0xBCD PUSH2 0xBA9 JUMP JUMPDEST JUMPDEST DUP3 CALLDATALOAD SWAP1 POP PUSH8 0xFFFFFFFFFFFFFFFF DUP2 GT ISZERO PUSH2 0xBEB JUMPI PUSH2 0xBEA PUSH2 0xBAE JUMP JUMPDEST JUMPDEST PUSH1 0x20 DUP4 ADD SWAP2 POP DUP4 PUSH1 0x1 DUP3 MUL DUP4 ADD GT ISZERO PUSH2 0xC07 JUMPI PUSH2 0xC06 PUSH2 0xBB3 JUMP JUMPDEST JUMPDEST SWAP3 POP SWAP3 SWAP1 POP JUMP JUMPDEST PUSH1 0x0 DUP1 PUSH1 0x0 DUP1 PUSH1 0x60 DUP6 DUP8 SUB SLT ISZERO PUSH2 0xC28 JUMPI PUSH2 0xC27 PUSH2 0x8E1 JUMP JUMPDEST JUMPDEST PUSH1 0x0 DUP6 ADD CALLDATALOAD PUSH8 0xFFFFFFFFFFFFFFFF DUP2 GT ISZERO PUSH2 0xC46 JUMPI PUSH2 0xC45 PUSH2 0x8E6 JUMP JUMPDEST JUMPDEST PUSH2 0xC52 DUP8 DUP3 DUP9 ADD PUSH2 0xBB8 JUMP JUMPDEST SWAP5 POP SWAP5 POP POP PUSH1 0x20 PUSH2 0xC65 DUP8 DUP3 DUP9 ADD PUSH2 0x90C JUMP JUMPDEST SWAP3 POP POP PUSH1 0x40 PUSH2 0xC76 DUP8 DUP3 DUP9 ADD PUSH2 0x997 JUMP JUMPDEST SWAP2 POP POP SWAP3 SWAP6 SWAP2 SWAP5 POP SWAP3 POP JUMP JUMPDEST PUSH32 0x4E487B7100000000000000000000000000000000000000000000000000000000 PUSH1 0x0 MSTORE PUSH1 0x32 PUSH1 0x4 MSTORE PUSH1 0x24 PUSH1 0x0 REVERT JUMPDEST PUSH32 0x4E487B7100000000000000000000000000000000000000000000000000000000 PUSH1 0x0 MSTORE PUSH1 0x12 PUSH1 0x4 MSTORE PUSH1 0x24 PUSH1 0x0 REVERT JUMPDEST PUSH32 0x4E487B7100000000000000000000000000000000000000000000000000000000 PUSH1 0x0 MSTORE PUSH1 0x11 PUSH1 0x4 MSTORE PUSH1 0x24 PUSH1 0x0 REVERT JUMPDEST PUSH1 0x0 PUSH2 0xD1A DUP3 PUSH2 0x8EB JUMP JUMPDEST SWAP2 POP PUSH2 0xD25 DUP4 PUSH2 0x8EB JUMP JUMPDEST SWAP3 POP DUP3 PUSH2 0xD35 JUMPI PUSH2 0xD34 PUSH2 0xCB1 JUMP JUMPDEST JUMPDEST DUP3 DUP3 DIV SWAP1 POP SWAP3 SWAP2 POP POP JUMP JUMPDEST PUSH32 0x4E487B7100000000000000000000000000000000000000000000000000000000 PUSH1 0x0 MSTORE PUSH1 0x22 PUSH1 0x4 MSTORE PUSH1 0x24 PUSH1 0x0 REVERT JUMPDEST PUSH1 0x0 PUSH1 0x2 DUP3 DIV SWAP1 POP PUSH1 0x1 DUP3 AND DUP1 PUSH2 0xD87 JUMPI PUSH1 0x7F DUP3 AND SWAP2 POP JUMPDEST PUSH1 0x20 DUP3 LT DUP2 EQ ISZERO PUSH2 0xD9B JUMPI PUSH2 0xD9A PUSH2 0xD40 JUMP JUMPDEST JUMPDEST POP SWAP2 SWAP1 POP JUMP JUMPDEST PUSH1 0x0 PUSH2 0xDAC DUP3 PUSH2 0x8EB JUMP JUMPDEST SWAP2 POP PUSH32 0xFFFFFFFFFFFFFFFFFFFFFFFFFFFFFFFFFFFFFFFFFFFFFFFFFFFFFFFFFFFFFFFF DUP3 EQ ISZERO PUSH2 0xDDF JUMPI PUSH2 0xDDE PUSH2 0xCE0 JUMP JUMPDEST JUMPDEST PUSH1 0x1 DUP3 ADD SWAP1 POP SWAP2 SWAP1 POP JUMP INVALID LOG2 PUSH5 0x6970667358 0x22 SLT KECCAK256 0xA6 DELEGATECALL SLOAD 0xD2 0x25 0xCD 0xDA PC POP 0xB9 STOP 0xAE PUSH22 0x81D37386BCD09F896738B5DFB8FB07C5973F8864736F PUSH13 0x63430008090033A26469706673 PC 0x22 SLT KECCAK256 0xE6 CALL PUSH22 0x41493407CE258C49878AAC1B934816C71B0551C94A9A 0xAF PUSH1 0x1C SWAP4 SWAP12 BLOCKHASH DUP1 PUSH5 0x736F6C6343 STOP ADDMOD MULMOD STOP CALLER "},"gasEstimates":{"creation":{"codeDepositCost":"1017400","executionCost":"1054","totalCost":"1018454"},"external":{"allDeployedContracts(uint256)":"4956","createContract(uint256)":"infinite","getAllDeployedContract()":"infinite"}},"methodIdentifiers":{"allDeployedContracts(uint256)":"aa6d0a98","createContract(uint256)":"9db8d7d5","getAllDeployedContract()":"d6c83f4f"}},"storageLayout":{"storage":[{"astId":4,"contract":"Crowdfunding.sol:CrowdfundFactory","label":"allDeployedContracts","offset":0,"slot":"0","type":"t_array(t_address)dyn_storage"}],"types":{"t_address":{"encoding":"inplace","label":"address","numberOfBytes":"20"},"t_array(t_address)dyn_storage":{"base":"t_address","encoding":"dynamic_array","label":"address[]","numberOfBytes":"32"}}},"userdoc":{"kind":"user","methods":{},"version":1}}